:020000040800F2
:100000002815002061020008690200086B02000840
:100010006D0200086F020008710200080000000075
:100020000000000000000000000000007302000853
:1000300075020008000000007702000885350008FE
:100040007B0200087B0200087B0200087B0200089C
:100050007B0200087B020008691400087115000883
:10006000F515000879160008FD1600087B02000847
:100070007B0200087B0200087B0200087B0200086C
:100080007B0200087B0200087B02000800000000E1
:1000900000000000000000000000000081170008C0
:1000A0007B0200087B0200087B0200087B0200083C
:1000B000E53600087B0200087B0200087B0200088E
:1000C0007B0200087B0200087B0200087B0200081C
:1000D0007B0200087B020008913700080000000046
:1000E000ED1400087B0200087B02000800000000FD
:1000F0000000000000000000000000007B0200087B
:10010000000000007B0200087B0200087B02000860
:1001100000000000000000000000000000000000DF
:100120007B0200087B0200087B0200087B020008BB
:100130007B0200080000000000000000000000003A
:100140000000000000000000000000007B0200082A
:100150007B0200087B0200087B0200087B0200088B
:100160007B0200087B020008000000000000000085
:10017000000000000000000000000000000000007F
:10018000000000007B0200080000000000000000EA
:100190007B02000800F002F800F052F814A696E87E
:1001A000000CB244B344DA4501D100F049F8BAE892
:1001B0000F000FA696E83000A5EB040504EB060738
:1001C000AAEB0704A7F101074FEA15154FEA34140B
:1001D000A4F10104AC4201D300F032F813F0010F96
:1001E00018BFFB1A43F0010300F001F8DBE71847E2
:1001F00094480000B4480000103A24BF78C878C181
:10020000FAD8520724BF30C830C144BF04680C601C
:1002100070470000704700000023002400250026DE
:10022000103A28BF78C1FBD8520728BF30C148BF59
:100230000B6070471FB504F00BFA1FBD10B510BD61
:1002400000F08EF81146FFF7F5FF03F0FBFE00F01B
:10025000ACF803B4FFF7F2FF03BC00F0AFF8000006
:100260000948804709480047FEE7FEE7FEE7FEE74A
:10027000FEE7FEE7FEE7FEE7FEE7FEE70448054986
:10028000054A064B70470000C53600089501000876
:10029000280F0020281500202811002028110020F8
:1002A0004FF000020429C0F0128010F0030C00F09F
:1002B0001B80CCF1040CBCF1020F18BF00F8012B1D
:1002C000A8BF20F8022BA1EB0C0100F00DB85FEAEB
:1002D000C17C24BF00F8012B00F8012B48BF00F8B7
:1002E000012B70474FF0000200B513469446964626
:1002F000203922BFA0E80C50A0E80C50B1F1200139
:10030000BFF4F7AF090728BFA0E80C5048BF0CC0E6
:100310005DF804EB890028BF40F8042B08BF704744
:1003200048BF20F8022B11F0804F18BF00F8012BB6
:10033000704770477047704710B500F009F80068C3
:1003400010BD10B5044600F003F8046010BD0000B5
:1003500000487047400000200048704740000020DF
:100360007546FFF7F9FFAE4605006946534620F093
:100370000700854618B020B5FFF780FFBDE8204094
:100380004FF000064FF000074FF000084FF0000B51
:10039000AC46ACE8C009ACE8C009ACE8C009ACE8C0
:1003A000C00921F007018D46704710B50446AFF330
:1003B00000802046BDE81040FFF74BBF01491820E0
:1003C000ABBEFEE7260002007047000080B582B099
:1003D0000190019808B9FFE75BE0019900200090C7
:1003E0000870019981F84401019981F84C01019943
:1003F000C1F848010199A1F84E01019981F8500115
:1004000040F65021C2F200010A68019BC3F8542152
:100410000A68019BC3F858210A68019BC3F85C2154
:100420000A68019BC3F860210A68019BC3F8642134
:100430000A68019BC3F868210968019AC2F86C1127
:100440000199A1F870010199A1F872010199A1F82F
:1004500074010199A1F876010199A1F87801019937
:10046000A1F87A01019981F87C01019981F87D0157
:100470000198023002F08AFA019800F5967001F0B6
:1004800037FB03F061F801F09FFF019981F87C01CF
:10049000FFE702B080BD000080B59EB01D901D98A2
:1004A00010B9FFE700F035BD40F65020C2F2000061
:1004B00000681C901C981D99D1F85411401A1A908C
:1004C0001D9802F027FA1D98007801460991052829
:1004D00000F21F850999DFE811F006002D011702CF
:1004E0006F034304B0041D9890F8500140F20001DE
:1004F000C2F200010978884200F0BD80FFE71D9834
:1005000090F8500140F20001C2F2000108701D98FD
:1005100090F85001A8B9FFE701F05CFF032000212B
:1005200002F05CF844F60910C0F6000002F044F84E
:10053000012019A9089103F0E9FB089802F03CF8A2
:1005400098E01D9890F8500101388DF863009DF8EF
:10055000630002282ED8FFE701F03CFF01200021B4
:10056000079102F03BF89DF8631040F22400C2F2BC
:10057000000050F8210002F01FF80799032002F054
:100580002DF89DF8631040F21800C2F2000050F8F8
:10059000210002F011F80799052002F01FF89DF8DC
:1005A000631040F23000C2F2000050F8210002F067
:1005B00003F85EE09DF86300032859D1FFE701F0DE
:1005C00009FF0021084602F009F844F6AA10C0F617
:1005D000000001F0F1FF1D98D0F8480146F2676174
:1005E000C6F2666150FB01F2901000EBD2701490DD
:1005F0001D98D0F8480150FB01F2911001EBD27127
:1006000001EB8101A0EB410013901398B0F1FF3F83
:1006100004DCFFE7139840421390FFE703201E21FC
:1006200001F0DCFF14980DF15701069103F06EFB09
:10063000069801F0C1FF44F63D10C0F6000001F03D
:10064000BBFF0699139803F061FB069801F0B4FF15
:1006500044F69F00C0F6000001F060FF44F6ED1084
:10066000C0F6000001F0A8FF1D9803F0D7F8FFE7DF
:10067000FFE7FFE7FFE71D9890F8500178B9FFE723
:100680001A98B0F57A7F09D3FFE71D99012081F808
:1006900050011C981D99C1F85401FFE749E01D98CD
:1006A00090F8500101388DF84B009DF84B0002285E
:1006B00011D8FFE71A98B0F57A7F0BD3FFE71D99A1
:1006C00091F85001013081F850011C981D99C1F832
:1006D0005401FFE72CE09DF84B00032811D1FFE700
:1006E0001A98B0F5FA6F0BD3FFE71D9991F85001F6
:1006F000013081F850011C981D99C1F85401FFE7A1
:1007000015E001F067FE1D99012008701C981D99E5
:10071000C1F854011D99002081F84C011D9890F8F2
:100720004C0100F0BBFD1D9803F078F8FFE7FFE7F0
:10073000FFE7EEE31C981D99D1F85C11401A1428CC
:10074000C0F0D080FFE740F2A500C2F2000040F206
:10075000A601C2F2000140F2A702C2F2000240F27A
:10076000A803C2F2000302F01DF88DF86F001C9878
:100770001D99C1F85C019DF86F00C007F8B1FFE753
:100780001D9890F84C018DF84A001D9890F84C0186
:10079000012807DBFFE71D9991F84C01013881F82A
:1007A0004C0104E01D99022081F84C01FFE79DF8FF
:1007B0004A001D9991F84C1100F0B8FDFFE79DF833
:1007C0006F00800700281FD5FFE71D9890F84C01A7
:1007D0008DF849001D9890F84C01012807DCFFE7CF
:1007E0001D9991F84C01013081F84C0104E01D99EC
:1007F000002081F84C01FFE79DF849001D9991F810
:100800004C1100F093FDFFE79DF86F0040070028B2
:1008100067D5FFE71D9890F84C010146059140B15E
:10082000FFE70598012820D0FFE7059802284AD065
:1008300053E01D99002081F844011D98023002F018
:10084000A5F802F095FE01F0C5FD1D98023002F0FA
:10085000BFFD1D99032008701C981D99C1F8540113
:100860001C981D99C1F8600137E01D9890F83D0172
:1008700050B9FFE71D99022008701C981D99C1F816
:10088000540100F039FC1DE01D99012081F844015C
:100890001D98023002F07AF802F06AFE01F09AFD2B
:1008A00002F00EFE1D98023002F092FD1D99032009
:1008B00008701C981D99C1F854011C981D99C1F825
:1008C0006001FFE709E01D99022008701C981D993E
:1008D000C1F8540100F010FCFFE71D9802F09EFFE4
:1008E000FFE7FFE71C981D99D1F86811401AB0F591
:1008F000FA7F08D3FFE71D9802F090FF1C981D991E
:10090000C1F86801FFE704E31C981D99D1F858115C
:10091000401A1428C0F0CB80FFE71D9801F0E2FFD9
:100920001C981D99C1F858011D99B1F97201B1F9CE
:10093000741101F0C1F88DED110A1D9AB2F9700120
:10094000B2F97211B2F9742101F070F88DED100A4C
:100950009DED110AB5EE400AF1EE10FA07DAFFE755
:100960009DED110AB1EE400A8DED040A04E09DED03
:10097000110A8DED040AFFE79DED040A8DED0F0AC3
:100980009DED100AB5EE400AF1EE10FA07DAFFE726
:100990009DED100AB1EE400A8DED030A04E09DEDD5
:1009A000100A8DED030AFFE79DED030A8DED0E0A97
:1009B00044F6DF00C0F600000D909DED0F0AB3EE87
:1009C000041AB4EE410AF1EE10FA0ADAFFE79DEDDF
:1009D0000E0AB3EE041AB4EE410AF1EE10FA2FDB60
:1009E000FFE79DED0E0A9DED0F1AB4EE410AF1EE00
:1009F00010FA12DDFFE79DED100A44F6ED01C0F696
:100A0000000144F6F400C0F60000B5EE400AF1EE35
:100A100010FAC8BF08460D9011E09DED110A44F68A
:100A2000FB01C0F6000144F60210C0F60000B5EE6E
:100A3000400AF1EE10FAC8BF08460D90FFE7FFE745
:100A400005201E2101F0CAFD0D9801F0B5FD06201C
:100A5000002101F0C3FD44F69B10C0F6000001F038
:100A6000ABFD9DED110ABDEEC00A10EE100A0BA9F8
:100A7000029103F04BF9029801F09EFD44F69710A5
:100A8000C0F6000001F098FD02999DED100ABDEE40
:100A9000C00A10EE100A03F039F9029801F08CFD3B
:100AA00044F6C200C0F6000001F086FDFFE71C9886
:100AB0001D99D1F85C11401A14286BD3FFE740F25E
:100AC000A500C2F2000040F2A601C2F2000140F20D
:100AD000A702C2F2000240F2A803C2F2000301F032
:100AE00061FE8DF86F001C981D99C1F85C019DF89E
:100AF0006F004007002836D5FFE71D9B03F5967071
:100B0000B3F97011B3F97221B3F9743100F054FFE5
:100B100001F060FC03200021019101F05FFD44F62B
:100B20001010C0F6000001F047FD0199042001F00B
:100B300055FD44F60D20C0F6000001F03DFD4FF4D8
:100B40007A7002F0ADFF1D99012008701C981D9964
:100B5000C1F854011D9890F84C0100F09FFB1D98BE
:100B600002F05CFEFFE79DF86F000007002810D53B
:100B7000FFE71D99012008701C981D99C1F85401C8
:100B80001D9890F84C0100F089FB1D9802F046FE7C
:100B9000FFE7FFE71C981D99D1F86811401AB0F5DE
:100BA000FA7F08D3FFE71D9802F038FE1C981D99C4
:100BB000C1F86801FFE7ACE11C981D99D1F8581104
:100BC000401A142812D3FFE71D9801F08BFE1C98E1
:100BD0001D99C1F858011D9890F84401012804D1CD
:100BE000FFE71D9801F0BCFDFFE7FFE71C981D998A
:100BF000D1F85C11401A142869D3FFE740F2A50030
:100C0000C2F2000040F2A601C2F2000140F2A702C7
:100C1000C2F2000240F2A803C2F2000301F0C2FDDA
:100C20008DF86F0001F028FE8DF86E001C981D995C
:100C3000C1F85C019DF86E000007002834D5FFE77D
:100C400040F2A400C2F20000007868B9FFE71C98E7
:100C500040F2A001C2F20001086040F2A401C2F219
:100C60000001012008701EE01C9840F2A001C2F2B1
:100C700000010968401AB0F5FA7F13D3FFE740F28C
:100C8000A401C2F20001002008701D990420087020
:100C90001C981D99C1F8540100F06CFB1D9802F0DE
:100CA000BDFD36E1FFE706E040F2A401C2F200011B
:100CB00000200870FFE71D9890F8440130B9FFE765
:100CC0001D989DF86E1001F011FDFFE7FFE71D98DC
:100CD000023001F03BFE0A901C981D99D1F860117A
:100CE000401A0A99884229D3FFE71D98023002F082
:100CF000D3F91D98023002F06BFB1C981D99C1F8C6
:100D000060011D9890F8D900B8B1FFE71D99B1F8BE
:100D1000D400A1F84E011D99052008701C981D995A
:100D2000C1F854011D99B1F8D400B1F8D61000F003
:100D300067FA1D9802F072FDEBE0FFE71C981D9921
:100D4000D1F86811401AB0F5FA7F08D3FFE71D9873
:100D500002F064FD1C981D99C1F86801FFE7D8E016
:100D60001C981D99D1F85C11401A142853D3FFE741
:100D700040F2A500C2F2000040F2A601C2F200015A
:100D800040F2A702C2F2000240F2A803C2F200033E
:100D900001F008FD8DF86F001C981D99C1F85C01E9
:100DA0009DF86F004007002819D5FFE702F0E0FB2F
:100DB00001F010FB02F084FB1D98023002F008FBEA
:100DC0001D99032008701C981D99C1F854011C98A6
:100DD0001D99C1F860011D9802F020FDFFE79DF804
:100DE0006F000007002815D5FFE71D990120087046
:100DF0001C981D99C1F854011D99B1F8D400A1F8AF
:100E00004E011D9890F84C0100F048FA1D9802F030
:100E100005FDFFE7FFE71C981D99D1F86811401AFE
:100E2000B0F5FA7F08D3FFE71D9802F0F7FC1C9895
:100E30001D99C1F86801FFE76BE01C981D99D1F876
:100E40005C11401A142852D3FFE740F2A500C2F209
:100E5000000040F2A601C2F2000140F2A702C2F275
:100E6000000240F2A803C2F2000301F09BFC8DF8DF
:100E70006F001C981D99C1F85C019DF86F00400738
:100E800000281DD5FFE71D98023001F07FFD02F01C
:100E90006FFB01F09FFA02F013FB1D98023002F085
:100EA00097FA1D99032008701C981D99C1F85401E8
:100EB0001C981D99C1F860011D9802F0AFFCFFE776
:100EC0009DF86F000007002810D5FFE71D9901204D
:100ED00008701C981D99C1F854011D9890F84C0198
:100EE00000F0DCF91D9802F099FCFFE7FFE71C9881
:100EF0001D99D1F86811401AB0F5FA7F08D3FFE7C1
:100F00001D9802F08BFC1C981D99C1F86801FFE741
:100F1000FFE71EB080BD000040F61000C4F20200E2
:100F2000006800F40071012080EA51207047000041
:100F300040F61000C4F20200006800F02001012019
:100F400080EA51107047000040F61000C4F2020021
:100F5000006800F04001012080EA91107047000015
:100F600040F61000C4F20200006800F48071012015
:100F700080EA11207047000043F63001C4F20201FC
:100F8000086840F00400086040F60001C4F2020165
:100F900008684CF2FF32CFF6F0721040086040F65D
:100FA0000C01C4F20201086810400860086841F2B0
:100FB0000042C0F2050210430860704780B582B05D
:100FC00003F028F938B9FFE740F2C800C2F2000088
:100FD0000068019025E0CC2003F05AF9BE2003F010
:100FE00057F903F0EFF88DF8030003F0EBF88DF8F4
:100FF00002009DF802109DF8030040EA0120ADF8C0
:101000000000BDF9000000EB8000400000EB107014
:10101000011140F2C800C2F20000016000680190B6
:10102000FFE7019802B080BD80B540F2C400C2F273
:101030000000007808B1FFE71EE003F0EBF808B904
:10104000FFE719E0CC2003F023F9442003F020F956
:1010500040F2CC01C2F2000140F2EE20088040F2E2
:10106000C401C2F200010120087040F2C501C2F2C1
:10107000000100200870FFE780BD000040F2C400BE
:10108000C2F20000007820B3FFE740F2CC00C2F2C9
:101090000000008840B1FFE740F2CC01C2F200013D
:1010A000088801380880FFE740F2CC00C2F2000057
:1010B000008868B9FFE740F2C501C2F200010120D3
:1010C000087040F2C401C2F2000100200870FFE77E
:1010D000FFE770474EF6FC51CEF20001086840F081
:1010E0008070086041F20001CEF20001086840F013
:1010F000010008607047000080B582B001F06AF915
:1011000000210191084601F069FA44F6EF10C0F69B
:10111000000001F051FA0199022001F05FFA44F653
:101120005E20C0F6000001F047FA0199032001F0AB
:1011300055FA44F64D20C0F6000001F03DFA019941
:10114000072001F04BFA44F63A20C0F6000001F007
:1011500033FA02B080BD000080B582B08DF8070080
:101160008DF806109DF807009DF806104FEAC17C27
:1011700044F67303C0F6000344F66F02C0F60002A3
:10118000BCF1000F18BF1A4600F0E2FB02B080BDB0
:1011900080B582B08DF807008DF806109DF8070025
:1011A0009DF806104FEAC17C44F67B03C0F60003AD
:1011B00044F67702C0F60002BCF1000F18BF1A46D1
:1011C00000F0C6FB02B080BD80B582B08DF807008C
:1011D0008DF806109DF807009DF806104FEAC17CB7
:1011E00044F68303C0F6000344F67F02C0F6000213
:1011F000BCF1000F18BF1A4600F0AAFB02B080BD78
:1012000080B586B0ADF81600ADF8141001F0E2F824
:1012100001200021019101F0E1F944F6D910C0F656
:10122000000001F0C9F90199032001F0D7F944F653
:10123000E500C0F6000001F0BFF9BDF8160002A9F4
:10124000009102F063FD009801F0B6F901990420C5
:1012500001F0C4F944F6D700C0F6000001F0ACF983
:101260000099BDF8140002F051FD009801F0A4F9B6
:101270000199062001F0B2F944F66F20C0F6000093
:1012800001F09AF90199072001F0A8F944F67B20B2
:10129000C0F6000001F090F906B080BD80B582B0C4
:1012A0008DF8070001F096F800210091084601F042
:1012B00095F944F6C610C0F6000001F07DF90099DA
:1012C000022001F08BF944F61C10C0F6000001F07A
:1012D00073F90099032001F081F944F62E10C0F64D
:1012E000000001F069F90099042001F077F944F653
:1012F000FD10C0F6000001F05FF90099072001F031
:101300006DF944F62920C0F6000001F055F9009966
:101310009DF807000230C0B201F060F944F6EB100E
:10132000C0F6000001F048F902B080BD80B582B07F
:101330008DF807008DF806109DF807000230C0B246
:101340000021009101F04AF944F60E10C0F60000A9
:1013500001F032F900999DF806000230C0B201F0A8
:101360003DF944F6EB10C0F6000001F025F902B09B
:1013700080BD000080B582B001F02CF80220002171
:10138000019101F02BF944F6B710C0F6000001F00E
:1013900013F90199042001F021F944F61E20C0F64A
:1013A000000001F009F90199052001F017F944F650
:1013B0007B20C0F6000001F0FFF802B080BD000005
:1013C00080B582B08DF807008DF806109DF80700F3
:1013D0009DF806104FEAC17C44F69303C0F6000363
:1013E00044F68F02C0F60002BCF1000F18BF1A4687
:1013F00000F0AEFA02B080BD80B582B08DF8070073
:101400008DF806109DF807009DF806104FEAC17C84
:1014100044F68B03C0F6000344F68702C0F60002D0
:10142000BCF1000F18BF1A4600F092FA02B080BD5E
:1014300080B582B08DF807008DF806109DF8070082
:101440009DF806104FEAC17C44F69B03C0F60003EA
:1014500044F69702C0F60002BCF1000F18BF1A460E
:1014600000F076FA02B080BD80B584B040F2B400DE
:10147000C2F2000001680020C4F2020000EB8120EB
:10148000039043F61440C4F201000190006840F25A
:10149000B001C2F2000102910968C84000F00100E9
:1014A00040F2B801C2F200010860062002F08EFA94
:1014B000019A02990B68012000FA03F3106818439F
:1014C0001060039800690968C840C00760B1FFE771
:1014D00040F2AC00C2F20000016840F2B000C2F27B
:1014E000000000688847FFE704B080BD80B584B085
:1014F00040F2B400C2F2000001680020C4F2020011
:1015000000EB8120039043F61440C4F201000190E7
:10151000006840F2B001C2F2000102910968C840BF
:1015200000F0010040F2B801C2F20001086028207A
:1015300002F04CFA019A02990B68012000FA03F3B9
:10154000106818431060039800690968C840C00714
:1015500060B1FFE740F2AC00C2F20000016840F267
:10156000B000C2F2000000688847FFE704B080BD09
:1015700080B584B040F2B400C2F2000001680020DF
:10158000C4F2020000EB8120039043F61440C4F241
:1015900001000190006840F2B001C2F20001029126
:1015A0000968C84000F0010040F2B801C2F2000131
:1015B0000860072002F00AFA019A02990B680120DC
:1015C00000FA03F310681843106003980069096873
:1015D000C840C00760B1FFE740F2AC00C2F20000B3
:1015E000016840F2B000C2F2000000688847FFE7DF
:1015F00004B080BD80B584B040F2B400C2F20000F7
:1016000001680020C4F2020000EB8120039043F641
:101610001440C4F201000190006840F2B001C2F22F
:10162000000102910968C84000F0010040F2B801D1
:10163000C2F200010860082002F0C8F9019A02997C
:101640000B68012000FA03F3106818431060039838
:1016500000690968C840C00760B1FFE740F2AC000C
:10166000C2F20000016840F2B000C2F2000000685F
:101670008847FFE704B080BD80B584B040F2B40075
:10168000C2F2000001680020C4F2020000EB8120D9
:10169000039043F61440C4F201000190006840F248
:1016A000B001C2F2000102910968C84000F00100D7
:1016B00040F2B801C2F200010860092002F086F988
:1016C000019A02990B68012000FA03F3106818438D
:1016D0001060039800690968C840C00760B1FFE75F
:1016E00040F2AC00C2F20000016840F2B000C2F269
:1016F000000000688847FFE704B080BD80B584B073
:1017000040F2B400C2F2000001680020C4F20200FE
:1017100000EB8120039043F61440C4F201000190D5
:10172000006840F2B001C2F2000102910968C840AD
:1017300000F0010040F2B801C2F2000108600A2086
:1017400002F044F9019A02990B68012000FA03F3B0
:10175000106818431060039800690968C840C00702
:1017600060B1FFE740F2AC00C2F20000016840F255
:10177000B000C2F2000000688847FFE704B080BDF7
:1017800080B584B040F2B400C2F2000001680020CD
:10179000C4F2020000EB8120039043F61440C4F22F
:1017A00001000190006840F2B001C2F20001029114
:1017B0000968C84000F0010040F2B801C2F200011F
:1017C0000860172002F002F9019A02990B680120C3
:1017D00000FA03F310681843106003980069096861
:1017E000C840C00760B1FFE740F2AC00C2F20000A1
:1017F000016840F2B000C2F2000000688847FFE7CD
:1018000004B080BD80B582B000208DF80700FFE7EE
:101810009DF807000F2800F29980FFE700208DF85F
:101820000600FFE79DF806001F2800F28880FFE70A
:101830009DF8070040088DF805009DF8060080001F
:101840008DF804009DF805109DF8040000EBC11010
:10185000ADF8020000208DF800008DF80100FFE7D0
:101860009DF8010003281DD8FFE7BDF802009DF890
:101870000110421840F2CE00C2F20000805C40F23B
:10188000CE41C2F20001895C884204D0FFE701200A
:101890008DF8000006E0FFE79DF8010001308DF8AB
:1018A0000100DDE79DF8000008B9FFE741E09DF881
:1018B00005009DF8041000F091FE00208DF8010055
:1018C000FFE79DF80100032813D8FFE7BDF80200E9
:1018D0009DF80110014440F2CE00C2F20000405CCD
:1018E00000F0B2FDFFE79DF8010001308DF8010026
:1018F000E7E700208DF80100FFE79DF801000328CD
:1019000016D8FFE7BDF802009DF80110421840F21A
:10191000CE00C2F20000805C40F2CE41C2F2000173
:101920008854FFE79DF8010001308DF80100E4E7DD
:10193000FFE79DF8060001308DF8060072E7FFE72B
:101940009DF8070001308DF8070061E702B080BD07
:1019500083B08DF80B008DF80A1001929DF80A00F3
:1019600040088DF803009DF80B0080008DF8020000
:1019700000208DF80100FFE79DF80100032819D829
:10198000FFE701989DF80110435C9DF803209DF846
:10199000020000EBC210421840F2CE01C2F2000178
:1019A000885C18438854FFE79DF8010001308DF8EA
:1019B0000100E1E703B0704780B586B00590ADF84F
:1019C0001210ADF81020ADF80E30059808B9FFE7F9
:1019D00029E0BDF91000BDF90E1000F06DF88DED95
:1019E000020ABDF91200BDF91010BDF90E2000F079
:1019F0001DF88DED010A0298059908600198059976
:101A000048600598002181600598C160059A03200F
:101A10001074059A91740599C87405990120087588
:101A200005994874FFE706B080BD000080B584B01A
:101A3000ADF80A00ADF80810ADF80620BDF90800B1
:101A400000EE100AB8EEC00ABDF9060001EE100A59
:101A5000B8EEC11A21EE011A20EE000A30EE010A9A
:101A600002F0CEFD8DED000A9DED000A9FED101AEB
:101A7000B4EE410AF1EE10FA03DAFFE7002003901A
:101A800011E0BDF90A00404200EE100AB8EEC00AAB
:101A9000DDED000A02F05EFC9FED061A20EE010A61
:101AA0008DED030AFFE79DED030A04B080BD00BF82
:101AB0000AD7233CE02E654280B582B0ADF806001F
:101AC000ADF80410BDF9060000EE100AB8EEC00A29
:101AD000BDF9040001EE100AF8EEC10A02F03AFC6A
:101AE0009FED021A20EE010A02B080BDE02E654291
:101AF00081B00090009808B9FFE715E00098002138
:101B0000016000984160009881600098C160009A6F
:101B100003201074009A5174009A91740099C8744B
:101B2000009901200875FFE701B0704780B58CB0BF
:101B30000DF1080CCDF800C00A90ADF82610ADF8F4
:101B40002420ADF822300A9820B9FFE703208DF851
:101B50002F001BE10A98407C28B9FFE70A98007C17
:101B60008DF82F0012E1BDF92400BDF92210FFF716
:101B7000A3FF009880ED050ABDF92600BDF92410E9
:101B8000BDF92220FFF752FF009880ED040A90ED86
:101B9000050A0A9991ED001A30EE410A80ED030A18
:101BA00090ED040A0A9991ED011A30EE410A80ED98
:101BB000020A90ED030A0A9991ED021AB6EE083A6C
:101BC00021EE031AB5EE002A20EE020A30EE010AD9
:101BD00081ED020A90ED020A0A9991ED031A21EEB5
:101BE000031A20EE020A30EE010A81ED030A0A9977
:101BF000896803910A99C968029190ED010AB5EECE
:101C0000400AF1EE10FA08DAFFE7009890ED010AB9
:101C1000B1EE400A80ED010AFFE7009890ED000A5E
:101C2000B5EE400AF1EE10FA08DAFFE7009890ED01
:101C3000000AB1EE400A80ED000AFFE7009890ED3F
:101C4000010AB3EE041AB4EE410AF1EE10FA30DAEA
:101C5000FFE7009890ED000AB3EE041AB4EE410AD3
:101C6000F1EE10FA25DAFFE7009890ED010AB2EEE6
:101C7000041AB4EE410AF1EE10FA0FDAFFE7009809
:101C800090ED000AB2EE041AB4EE410AF1EE10FA39
:101C900004DAFFE70A9901200875FFE70A99002096
:101CA00088740A99087CC8740A98007C8DF82F0003
:101CB0006CE00A98007D28B9FFE70A98007C8DF84F
:101CC0002F0063E0009890ED000A90ED011AB4EE49
:101CD000410AF1EE10FA14DDFFE70A9890ED030ACD
:101CE000B3EE041AB4EE410AF1EE10FA04DDFFE798
:101CF00001208DF8070003E000208DF80700FFE7C2
:101D000013E00A9890ED020AB3EE041AB4EE410A09
:101D1000F1EE10FA04DDFFE702208DF8070003E082
:101D200003208DF80700FFE7FFE79DF807000A99F9
:101D3000C97C88421DD1FFE70A99887C01308874EC
:101D40000A98807C022813D3FFE79DF807000A99C0
:101D5000097C884205D0FFE79DF807000A990874BE
:101D6000FFE70A99002008750A9902208874FFE7A6
:101D700007E09DF807000A99C8740A990120887441
:101D8000FFE70A98007C8DF82F00FFE79DF82F00F1
:101D90000CB080BD43F63001C4F20201086840F087
:101DA0000200086043F64001C4F20201086840F4F2
:101DB0000010086040F20041C4F20201086820F4FB
:101DC00070200860086840F42020086040F2044158
:101DD000C4F20201086840F44070086040F20C410F
:101DE000C4F20201086820F470200860086840F41A
:101DF000A020086040F20841C4F20201086840F4E3
:101E00007020086040F22441C4F20201086820F00A
:101E1000FF000860086840F04400086045F2004197
:101E2000C4F20001086840F400400860086820F42B
:101E30000040086045F20442C4F200021020106025
:101E400045F21C42C4F200025020106045F22042CC
:101E5000C4F2000211201060086840F00100086020
:101E60007047000082B08DF807008DF80610FFE77C
:101E700045F21840C4F2000000688007002801D530
:101E8000FFE7F5E745F20041C4F20001086840F4BD
:101E900080700860FFE745F21440C4F2000000685B
:101EA000C00708B9FFE7F6E79DF80700400045F2D4
:101EB0001041C4F200010860FFE745F21440C4F28B
:101EC000000000688007002801D4FFE7F5E745F22D
:101ED0001840C4F20000006800900098FFE745F247
:101EE0001440C4F2000000680006002801D4FFE797
:101EF000F5E79DF8060045F21041C4F200010860C4
:101F0000FFE745F21440C4F2000000680006002814
:101F100001D4FFE7F5E745F20041C4F2000108688B
:101F200040F480700860FFE745F21440C4F20000FE
:101F30000068C00708B9FFE7F6E79DF80700400012
:101F4000013045F21041C4F200010860FFE745F29C
:101F50001440C4F2000000688007002801D4FFE7A5
:101F6000F5E745F20041C4F20001086820F4806002
:101F7000086045F21840C4F2000000680090009824
:101F8000086840F400700860FFE745F21440C4F2AE
:101F9000000000684006002801D4FFE7F5E745F29D
:101FA0001040C4F2000000688DF805009DF805009F
:101FB00002B0704782B08DF807008DF806108DF8DA
:101FC0000520FFE745F21840C4F2000000688007D2
:101FD000002801D5FFE7F5E745F20041C4F2000112
:101FE000086840F480700860FFE745F21440C4F2CE
:101FF00000000068C00708B9FFE7F6E79DF8070092
:10200000400045F21041C4F200010860FFE745F2CC
:102010001440C4F2000000688007002801D4FFE7E4
:10202000F5E745F21840C4F20000006800900098FF
:10203000FFE745F21440C4F20000006800060028E3
:1020400001D4FFE7F5E79DF8060045F21041C4F220
:1020500000010860FFE745F21440C4F20000006888
:102060000006002801D4FFE7F5E79DF8050045F2DA
:102070001041C4F200010860FFE745F21440C4F2C9
:10208000000000684007002801D4FFE7F5E745F2AB
:102090000041C4F20001086840F40070086002B01A
:1020A0007047000082B08DF807008DF806108DF89B
:1020B0000520FFE745F21840C4F2000000688007E1
:1020C000002801D5FFE7F5E745F20041C4F2000121
:1020D000086840F480700860FFE745F21440C4F2DD
:1020E00000000068C00708B9FFE7F6E79DF80700A1
:1020F000400045F21041C4F200010860FFE745F2DC
:102100001440C4F2000000688007002801D4FFE7F3
:10211000F5E745F21840C4F200000068009000980E
:10212000FFE745F21440C4F20000006800060028F2
:1021300001D4FFE7F5E79DF8060045F21041C4F22F
:1021400000010860FFE745F21440C4F20000006897
:102150000006002801D4FFE7F5E79DF8050045F2E9
:102160001041C4F200010860FFE745F21440C4F2D8
:10217000000000684007002801D4FFE7F5E745F2BA
:102180000041C4F20001086840F40070086002B029
:102190007047000083B001908DF803108DF8022085
:1021A0009DF80300019991F8CB1088420CD1FFE70C
:1021B0009DF80200019991F8CC10884204D1FFE704
:1021C00001208DF80B002BE09DF80300019991F898
:1021D000CD1088420CD1FFE79DF80200019991F8DB
:1021E000CE10884204D1FFE701208DF80B0017E0E4
:1021F0009DF80300019991F8CF1088420CD1FFE7B8
:102200009DF80200019991F8D010884204D1FFE7AF
:1022100001208DF80B0003E000208DF80B00FFE794
:102220009DF80B0003B0704783B001908DF8031048
:102230008DF8022000208DF80100FFE79DF80100D5
:10224000019991F8C81088421FDAFFE701989DF8BC
:102250000110405C9DF8031088420FD1FFE7019800
:102260009DF80110084490F864009DF8021088421F
:1022700004D1FFE701208DF80B000AE0FFE79DF88D
:10228000010001308DF80100D8E700208DF80B0027
:10229000FFE79DF80B0003B07047000080B588B0E1
:1022A00007900691079846F26761C6F2666150FB97
:1022B00001F2901000EBD2700290079850FB01F2EF
:1022C000911001EBD27101EB8101A0EB4100019073
:1022D0000198B0F1FF3F04DCFFE701984042019014
:1022E000FFE7029803A9009101F010FD0699002074
:1022F00001F04EFE009801F0DBFD44F63D10C0F603
:10230000000001F0D5FD0099019801F0FFFC009854
:1023100001F0CEFD432001F0EFFD08B080BD0000CC
:1023200080B568206B210022FFF7BCFE80BD000055
:1023300080B582B08DF807009DF8071068200090E6
:10234000FFF790FD014600988DF806109DF80710E4
:102350000131C9B2FFF786FD8DF805009DF8061022
:102360009DF8050040EA012000B202B080BD0000E7
:1023700080B584B00390029101923B20FFF7D8FF13
:10238000039908803D20FFF7D3FF029908803F2082
:10239000FFF7CEFF0199088004B080BD80B584B0FE
:1023A0000390029101924320FFF7C2FF0399088036
:1023B0004520FFF7BDFF029908804720FFF7B8FFCF
:1023C0000199088004B080BD80B568207521FFF7B1
:1023D00049FD80BD80B582B000208DF80700FFE781
:1023E0009DF80700072820DCFFE79DF80700002183
:1023F000009100F0F3F800988DF80600FFE79DF8D3
:1024000006007F280ADCFFE7002000F01DF8FFE748
:102410009DF8060001308DF80600F0E7FFE79DF813
:10242000070001308DF80700DAE702B080BD000038
:1024300080B582B08DF807009DF807203C20002170
:10244000FFF7B8FD02B080BD80B582B08DF80700FF
:102450009DF807203C204021FFF7ACFD02B080BD75
:1024600080B582B0642001F01BFBAE20FFF7E0FFD7
:1024700020200190FFF7DCFF00200090FFF7D8FF3D
:10248000B020FFF7D5FFC820FFF7D2FF0098FFF775
:10249000CFFF1020FFF7CCFF4020FFF7C9FF8120BE
:1024A000FFF7C6FFFF20FFF7C3FFA120FFF7C0FF24
:1024B000A620FFF7BDFFA820FFF7BAFF3F20FFF7D8
:1024C000B7FFA420FFF7B4FFD320FFF7B1FF0098B8
:1024D000FFF7AEFFD520FFF7ABFFF020FFF7A8FF17
:1024E000D920FFF7A5FF2220FFF7A2FFDA20FFF790
:1024F0009FFF1220FFF79CFFDB20FFF799FF019859
:10250000FFF796FF8D20FFF793FF1420FFF790FF52
:10251000AF20FFF78DFF02B080BD000080B582B014
:10252000019000200090FFE7009804280ADCFFE7F4
:1025300001980099405CFFF787FFFFE700980130A2
:102540000090F1E70020FFF77FFF02B080BD0000A0
:1025500080B584B08DF80F009DF80F00202805DBB2
:10256000FFE79DF80F007F2804DBFFE720208DF8B0
:102570000F00FFE79DF80F0000EB800044F294612C
:10258000C0F600010844A038029000200190FFE747
:10259000019804280ADCFFE702980199405CFFF7E4
:1025A00053FFFFE7019801300190F1E70020FFF7AA
:1025B0004BFF04B080BD000080B582B00190FFE702
:1025C0000198007840B1FFE701980078FFF7C0FF5D
:1025D000019801300190F3E702B080BD80B582B070
:1025E0008DF807008DF806109DF80700B030C0B2D6
:1025F000FFF71EFF9DF8060000F00F00FFF718FF21
:102600009DF8060000091030FFF712FF02B080BDF0
:1026100043F63001C4F20201086840F0010008608E
:10262000BFF34F8F0C21C4F20201086820F00C00A8
:1026300008600021C4F20201086820F00C00086064
:102640007047000082B0019000208DF803000D203B
:102650008DF80200FFE79DF8020012281BDCFFE75F
:102660009DF8020001999DF80320114481F8D800DB
:1026700001989DF803100144052081F800019DF8A0
:10268000030001308DF80300FFE79DF802000130E0
:102690008DF80200DFE70D208DF80200FFE79DF8BE
:1026A000020012281BDCFFE79DF8020001999DF84B
:1026B0000320114481F8D80001989DF803100144CB
:1026C000062081F800019DF8030001308DF8030019
:1026D000FFE79DF8020001308DF80200DFE79DF86A
:1026E0000300019981F8280102B0704780B582B0DB
:1026F00001908DF803109DF80300C00730B1FFE78B
:1027000001980230002100F08DFC26E09DF80300C6
:102710008007002806D5FFE701980230022100F06B
:1027200081FC19E09DF803004007002806D5FFE76B
:1027300001980230032100F075FC0CE09DF80300C5
:102740000007002806D5FFE701980230012100F0BC
:1027500069FCFFE7FFE7FFE7FFE702B080BD00008D
:1027600080B582B00190019B03F59670B3F97011AA
:10277000B3F97221B3F97431FFF7D8F98DF803007A
:102780009DF80300019991F8CB10884207D0FFE72C
:10279000019802309DF8031000F044FCFFE702B0FE
:1027A00080BD000080B586B005900491039202932D
:1027B00000208DF80300FEF7D3FB8DF80700FEF72D
:1027C000C3FB8DF80600FEF7B3FB8DF80500FEF79E
:1027D000A3FB8DF804009DF8070058B1FFE70598AA
:1027E000007838B9FFE79DF8030040F001008DF84C
:1027F0000300FFE79DF8060058B1FFE70498007852
:1028000038B9FFE79DF8030040F002008DF803009F
:10281000FFE79DF8050058B1FFE70398007838B945
:10282000FFE79DF8030040F004008DF80300FFE788
:102830009DF8040058B1FFE70298007838B9FFE727
:102840009DF8030040F008008DF80300FFE79DF8B5
:102850000700059908709DF80600049908709DF816
:102860000500039908709DF80400029908709DF80E
:10287000030006B080BD000080B582B000208DF856
:102880000700FEF76DFB38B1FFE79DF8070040F049
:1028900001008DF80700FFE7FEF756FB38B1FFE7B0
:1028A0009DF8070040F002008DF80700FFE7FEF7F3
:1028B0003FFB38B1FFE79DF8070040F004008DF8BA
:1028C0000700FFE7FEF728FB38B1FFE79DF8070098
:1028D00040F008008DF80700FFE79DF8070002B000
:1028E00080BD000080B582B00190019A02F5B870F9
:1028F00002F5B97102F5BA72FFF73AFD019A02F5D5
:10290000BB7002F5BC7102F5BD72FFF747FD02B066
:1029100080BD000080B582B0019040F2C500C2F2D7
:102920000000007880B1FFE7FEF748FB40F2C801E5
:10293000C2F2000100910860FEF776FB0098006883
:102940000199C1F84801FFE702B080BD83B0019052
:10295000019890F8D60001460091012808D0FFE7C1
:102960000098022807D0FFE70098032806D006E069
:10297000B420029006E07820029003E0FFE74620B2
:102980000290FFE7029803B07047000080B582B064
:1029900001900199032081F8C800019A0F2111705C
:1029A000019A0A2182F86410019A11780139517054
:1029B000019A92F8641082F86510019A1178023930
:1029C0009170019A92F8641082F86610019981F86A
:1029D000C900019981F8CA0001990020A1F8D2002C
:1029E000019A012182F8D610019981F8D700019847
:1029F000FFF728FE019800F03BFA019800F0E0F89C
:102A0000019800F089F9019890F8C8008DF803004A
:102A1000FFE79DF80300632812D8FFE701999DF8AE
:102A200003200020885401999DF80320114481F867
:102A30006400FFE79DF8030001308DF80300E8E72C
:102A400002B080BD80B584B002908DF807108DF87B
:102A500006209DF807009DF8061000F047F880B9A1
:102A6000FFE79DF807009DF8061000F065F820B11B
:102A7000FFE700208DF80F0034E001208DF80F00F3
:102A800030E000208DF80500FFE79DF80500029971
:102A900091F82811884221DAFFE702989DF8051085
:102AA000084490F8D8009DF8071088420FD1FFE73E
:102AB00002989DF80510084490F800019DF8061052
:102AC000884204D1FFE701208DF80F000AE0FFE7FC
:102AD0009DF8050001308DF80500D6E700208DF83F
:102AE0000F00FFE79DF80F0004B080BD82B08DF8A5
:102AF00007008DF806109DF8071000200090A9B17E
:102B0000FFE79DF8071000201E2900900ED8FFE770
:102B10009DF806100020009041B1FFE79DF80610D7
:102B200000200F2938BF01200090FFE7009800F037
:102B3000010002B07047000081B08DF802008DF8EE
:102B400001109DF80200102808D1FFE79DF8010050
:102B500020B9FFE701208DF803002CE09DF802006A
:102B6000102809D1FFE79DF801000F2804D1FFE7E5
:102B700001208DF803001EE09DF8020048B9FFE730
:102B80009DF80100082804D1FFE701208DF803001B
:102B900011E09DF802001F2809D1FFE79DF8010010
:102BA000082804D1FFE701208DF8030003E000208E
:102BB0008DF80300FFE79DF8030001B070470000A7
:102BC00080B586B0059040F65020C2F20000006843
:102BD000039000200290FFE70298B0F5FA6F52DAF6
:102BE000FFE703A8019001F075FB0146019848F644
:102BF0008902C8F68802A1FB022323F00F02A2EB90
:102C00001312A1EB420101318DF8131001F062FBA8
:102C1000410842F29342C9F24922A1FB02129108F3
:102C2000C900A1EB9201A0EB410001308DF8120028
:102C300005989DF813109DF81220FFF7F5FAE8B9F2
:102C4000FFE705989DF813109DF81220FFF7FAFE94
:102C5000A0B9FFE705989DF813109DF81220FFF723
:102C600099FA58B9FFE79DF81300059981F8CD004E
:102C70009DF81200059981F8CE004AE0FFE702981E
:102C800001300290A8E701208DF81300FFE79DF8BE
:102C900013001E283DD8FFE701208DF81200FFE742
:102CA0009DF812000E282DD8FFE705989DF8131007
:102CB0009DF81220FFF7B8FAE8B9FFE705989DF8EC
:102CC00013109DF81220FFF7BDFEA0B9FFE705988D
:102CD0009DF813109DF81220FFF75CFA58B9FFE732
:102CE0009DF81300059981F8CD009DF81200059913
:102CF00081F8CE000DE0FFE79DF8120001308DF85D
:102D00001200CDE7FFE79DF8130001308DF81300A6
:102D1000BDE706B080BD000080B586B0059040F6E6
:102D20005020C2F200000068039000200290FFE7EC
:102D30000298B0F5FA6F52DAFFE703A8019001F0AC
:102D4000C9FA0146019848F68902C8F68802A1FB33
:102D5000022323F00F02A2EB1312A1EB4201013177
:102D60008DF8131001F0B6FA410842F29342C9F20D
:102D70004922A1FB02129108C900A1EB9201A0EB2C
:102D8000410001308DF8120005989DF813109DF850
:102D90001220FFF749FAE8B9FFE705989DF81310EC
:102DA0009DF81220FFF74EFEA0B9FFE705989DF8A9
:102DB00013109DF81220FFF7EDF958B9FFE79DF8C1
:102DC0001300059981F8CF009DF81200059981F84C
:102DD000D0004AE0FFE7029801300290A8E7012006
:102DE0008DF81300FFE79DF813001E283DD8FFE77C
:102DF00001208DF81200FFE79DF812000E282DD853
:102E0000FFE705989DF813109DF81220FFF70CFAC4
:102E1000E8B9FFE705989DF813109DF81220FFF719
:102E200011FEA0B9FFE705989DF813109DF8122038
:102E3000FFF7B0F958B9FFE79DF81300059981F83D
:102E4000CF009DF81200059981F8D0000DE0FFE752
:102E50009DF8120001308DF81200CDE7FFE79DF8D4
:102E6000130001308DF81300BDE706B080BD0000EF
:102E700080B586B0059040F65020C2F20000006890
:102E8000039000200290FFE70298B0F5FA6F69DA2C
:102E9000FFE703A8019001F01DFA0146019848F6EA
:102EA0008902C8F68802A1FB022323F00F02A2EBDD
:102EB0001312A1EB420101318DF8131001F00AFA4F
:102EC000410842F29342C9F24922A1FB0212910841
:102ED000C900A1EB9201A0EB410001308DF8120076
:102EE00005989DF813109DF81220FFF79DF9A0BBDF
:102EF000FFE705989DF813109DF81220FFF7A2FD3B
:102F000058BBFFE79DF81300059991F8CD10884252
:102F100008D1FFE79DF81200059991F8CE1088427C
:102F20001BD0FFE79DF81300059991F8CF10884258
:102F300008D1FFE79DF81200059991F8D01088425A
:102F40000BD0FFE79DF81300059981F8CB009DF8A1
:102F50001200059981F8CC0061E0FFE7029801308A
:102F6000029091E701208DF81300FFE79DF8130010
:102F70001E2854D8FFE701208DF81200FFE79DF8C6
:102F800012000E2844D8FFE705989DF813109DF80D
:102F90001220FFF749F9A0BBFFE705989DF8131031
:102FA0009DF81220FFF74EFD58BBFFE79DF8130078
:102FB000059991F8CD10884208D1FFE79DF81200DD
:102FC000059991F8CE1088421BD0FFE79DF81300B9
:102FD000059991F8CF10884208D1FFE79DF81200BB
:102FE000059991F8D01088420BD0FFE79DF81300A7
:102FF000059981F8CB009DF81200059981F8CC0065
:103000000DE0FFE79DF8120001308DF81200B6E7E1
:10301000FFE79DF8130001308DF81300A6E706B016
:1030200080BD000082B001908DF80310019890F8E7
:10303000C900032806D1FFE79DF80300022801D14B
:10304000FFE727E0019890F8C900022806D1FFE7C2
:103050009DF80300032801D1FFE71BE0019890F8D9
:10306000C90030B9FFE79DF80300012801D1FFE74F
:1030700010E0019890F8C900012805D1FFE79DF8FC
:10308000030008B9FFE705E09DF80300019981F806
:10309000CA00FFE702B0704780B584B00390039880
:1030A00090F8D70008B1FFE76FE1039991F8CA00E3
:1030B00081F8C900039800788DF80A00039890F809
:1030C00064008DF80900039890F8C9000146019149
:1030D00003281CD80199DFE801F002080E149DF8BE
:1030E000090001388DF8090012E09DF8090001304F
:1030F0008DF809000CE09DF80A0001388DF80A00EF
:1031000006E09DF80A0001308DF80A0000E0FFE7B4
:103110009DF80A00102808D1FFE79DF8090020B9A2
:10312000FFE70E208DF809002BE09DF80A0010281B
:1031300009D1FFE79DF809000F2804D1FFE701201E
:103140008DF809001CE09DF80A0048B9FFE79DF8DA
:103150000900082804D1FFE71E208DF80A000EE0C0
:103160009DF80A001F2809D1FFE79DF809000828EB
:1031700004D1FFE701208DF80A00FFE7FFE7FFE732
:10318000FFE703989DF80A109DF80920FFF75AFC05
:1031900098B1FFE70399012081F8D7000399B1F8AE
:1031A000D200B1F8D410884206DDFFE70399B1F8E8
:1031B000D200A1F8D400FFE7E7E000208DF80B0073
:1031C000FFE79DF80B00039991F8C8100139884278
:1031D0002EDAFFE703989DF80B10405C9DF80A106B
:1031E00088421ED1FFE703989DF80B10084490F821
:1031F00064009DF80910884213D1FFE7039901206C
:1032000081F8D7000399B1F8D200B1F8D410884200
:1032100006DDFFE70399B1F8D200A1F8D400FFE77B
:10322000B3E0FFE79DF80B0001308DF80B00C8E715
:10323000039890F8C80001388DF80B00FFE79DF85F
:103240000B00012816DBFFE703999DF80B20881877
:1032500010F8010C885403989DF80B10014491F864
:10326000630081F86400FFE79DF80B0001388DF8DA
:103270000B00E4E79DF80A00039908709DF8090027
:10328000039981F864009DF80A00039991F8CB1026
:10329000884231D1FFE79DF80900039991F8CC10DD
:1032A000884229D1FFE70399B1F8D2000A30A1F88A
:1032B000D200039890F8C800632816D8FFE7039956
:1032C00091F8C820881810F8010C8854039890F8D9
:1032D000C810014491F8630081F86400039991F8E3
:1032E000C800013081F8C800FFE70398FFF7C0FD70
:1032F000039800F04DF8FFE79DF80A00039991F854
:10330000CD1088421ED1FFE79DF80900039991F87E
:10331000CE10884216D1FFE70398B0F8D2000128FA
:1033200007DBFFE70399B1F8D2000138A1F8D2001A
:1033300004E003990020A1F8D200FFE70398FFF70B
:103340003FFCFFE79DF80A00039991F8CF108842EF
:103350001BD1FFE79DF80900039991F8D01088422E
:1033600013D1FFE70399012081F8D7000399B1F841
:10337000D200B1F8D410884206DDFFE70399B1F816
:10338000D200A1F8D400FFE7FFE704B080BD000041
:1033900081B000900098B0F8D2003C2805DBFFE730
:1033A0000099032081F8D60010E00098B0F8D20010
:1033B0001E2805DBFFE70099022081F8D60004E013
:1033C0000099012081F8D600FFE7FFE701B07047C0
:1033D00080B582B00190019808B9FFE76DE040F236
:1033E000CE00C2F200004FF48061FCF759FF00F0FC
:1033F00067F800208DF80300FFE79DF803000199AE
:1034000091F82811884211DAFFE701989DF803101E
:10341000014491F8D80091F80011FEF709F8FFE790
:103420009DF8030001308DF80300E6E7019991F85B
:10343000CB0091F8CC10FDF7C7FE019991F8CD00B3
:1034400091F8CE10FDF788FE019991F8CF0091F820
:10345000D010FDF79DFE019890F8C8008DF803008C
:10346000FFE79DF80300012824DBFFE79DF8030038
:1034700001388DF802009DF8020050B9FFE701986D
:103480009DF802208118805C91F86410FDF7B4FF6C
:1034900009E001989DF802208118805C91F8641081
:1034A000FDF78EFFFFE7FFE79DF8030001388DF879
:1034B0000300D6E7FEF7A6F9FFE702B080BD0000E3
:1034C00080B582B000208DF80700FFE79DF8070067
:1034D0001F2817D8FFE79DF8070010280BD0FFE73B
:1034E0009DF807000021FDF7A3FF9DF807000F21BD
:1034F000FDF79EFFFFE7FFE79DF8070001308DF81D
:103500000700E3E701208DF80600FFE79DF80600BD
:103510000E2817DCFFE79DF8060008280BD0FFE710
:103520009DF806100020FDF783FF9DF806101F2070
:10353000FDF77EFFFFE7FFE79DF8060001308DF8FD
:103540000600E3E702B080BD80B582B040F2CE0055
:10355000C2F200004FF480610191FCF7A1FE0199D5
:1035600040F2CE40C2F20000FCF79AFE02B080BDED
:1035700080B540F2CE40C2F200004FF48061FCF70B
:103580008FFE80BD80B540F62470C2F20000006856
:10359000804780BD86B000210591049102200390F0
:1035A0000291019043F60800C4F20200006800F0A6
:1035B0000C0005900598009040B1FFE700980428A2
:1035C0000ED0FFE70098082814D059E040F214010B
:1035D000C2F2000142F20040C0F2F400086059E07B
:1035E00040F21401C2F2000147F64000C0F27D1023
:1035F00008604FE043F60400C4F202000168C1F322
:1036000080510291006800F03F000190029888B15B
:10361000FFE7019947F64000C0F27D10B0FBF1F0E2
:1036200043F60401C4F202010968C1F3881148435A
:10363000049010E0019942F20040C0F2F400B0FBA7
:10364000F1F043F60401C4F202010968C1F38811E4
:1036500048430490FFE743F60400C4F20200006808
:1036600000F44031022000EBD1300390049803991C
:10367000B0FBF1F040F21401C2F20001086009E071
:1036800040F21401C2F2000142F20040C0F2F40024
:103690000860FFE743F60800C4F202000068C0B209
:1036A000010944F26A60C0F60000405C0590059A8A
:1036B00040F21401C2F200010868D040086006B070
:1036C000704700004EF68851CEF20001086840F4C1
:1036D000700008604EF60851CEF200014FF0006015
:1036E0000860704780B51020C4F200000068C00771
:1036F00088B1FFE71021C4F20001086820F0010042
:10370000086040F65021C2F20001086801300860EC
:10371000FDF7B4FCFFE780BD80B582B043F6400101
:10372000C4F20201086840F0010008604FF08041D7
:103730000191002008602421C4F2000108602822C1
:10374000C4F200020F2111602C22C4F2000240F2E8
:10375000E73111601422C4F200020121116010222D
:10376000C4F2000210600C22C4F20002106840F0A3
:10377000010010601C20009000F070F9009800F02B
:1037800055F90199086840F00100086002B080BD59
:1037900080B582B0262000F031F944F20040C4F236
:1037A00000000068800600280BD5FFE740F2BC004F
:1037B000C2F200000068019000F0A0FD0199884766
:1037C000FFE702B080BD000082B00190ADF80210AA
:1037D00000208DF80100BDF80200B0F5007F01D196
:1037E000FFE7FFE701980068BDF80210084204D027
:1037F000FFE701208DF8010003E000208DF80100B3
:10380000FFE79DF8010002B07047000081B0009012
:10381000009840686FF35F2001B0704780B58AB0B0
:1038200009900998007801460591052800F2B980B1
:103830000599DFE801F0B50333448394002108467D
:1038400000F0A6FB44F69010C0F6000000F030FB3C
:103850000998B0F8D60006A9049100F057FA049828
:1038600000F026FB44F6A610C0F6000000F020FB96
:1038700004990998B0F84E0100F048FA049800F055
:1038800017FB44F6C100C0F6000000F011FB0998D8
:10389000D0F848010121FEF701FD94E0002108461F
:1038A00000F076FB44F6C600C0F6000000F000FB16
:1038B0000998D0F848010121FEF7F0FC83E00021CF
:1038C000084600F065FB44F69010C0F6000000F0DA
:1038D000EFFA0998B0F8D60006A9039100F016FA9D
:1038E000039800F0E5FA44F6A610C0F6000000F0D8
:1038F000DFFA03990998B0F8D40000F007FA0398AA
:1039000000F0D6FA44F69310C0F6000000F0D0FAAA
:103910000399099890F8D80000F0F8F9039800F09E
:10392000C7FA44F6E200C0F6000000F0C1FA0998B8
:10393000D0F848010121FEF7B1FC44E0002108461F
:1039400000F026FB44F6A400C0F6000000F0B0FA38
:103950000998D0F848010121FEF7A0FC33E00021CE
:10396000084600F015FB44F69E10C0F6000000F07B
:103970009FFA0998B0F8D40006A9029100F0C6F9A0
:10398000029800F095FA44F6E200C0F6000000F05C
:103990008FFA0998D0F848010121FEF77FFC12E068
:1039A000FFE70998D0F8480100210191FEF776FC65
:1039B0000198012100F0ECFA44F6B500C0F60000D1
:1039C00000F076FAFFE70AB080BD000081B08DF804
:1039D00003009DF9030000280ED4FFE79DF90310B2
:1039E00001F01F02012090404A094EF28021CEF2E0
:1039F000000141F82200FFE701B0704781B08DF867
:103A000003009DF9030000280ED4FFE79DF9031081
:103A100001F01F02012090404A094EF28021CEF2AF
:103A2000000141F82200FFE701B0704781B08DF836
:103A300003009DF9030000280ED4FFE79DF9031051
:103A400001F01F02012090404A094EF20011CEF20F
:103A5000000141F82200FFE701B0704782B08DF805
:103A6000070000919DF9070000280AD4FFE700989D
:103A700000019DF907104EF20042CEF20002885478
:103A80000BE0009800019DF8071001F00F014EF6C1
:103A90001452CEF200028854FFE702B070470000D3
:103AA00082B0019040F65020C2F200000068009001
:103AB000FFE740F65020C2F2000000680099401A6B
:103AC0000199884202D2FFE700BFF2E702B07047D7
:103AD000800802D0401E00BFFCD170472DE9F041A4
:103AE00040F21406C2F20006044630684FF0FF317F
:103AF000B1FBF0F14FF47A7201FB02F744F6D358B0
:103B0000BC42C1F262080BD9A0FB0801880907FB7F
:103B100000F500BF2846E41BFFF7DAFFBC42F9D8E6
:103B20003068A0FB080188096043BDE8F041FFF759
:103B3000CFBF00002DE9F04140F21406C2F20006AA
:103B4000044630684FF0FF31B1FBF0F144F24022FF
:103B5000C0F20F0201FB02F74DF68368BC42C4F2CB
:103B60001B380BD9A0FB0801880C07FB00F500BF30
:103B70002846E41BFFF7ACFFBC42F9D83068A0FB35
:103B80000801880C6043BDE8F041FFF7A1BF0000C9
:103B900084B003900291BDF90E100020C4F202001F
:103BA00000EB812001909DF80C0000900198406985
:103BB000009A01219140884302999140084301995C
:103BC000486104B07047000085B004908DF80F1074
:103BD000BDF912100020C4F2020000EB8120029017
:103BE0009DF810000190BDF91210012000FA01F2B9
:103BF00043F63001C4F2020108681043086043F63E
:103C00004401C4F20201086840F48040086042F2B6
:103C10000401CEF20401086840F0070008609DF836
:103C20000F000146009104286DD80099DFE801F0EB
:103C30000316293F55000298006801994A000321A4
:103C400001FA02F29043029A10600298C068019A49
:103C50005200914088430299C86054E0029800687D
:103C600001994A00032101FA02F29043029A10607E
:103C70000298C068019A5200914088430299C86036
:103C800041E00298006801994B00032101FA03F218
:103C9000904301229A401043029A10600298C06833
:103CA000019A5200914088430299C8602BE0029823
:103CB000006801994A00032101FA02F29043029A36
:103CC00010600298C068019A520091408843012117
:103CD000914008430299C86015E002980068019974
:103CE0004A00032101FA02F29043029A10600298FE
:103CF000C068019A5200914088430A2191400843CC
:103D00000299C860FFE705B07047000087B00690D1
:103D10000591002004900390069858B9FFE7059993
:103D2000049A501C0490302088540599049A00206D
:103D300088545BE00698B0F1FF3F06DCFFE7012006
:103D40000390069840420690FFE7FFE70698012897
:103D50001EDBFFE7069846F26761C6F2666150FB1C
:103D600001F39A0802EBD37202EB8202A0EB42004D
:103D70003030059A049B03F1010CCDF810C0D054EB
:103D8000069850FB01F1881000EBD1700690DDE73A
:103D9000039838B1FFE70599049A501C04902D2030
:103DA0008854FFE70599049A0020885402900498EB
:103DB00001380190FFE702980199884216DAFFE77F
:103DC00005980299405C8DF8030005990198085CFC
:103DD000029A88549DF803000599019A8854029824
:103DE00001300290019801380190E4E707B0704774
:103DF000B0B509200221FFF7E7FE0720C0F202005C
:103E00000221FFF7E1FE40F204050024C2F20005A2
:103E100055F824000221FFF7D7FE0134042CF7D116
:103E20006420FFF75BFE302000F0C2F80520FFF7AA
:103E300055FE302000F0BCF86420FFF77BFE3020F8
:103E400000F0B6F86420FFF775FE202000F0B0F80F
:103E50006420FFF76FFE282000F0AAF83C20FFF74F
:103E600069FE082000F0A4F83C20FFF763FE012063
:103E700000F09EF80420FFF731FE062000F098F8CD
:103E80003C20FFF757FE0C2000F092F83C20FFF793
:103E900051FE802000F08CF840F2C001C2F2000117
:103EA00000220C200A60BDE8B04000F081B800009C
:103EB00070B504460078002808BF70BD40F2C00508
:103EC000C2F2000500260CE0C02000F071F82E6060
:103ED000207800F011F828680130286014F8010FEC
:103EE00048B129681029EFD00A28F1D1C02000F08C
:103EF0005FF80134EBE770BD2DE9F041054640F273
:103F000007080A20C0F20208FFF7E8FD0920012196
:103F1000FFF73EFE404601212F09FFF739FE40F230
:103F200004060024C2F2000656F8240027FA04F121
:103F300001F00101FFF72CFE0134042CF4D1012023
:103F4000FFF7F8FD404600210027FFF721FE012082
:103F5000FFF7F0FD40460121FFF71AFE05F00F04C0
:103F600056F8270024FA07F101F00101FFF710FECF
:103F70000137042FF4D10120FFF7DCFD404600217A
:103F8000FFF706FE0120BDE8F041FFF7D3BD0000BA
:103F900010B5044600EB811040F08000C0B200F084
:103FA00007F840F2C000C2F20000046010BD00003B
:103FB0002DE9F041054640F207080A20C0F2020848
:103FC000FFF78CFD092000210027FFF7E1FD4046A7
:103FD00001212C09FFF7DCFD40F20406C2F20006C5
:103FE00056F8270024FA07F101F00101FFF7D0FD90
:103FF0000137042FF4D10120FFF79CFD404600213A
:104000000027FFF7C5FD0120FFF794FD4046012181
:10401000FFF7BEFD56F8270025FA07F101F0010170
:10402000FFF7B6FD0137042FF4D10120FFF782FD21
:1040300040460021FFF7ACFD0120BDE8F041FFF74D
:1040400079BD000080B582B000200190FFF764FBCD
:10405000FFF7A0FAFDF79EFEFEF702FAFDF73AF829
:1040600043F63001C4F20201086840F00100086024
:10407000BFF34F8FFEF7CCFAFCF77EFFFFF7B8FED9
:10408000FEF74EF9FA20FFF70BFDFCF7CDFF40F6E7
:10409000D000C2F20000FCF799F9FFE740F6D0002B
:1040A000C2F20000FCF7F8F9F8E7000083B00290D4
:1040B00041F20000CEF200000068C007B8B9FFE787
:1040C0004EF6FC51CEF20001086840F080700860A6
:1040D00041F20401CEF200010020086041F200012B
:1040E000CEF20001086840F001000860FFE7029886
:1040F00040F21401C2F2000109684DF68362C4F275
:104100001B32A1FB0221890C4843009041F20400BC
:10411000CEF2000000680190FFE741F20400CEF209
:10412000000000680199401A0099884201D2FFE717
:10413000F3E703B0704700000021C4F202010868F1
:1041400020F00C0008600C21C4F20201086820F085
:104150000C000860704700000421C4F202010868E6
:1041600020F0020008600021C4F20201086820F07B
:104170000C000860086840F0040008601821C4F2D0
:1041800002014FF4003008607047000080B582B033
:10419000FFF7E2FF0220FFF789FFFFF7CDFF0820BE
:1041A000FFF784FF1020C4F202000068C0F3400053
:1041B0008DF807003720FFF779FF9DF8070002B060
:1041C00080BD000080B582B000208DF806008DF81B
:1041D0000700FFE79DF80700072817D8FFE79DF8BD
:1041E000060040088DF80600FFF7D0FF38B1FFE762
:1041F0009DF8060040F080008DF80600FFE7FFE71D
:104200009DF8070001308DF80700E3E79DF80600F0
:1042100002B080BD80B582B0FFF79EFF4FF4F5700D
:10422000FFF744FFFFF788FF3720FFF73FFF10201D
:10423000C4F202000168012020EA51008DF8070055
:1042400040F29F10FFF732FF9DF8070002B080BDDB
:1042500080B582B08DF807009DF8070058B1FFE7E0
:10426000FFF77AFF0320FFF721FFFFF765FF3E20EE
:10427000FFF71CFF0AE0FFF76FFF3E20FFF716FF76
:10428000FFF75AFF0320FFF711FFFFE702B080BDE1
:1042900080B582B08DF8070000208DF80600FFE79A
:1042A0009DF80600072812D8FFE79DF8070000F0E8
:1042B0000100FFF7CDFF9DF8070040088DF80700CB
:1042C000FFE79DF8060001308DF80600E8E702B030
:1042D00080BD000081B000900099086843F2390366
:1042E00044F66D62C4F2C61200FB023020F00040BA
:1042F00008600098006801B07047000080B582B087
:10430000FFE744F20040C4F200002021FFF75CFA0E
:1043100008B9FFE7F5E744F20040C4F20000FFF7F8
:1043200075FAADF806009DF8060002B080BD4100A8
:10433000080218BF04200A0E18BF40F001004FF019
:104340007F4232EA010108BF40F00200012808BFA5
:104350000520704770B54FF068422DED048BF0EEEC
:10436000408A18EE900AB0EE608A18EE101A02EB3E
:104370004003B3F1654F3CBF02EB4102B2F1654F20
:104380007DD200BFC0F3C753C1F3C7529A1A1B2A8C
:1043900009DD10F0004F14BF9FED830A9FED830AE3
:1043A000BDEC048B70BD12F11A0F36DA11F0004F1C
:1043B00009D010F0004F0CBF9FED7D0A9FED7D0AE4
:1043C000BDEC048B70BD88EE889A19EE100AFFF7D9
:1043D000AEFF042808BF00F033F918EE900AFFF78B
:1043E000A6FF054618EE100AFFF7A1FF044619EED6
:1043F000100AFFF79CFF042D18BF052D08D1042CCF
:1044000018BF052C04D1002804BF0220FBF799FF38
:10441000B0EE490ABDEC048B70BD4200B2EB410F17
:104420003AD910F0004F19BFDFED630A9FED630A20
:10443000DFED630A9FED630AB0EE481A0A46B1EE5B
:10444000688A80F00041F0EE418A10460A1A520054
:10445000B2F1807F34D2484010F0004FDFED5A1A9D
:104460009FED5A2A1DBFBEEE001A70EEE10A30EE33
:10447000420AB6EE001A08BF70EEA10A00E040E062
:1044800008BF30EE020AB0EE682A01EE482A08EEB4
:10449000818AC2EE081A15E011F0004F04BF9FEDAB
:1044A0004C0AF0EE400AD1D010F0004F19BFDFEDFA
:1044B000490A9FED490ADFED490A9FED490AC5E720
:1044C000C8EE881A21EEA11A9FED462ADFED462A92
:1044D00041EE022A9FED452A01EE222ADFED442A11
:1044E00041EE022A9FED432ABDEC048B01EE222A05
:1044F00021EE811A01EE020A30EE210A30EE200A86
:1045000070BD4FF07F42B2EB400F28BFB2EB410FBE
:1045100009D2F0EE480AB0EE680ABDEC048BBDE8A3
:10452000704000F08AB840EA01035B0008BF41F028
:10453000FF410BD0B2EB400F08BFB2EB410F08D1E7
:1045400020F0804008EE900A21F0804108EE101A19
:1045500018E7B2EB400F12BF5FEA410340F0FF40A3
:1045600001F000413FF40EAFB2EB410F12BF5FEA22
:10457000400200F0004041F0FF413FF403AF4A0029
:1045800092EA40033FF5FEAE002AACBF9FED1A0A47
:104590009FED1A0A68EE808A28EE008A18EE900ACB
:1045A00018EE101AEEE60000DB0FC9BFDB0FC93FA3
:1045B000DB0F4940DB0F49C00000C9BF22AAFDB98B
:1045C0000000C93F22AAFD390060ED3EC30ACE3784
:1045D00000000000000049C022AA7DBA0000494046
:1045E00022AA7D3A2DAD65BD8FB8D53D0FB511BE60
:1045F00061C84C3EA8AAAABE0000804F0000802FD0
:1046000010B52DED028BB1EEC08A18EE100A20F025
:104610000040C0F1FF40C00F0AD010EE100A20F099
:104620000040C0F1FF40C00F04BF0120FBF789FE2E
:10463000B0EE480ABDEC028B10BD30EE200A704788
:104640009FED020A20EE000A7047000000000010F3
:10465000F1EE100A4FF6FF71C0F2C03120EA0100FE
:1046600040F04070E1EE100A7047000000000000CA
:10467000000001020304060708090000010001010F
:1046800040000000800A0020800E0020000F002063
:1046900000000000000000000000005F00000007B4
:1046A000000700147F147F14242A7F2A1223130882
:1046B000646236495522500005030000001C224167
:1046C000000041221C0014083E081408083E080897
:1046D0000050300000080808080800606000002052
:1046E000100804023E5149453E00427F40004261AD
:1046F0005149462141454B311814127F1027454539
:1047000045393C4A4949300171090503364949494F
:1047100036064949291E003636000000563600008C
:104720000814224100141414141400412214080225
:1047300001510906324979413E7E1111117E7F49AE
:104740004949363E414141227F4141221C7F49492E
:1047500049417F090909013E4149497A7F08080812
:104760007F00417F41002040413F017F08142241EA
:104770007F404040407F020C027F7F0408107F3E54
:104780004141413E7F090909063E4151215E7F09B1
:10479000192946464949493101017F01013F4040FD
:1047A000403F1F2040201F3F4038403F6314081403
:1047B0006307087008076151494543007F41410084
:1047C00002040810200041417F000402010204405D
:1047D00040404040000102040020545454787F4877
:1047E0004444383844444420384444487F3854547E
:1047F0005418087E0901020C5252523E7F080404EC
:104800007800447D40002040443D007F1028440053
:1048100000417F40007C041804787C080404783848
:10482000444444387C14141408081414187C7C087C
:104830000404084854545420043F4440203C404061
:10484000207C1C2040201C3C4030403C4428102848
:10485000440C5050503C4464544C440008364100D1
:1048600000007F000000413608000804081008041A
:1048700007070440707040090606099060609006C2
:104880000F0F0660F0F0600F0F0F0FF0F0F0F00F59
:104890000F0F0FF0F0F0F0000F000FF000F0000627
:1048A000090906005041555345442020202020206E
:1048B00020202020005374617274696E672E2E2EA2
:1048C00020202020200043414C4942524154494E6F
:1048D000472E2E2E202000426573743A202000209F
:1048E000204F20200053636F72653A20002020760D
:1048F000444E200020205E5550200020203C4C5487
:10490000200020203E5254200047726F7570200016
:1049100043616C6962726174656421002020537484
:104920006172742028427574746F6E7329002020A0
:104930005374617274202854696C7429002E004DE0
:10494000454D424552203100313030303030303129
:10495000003230323430303031004D454D42455216
:1049600020320031303030303030320032303234AA
:1049700030303032004D454D424552203300313009
:104980003030303030330032303234303030330079
:10499000483A00204C3A0020503A00523A00474131
:1049A0004D454F56455220533A0054656D7065721F
:1049B00061747572653A003D3D3D20504155534547
:1049C00044203D3D3D003D3D3D20534E414B452063
:1049D00047414D45203D3D3D003D3D3D2047414D3A
:1049E00045204F564552203D3D3D003E00430020AE
:1049F0002043414C4942524154494F4E00202043EC
:104A0000616C696272617465204D505500526F6C23
:104A10006C2F5069746368207361766564004B3352
:104A20003A20526573756D65004B312F4B323A4E0B
:104A30006176204B333A53656C004B333A536176C1
:104A40006520204B343A43616E63656C00746F20BF
:104A500073656520646972656374696F6E00486F81
:104A60006C64204C4556454C2C2074696C74004B8A
:104A7000333A2052657374617274004B343A204D9E
:104A8000656E7500C04A000800000020400000006C
:104A9000F8010008004B000840000020E814000066
:104AA00018020008000000000000000000000000E4
:104AB00000000000000000000000000000000000F6
:104AC000FF00000005000100040001000A000100D1
:104AD000080000000024F400514900086C49000857
:104AE000874900083F4900085A49000875490008ED
:104AF00048490008634900087E490008000000009A
:040000050800019559
:00000001FF
