:020000040800F2
:100000002815002061020008690200086B02000840
:100010006D0200086F020008710200080000000075
:100020000000000000000000000000007302000853
:100030007502000800000000770200080D3000087B
:100040007B0200087B0200087B0200087B0200089C
:100050007B0200087B0200083913000841140008E5
:10006000C514000849150008CD1500087B020008DA
:100070007B0200087B0200087B0200087B0200086C
:100080007B0200087B0200087B02000800000000E1
:1000900000000000000000000000000051160008F1
:1000A0007B0200087B0200087B0200087B0200083C
:1000B0003D3000087B0200087B0200087B0200083C
:1000C0007B0200087B0200087B0200087B0200081C
:1000D0007B0200087B020008E930000800000000F5
:1000E000BD1300087B0200087B020008000000002E
:1000F0000000000000000000000000007B0200087B
:10010000000000007B0200087B0200087B02000860
:1001100000000000000000000000000000000000DF
:100120007B0200087B0200087B0200087B020008BB
:100130007B0200080000000000000000000000003A
:100140000000000000000000000000007B0200082A
:100150007B0200087B0200087B0200087B0200088B
:100160007B0200087B020008000000000000000085
:10017000000000000000000000000000000000007F
:10018000000000007B0200080000000000000000EA
:100190007B02000800F002F800F052F814A696E87E
:1001A000000CB244B344DA4501D100F049F8BAE892
:1001B0000F000FA696E83000A5EB040504EB060738
:1001C000AAEB0704A7F101074FEA15154FEA34140B
:1001D000A4F10104AC4201D300F032F813F0010F96
:1001E00018BFFB1A43F0010300F001F8DBE71847E2
:1001F000B43F0000D43F0000103A24BF78C878C153
:10020000FAD8520724BF30C830C144BF04680C601C
:1002100070470000704700000023002400250026DE
:10022000103A28BF78C1FBD8520728BF30C148BF59
:100230000B6070471FB503F0BDFD1FBD10B510BDAD
:1002400000F08EF81146FFF7F5FF03F0CDFB00F04C
:10025000ACF803B4FFF7F2FF03BC00F0AFF8000006
:100260000948804709480047FEE7FEE7FEE7FEE74A
:10027000FEE7FEE7FEE7FEE7FEE7FEE70448054986
:10028000054A064B704700001D3000089501000824
:10029000280F0020281500202811002028110020F8
:1002A0004FF000020429C0F0128010F0030C00F09F
:1002B0001B80CCF1040CBCF1020F18BF00F8012B1D
:1002C000A8BF20F8022BA1EB0C0100F00DB85FEAEB
:1002D000C17C24BF00F8012B00F8012B48BF00F8B7
:1002E000012B70474FF0000200B513469446964626
:1002F000203922BFA0E80C50A0E80C50B1F1200139
:10030000BFF4F7AF090728BFA0E80C5048BF0CC0E6
:100310005DF804EB890028BF40F8042B08BF704744
:1003200048BF20F8022B11F0804F18BF00F8012BB6
:10033000704770477047704710B500F009F80068C3
:1003400010BD10B5044600F003F8046010BD0000B5
:1003500000487047400000200048704740000020DF
:100360007546FFF7F9FFAE4605006946534620F093
:100370000700854618B020B5FFF780FFBDE8204094
:100380004FF000064FF000074FF000084FF0000B51
:10039000AC46ACE8C009ACE8C009ACE8C009ACE8C0
:1003A000C00921F007018D46704710B50446AFF330
:1003B00000802046BDE81040FFF74BBF01491820E0
:1003C000ABBEFEE7260002007047000080B582B099
:1003D0000190019808B9FFE75BE0019900200090C7
:1003E0000870019981F83C01019981F84401019953
:1003F000C1F840010199A1F84601019981F848012D
:1004000040F64821C2F200010A68019BC3F84C2162
:100410000A68019BC3F850210A68019BC3F8542164
:100420000A68019BC3F858210A68019BC3F85C2144
:100430000A68019BC3F860210968019AC2F8641137
:100440000199A1F868010199A1F86A010199A1F83F
:100450006C010199A1F86E010199A1F8700101994F
:10046000A1F87201019981F87401019981F875016F
:100470000198023002F058FA019800F5947001F0EA
:100480009DFA02F0A5FD01F097FE019981F8740133
:10049000FFE702B080BD000080B59CB01B901B98A8
:1004A00010B9FFE700F0C7BC40F64820C2F20000D8
:1004B00000681A901A981B99D1F84C11401A18909C
:1004C0001B9802F0F5F91B98007801460991052860
:1004D00000F2B1840999DFE811F006002D0117023E
:1004E000F802D50342041B9890F8480140F200013D
:1004F000C2F200010978884200F0BD80FFE71B9836
:1005000090F8480140F20001C2F2000108701B9807
:1005100090F84801A8B9FFE701F054FE032000213C
:1005200001F054FF44F22B00C0F6000001F03CFF44
:10053000012017A9089103F0BBF8089801F034FFD7
:1005400098E01B9890F8480101388DF85B009DF801
:100550005B0002282ED8FFE701F034FE01200021C5
:10056000079101F033FF9DF85B1040F22400C2F2C6
:10057000000050F8210001F017FF0799032001F057
:1005800025FF9DF85B1040F21800C2F2000050F801
:10059000210001F009FF0799052001F017FF9DF8E0
:1005A0005B1040F23000C2F2000050F8210001F070
:1005B000FBFE5EE09DF85B00032859D1FFE701F0E8
:1005C00001FE0021084601F001FF44F2CB00C0F615
:1005D000000001F0E9FE1B98D0F8400146F2676187
:1005E000C6F2666150FB01F2901000EBD2701290DF
:1005F0001B98D0F8400150FB01F2911001EBD27131
:1006000001EB8101A0EB410011901198B0F1FF3F87
:1006100004DCFFE7119840421190FFE703201E2100
:1006200001F0D4FE12980DF14F01069103F040F84D
:10063000069801F0B9FE44F25F00C0F6000001F038
:10064000B3FE0699119803F033F8069801F0ACFE5A
:1006500043F6E370C0F6000001F058FE44F20E10BD
:10066000C0F6000001F0A0FE1B9802F083FDFFE73A
:10067000FFE7FFE7FFE71B9890F8480178B9FFE72D
:100680001898B0F57A7F09D3FFE71B99012081F80C
:1006900048011A981B99C1F84C01FFE749E01B98E3
:1006A00090F8480101388DF843009DF84300022876
:1006B00011D8FFE71898B0F57A7F0BD3FFE71B99A5
:1006C00091F84801013081F848011A981B99C1F846
:1006D0004C01FFE72CE09DF84300032811D1FFE710
:1006E0001898B0F5FA6F0BD3FFE71B9991F8480102
:1006F000013081F848011A981B99C1F84C01FFE7B5
:1007000015E001F05FFD1B99012008701A981B99F4
:10071000C1F84C011B99002081F844011B9890F806
:10072000440100F023FD1B9802F024FDFFE7FFE7E2
:10073000FFE780E31A981B99D1F85411401A142846
:10074000C0F0D080FFE740F2A500C2F2000040F206
:10075000A601C2F2000140F2A702C2F2000240F27A
:10076000A803C2F2000301F0EBFF8DF867001A98AE
:100770001B99C1F854019DF86700C007F8B1FFE765
:100780001B9890F844018DF842001B9890F84401A2
:10079000012807DBFFE71B9991F84401013881F834
:1007A000440104E01B99022081F84401FFE79DF811
:1007B00042001B9991F8441100F020FDFFE79DF8DD
:1007C0006700800700281FD5FFE71B9890F84401B9
:1007D0008DF841001B9890F84401012807DCFFE7E1
:1007E0001B9991F84401013081F8440104E01B9900
:1007F000002081F84401FFE79DF841001B9991F822
:10080000441100F0FBFCFFE79DF86700400700285B
:1008100067D5FFE71B9890F844010146059140B168
:10082000FFE70598012820D0FFE7059802284AD065
:1008300053E01B99002081F83C011B98023002F024
:1008400073F802F0D9FB01F0BDFC1B98023002F0F6
:100850001DFB1B99032008701A981B99C1F84C01C5
:100860001A981B99C1F8580137E01B9890F8390184
:1008700050B9FFE71B99022008701A981B99C1F81C
:100880004C0100F0D9FB1DE01B99012081F83C01CF
:100890001B98023002F048F802F0AEFB01F092FC27
:1008A00002F05EFB1B98023002F0F0FA1B99032065
:1008B00008701A981B99C1F84C011A981B99C1F835
:1008C0005801FFE709E01B99022008701A981B994C
:1008D000C1F84C0100F0B0FBFFE71B9802F04AFCA6
:1008E000FFE7FFE71A981B99D1F86011401AB0F59D
:1008F000FA7F08D3FFE71B9802F03CFC1A981B997B
:10090000C1F86001FFE796E21A981B99D1F85011DF
:10091000401A142854D3FFE71B9801F0B1FF1A982E
:100920001B99C1F850011B99B1F96A01B1F96C1119
:1009300001F028F88DED0F0A1B9AB2F96801B2F99F
:100940006A11B2F96C2100F0D7FF8DED0E0A01207B
:100950005A21029101F03AFD44F2BC00C0F60000B9
:1009600001F022FD9DED0F0ABDEEC00A10EE100A47
:100970000BA9039102F09CFE039801F015FD44F2CF
:100980002000C0F60000049001F00EFD0299022044
:1009900001F01CFD44F2B900C0F6000001F004FDB6
:1009A00003999DED0E0ABDEEC00A10EE100A02F08A
:1009B0007FFE039801F0F8FC049801F0F5FCFFE7D6
:1009C0001A981B99D1F85411401A14286BD3FFE7D9
:1009D00040F2A500C2F2000040F2A601C2F20001FE
:1009E00040F2A702C2F2000240F2A803C2F20003E2
:1009F00001F0A6FE8DF867001A981B99C1F8540102
:100A00009DF867004007002836D5FFE71B9B03F5DC
:100A10009470B3F96811B3F96A21B3F96C3100F03D
:100A200033FF01F0CFFB03200021019101F0CEFC48
:100A300044F23200C0F6000001F0B6FC0199042037
:100A400001F0C4FC44F23D10C0F6000001F0ACFC23
:100A50004FF47A7002F0D0FC1B99012008701A98AC
:100A60001B99C1F84C011B9890F8440100F07EFBE3
:100A70001B9802F07FFBFFE79DF867000007002846
:100A800010D5FFE71B99012008701A981B99C1F82F
:100A90004C011B9890F8440100F068FB1B9802F091
:100AA00069FBFFE7FFE71A981B99D1F86011401A1C
:100AB000B0F5FA7F08D3FFE71B9802F05BFB1A98AA
:100AC0001B99C1F86001FFE7B5E11A981B99D1F8AD
:100AD0005011401A142808D3FFE71B9801F0D0FEEC
:100AE0001A981B99C1F85001FFE71A981B99D1F881
:100AF0005411401A142869D3FFE740F2A500C2F24E
:100B0000000040F2A601C2F2000140F2A702C2F2C8
:100B1000000240F2A803C2F2000301F011FE8DF8BA
:100B2000670001F077FE8DF866001A981B99C1F8EE
:100B300054019DF866000007002834D5FFE740F215
:100B4000A400C2F20000007868B9FFE71A9840F2EA
:100B5000A001C2F20001086040F2A401C2F200014B
:100B6000012008701EE01A9840F2A001C2F20001B4
:100B70000968401AB0F5FA7F13D3FFE740F2A401E9
:100B8000C2F20001002008701B99042008701A9816
:100B90001B99C1F84C0100F055FB1B9802F0EAFAD2
:100BA00049E1FFE706E040F2A401C2F200010020A3
:100BB0000870FFE71B9890F83C0130B9FFE71B98DD
:100BC0009DF8661001F060FDFFE7FFE71B9890F8C5
:100BD0003C0101280DD1FFE71A981B99D1F850115B
:100BE000401A132804D8FFE71B9801F087FDFFE7A0
:100BF000FFE71B98023001F077FE0A901A981B99C4
:100C0000D1F85811401A0A99884229D3FFE71B9856
:100C1000023002F021F81B98023002F037F91A98DE
:100C20001B99C1F858011B9890F8D500B8B1FFE79F
:100C30001B99B1F8D000A1F846011B990520087056
:100C40001A981B99C1F84C011B99B1F8D000B1F862
:100C5000D21000F03DFA1B9802F08CFAEBE0FFE7AF
:100C60001A981B99D1F86011401AB0F5FA7F08D391
:100C7000FFE71B9802F07EFA1A981B99C1F86001F1
:100C8000FFE7D8E01A981B99D1F85411401A14289C
:100C900053D3FFE740F2A500C2F2000040F2A601E4
:100CA000C2F2000140F2A702C2F2000240F2A80321
:100CB000C2F2000301F044FD8DF867001A981B99F9
:100CC000C1F854019DF867004007002819D5FFE7D7
:100CD00002F092F901F076FA02F042F91B98023024
:100CE00002F0D4F81B99032008701A981B99C1F8D8
:100CF0004C011A981B99C1F858011B9802F03AFA56
:100D0000FFE79DF867000007002815D5FFE71B994E
:100D1000012008701A981B99C1F84C011B99B1F871
:100D2000D000A1F846011B9890F8440100F01EFA8B
:100D30001B9802F01FFAFFE7FFE71A981B99D1F8FA
:100D40006011401AB0F5FA7F08D3FFE71B9802F054
:100D500011FA1A981B99C1F86001FFE76BE01A9825
:100D60001B99D1F85411401A142852D3FFE740F2CE
:100D7000A500C2F2000040F2A601C2F2000140F25A
:100D8000A702C2F2000240F2A803C2F2000301F07F
:100D9000D7FC8DF867001A981B99C1F854019DF88B
:100DA0006700400700281DD5FFE71B98023001F0BF
:100DB000BBFD02F021F901F005FA02F0D1F81B9811
:100DC000023002F063F81B99032008701A981B99EF
:100DD000C1F84C011A981B99C1F858011B9802F0F0
:100DE000C9F9FFE79DF867000007002810D5FFE765
:100DF0001B99012008701A981B99C1F84C011B9887
:100E000090F8440100F0B2F91B9802F0B3F9FFE743
:100E1000FFE71A981B99D1F86011401AB0F5FA7FD4
:100E200008D3FFE71B9802F0A5F91A981B99C1F89F
:100E30006001FFE7FFE71CB080BD000040F6100036
:100E4000C4F20200006800F40071012080EA512021
:100E50007047000040F61000C4F20200006800F085
:100E60002001012080EA51107047000040F6100078
:100E7000C4F20200006800F04001012080EA9110F5
:100E80007047000040F61000C4F20200006800F451
:100E90008071012080EA11207047000043F6300184
:100EA000C4F20201086840F00400086040F6000146
:100EB000C4F2020108684CF2FF32CFF6F072104023
:100EC000086040F60C01C4F2020108681040086096
:100ED000086841F20042C0F2050210430860704702
:100EE00080B582B001F014FBCC2001F053FBBE2092
:100EF00001F050FB01F0E0FA8DF8030001F0DCFA9C
:100F00008DF802009DF802109DF8030040EA0120D0
:100F1000ADF800009DF8020060B1FFE79DF8020007
:100F2000FF2807D0FFE740F2C800C2F200000068C7
:100F3000019017E0BDF9000010F16E0F05DBFFE72F
:100F4000BDF90000FB2807DBFFE740F2C800C2F252
:100F500000000068019005E0BDF9000000EB800092
:100F60000190FFE7019802B080BD000080B501F05C
:100F7000CFFA60B9FFE740F2C401C2F200010020DD
:100F8000087040F2C501C2F20001087019E0CC20DF
:100F900001F000FB442001F0FDFA40F2C401C2F26E
:100FA00000010120087040F2C501C2F200010020DA
:100FB000087040F2CC01C2F200014FF47A70088050
:100FC000FFE780BD40F2C400C2F20000007800B329
:100FD000FFE740F2CC00C2F200000088012818DBD5
:100FE000FFE740F2CC00C2F2000001880139018025
:100FF000008868B9FFE740F2C501C2F20001012094
:10100000087040F2C401C2F2000100200870FFE73E
:10101000FFE770474EF6FC51CEF20001086840F041
:101020008070086041F20001CEF20001086840F0D3
:10103000010008607047000080B582B001F0C2F87E
:1010400001200021019101F0C1F944F22110C0F604
:10105000000001F0A9F90199032001F0B7F944F269
:101060001010C0F6000001F09FF90199042001F072
:10107000ADF944F25910C0F6000001F095F901995C
:10108000052001F0A3F944F27B10C0F6000001F046
:101090008BF902B080BD000080B582B08DF80700EA
:1010A0008DF806109DF807009DF806104FEAC17CE8
:1010B00043F6C773C0F6000343F6C372C0F60002DE
:1010C000BCF1000F18BF1A4600F0AAFB02B080BDA9
:1010D00080B586B0ADF81600ADF8141001F072F8C6
:1010E00001200021019101F071F944F2FA00C0F6EB
:1010F000000001F059F90199032001F067F944F269
:101100002300C0F6000001F04FF9BDF8160002A957
:10111000009102F0CDFA009801F046F901990420FF
:1011200001F054F944F21B00C0F6000001F03CF954
:101130000099BDF8140002F0BBFA009801F034F9F0
:101140000199062001F042F944F28E10C0F6000029
:1011500001F02AF90199072001F038F944F29A10B8
:10116000C0F6000001F020F906B080BD80B582B065
:101170008DF8070001F026F800210091084601F0E3
:1011800025F944F2E700C0F6000001F00DF90099DE
:10119000022001F01BF944F23E00C0F6000001F00D
:1011A00003F90099032001F011F944F25000C0F650
:1011B000000001F0F9F80099042001F007F944F269
:1011C0002D10C0F6000001F0EFF80099072001F0A3
:1011D000FDF844F26A10C0F6000001F0E5F800994D
:1011E0009DF807000230C0B201F0F0F844F20C1094
:1011F000C0F6000001F0D8F802B080BD80B582B022
:101200008DF807008DF806109DF807000230C0B277
:101210000021009101F0DAF844F23000C0F600003D
:1012200001F0C2F800999DF806000230C0B201F04A
:10123000CDF844F20C10C0F6000001F0B5F802B091
:1012400080BD000080B582B000F0BCFF022000210C
:10125000019101F0BBF844F2D800C0F6000001F0A3
:10126000A3F80199042001F0B1F844F24E10C0F641
:10127000000001F099F80199052001F0A7F844F267
:101280009A10C0F6000001F08FF802B080BD000097
:1012900080B582B08DF807008DF806109DF8070024
:1012A0009DF806104FEAC17C43F6D773C0F60003E1
:1012B00043F6D372C0F60002BCF1000F18BF1A4605
:1012C00000F0AEFA02B080BD80B582B08DF80700A4
:1012D0008DF806109DF807009DF806104FEAC17CB6
:1012E00043F6CF73C0F6000343F6CB72C0F600029C
:1012F000BCF1000F18BF1A4600F092FA02B080BD90
:1013000080B582B08DF807008DF806109DF80700B3
:101310009DF806104FEAC17C43F6DF73C0F6000368
:1013200043F6DB72C0F60002BCF1000F18BF1A468C
:1013300000F076FA02B080BD80B584B040F2B4000F
:10134000C2F2000001680020C4F2020000EB81201C
:10135000039043F61440C4F201000190006840F28B
:10136000B001C2F2000102910968C84000F001001A
:1013700040F2B801C2F200010860062001F0D2FF7D
:10138000019A02990B68012000FA03F310681843D0
:101390001060039800690968C840C00760B1FFE7A2
:1013A00040F2AC00C2F20000016840F2B000C2F2AC
:1013B000000000688847FFE704B080BD80B584B0B6
:1013C00040F2B400C2F2000001680020C4F2020042
:1013D00000EB8120039043F61440C4F20100019019
:1013E000006840F2B001C2F2000102910968C840F1
:1013F00000F0010040F2B801C2F2000108602820AC
:1014000001F090FF019A02990B68012000FA03F3A2
:10141000106818431060039800690968C840C00745
:1014200060B1FFE740F2AC00C2F20000016840F298
:10143000B000C2F2000000688847FFE704B080BD3A
:1014400080B584B040F2B400C2F200000168002010
:10145000C4F2020000EB8120039043F61440C4F272
:1014600001000190006840F2B001C2F20001029157
:101470000968C84000F0010040F2B801C2F2000162
:101480000860072001F04EFF019A02990B680120C5
:1014900000FA03F3106818431060039800690968A4
:1014A000C840C00760B1FFE740F2AC00C2F20000E4
:1014B000016840F2B000C2F2000000688847FFE710
:1014C00004B080BD80B584B040F2B400C2F2000028
:1014D00001680020C4F2020000EB8120039043F673
:1014E0001440C4F201000190006840F2B001C2F261
:1014F000000102910968C84000F0010040F2B80103
:10150000C2F200010860082001F00CFF019A029964
:101510000B68012000FA03F3106818431060039869
:1015200000690968C840C00760B1FFE740F2AC003D
:10153000C2F20000016840F2B000C2F20000006890
:101540008847FFE704B080BD80B584B040F2B400A6
:10155000C2F2000001680020C4F2020000EB81200A
:10156000039043F61440C4F201000190006840F279
:10157000B001C2F2000102910968C84000F0010008
:1015800040F2B801C2F200010860092001F0CAFE71
:10159000019A02990B68012000FA03F310681843BE
:1015A0001060039800690968C840C00760B1FFE790
:1015B00040F2AC00C2F20000016840F2B000C2F29A
:1015C000000000688847FFE704B080BD80B584B0A4
:1015D00040F2B400C2F2000001680020C4F2020030
:1015E00000EB8120039043F61440C4F20100019007
:1015F000006840F2B001C2F2000102910968C840DF
:1016000000F0010040F2B801C2F2000108600A20B7
:1016100001F088FE019A02990B68012000FA03F399
:10162000106818431060039800690968C840C00733
:1016300060B1FFE740F2AC00C2F20000016840F286
:10164000B000C2F2000000688847FFE704B080BD28
:1016500080B584B040F2B400C2F2000001680020FE
:10166000C4F2020000EB8120039043F61440C4F260
:1016700001000190006840F2B001C2F20001029145
:101680000968C84000F0010040F2B801C2F2000150
:101690000860172001F046FE019A02990B680120AC
:1016A00000FA03F310681843106003980069096892
:1016B000C840C00760B1FFE740F2AC00C2F20000D2
:1016C000016840F2B000C2F2000000688847FFE7FE
:1016D00004B080BD80B582B000208DF80700FFE720
:1016E0009DF807000F2800F29980FFE700208DF891
:1016F0000600FFE79DF806001F2800F28880FFE73C
:101700009DF8070040088DF805009DF80600800050
:101710008DF804009DF805109DF8040000EBC11041
:10172000ADF8020000208DF800008DF80100FFE701
:101730009DF8010003281DD8FFE7BDF802009DF8C1
:101740000110421840F2CE00C2F20000805C40F26C
:10175000CE41C2F20001895C884204D0FFE701203B
:101760008DF8000006E0FFE79DF8010001308DF8DC
:101770000100DDE79DF8000008B9FFE741E09DF8B2
:1017800005009DF8041000F021FE00208DF80100F6
:10179000FFE79DF80100032813D8FFE7BDF802001A
:1017A0009DF80110014440F2CE00C2F20000405CFE
:1017B00000F042FDFFE79DF8010001308DF80100C7
:1017C000E7E700208DF80100FFE79DF801000328FE
:1017D00016D8FFE7BDF802009DF80110421840F24C
:1017E000CE00C2F20000805C40F2CE41C2F20001A5
:1017F0008854FFE79DF8010001308DF80100E4E70F
:10180000FFE79DF8060001308DF8060072E7FFE75C
:101810009DF8070001308DF8070061E702B080BD38
:1018200083B08DF80B008DF80A1001929DF80A0024
:1018300040088DF803009DF80B0080008DF8020031
:1018400000208DF80100FFE79DF80100032819D85A
:10185000FFE701989DF80110435C9DF803209DF877
:10186000020000EBC210421840F2CE01C2F20001A9
:10187000885C18438854FFE79DF8010001308DF81B
:101880000100E1E703B0704780B586B00590ADF880
:101890001210ADF81020ADF80E30059808B9FFE72A
:1018A00027E0BDF91000BDF90E1000F06BF88DEDCA
:1018B000020ABDF91200BDF91010BDF90E2000F0AA
:1018C0001BF88DED010A02980599086001980599A9
:1018D00048600598002181600598C160059A032041
:1018E0001074059A91740599C8740599012048747B
:1018F000FFE706B080BD000080B584B0ADF80A00F7
:10190000ADF80810ADF80620BDF9080000EE100A89
:10191000B8EEC00ABDF9060001EE100AB8EEC11A11
:1019200021EE011A20EE000A30EE010A02F01AFA46
:101930008DED000A9DED000A9FED101AB4EE410AEC
:10194000F1EE10FA03DAFFE70020039011E0BDF991
:101950000A00404200EE100AB8EEC00ADDED000AAF
:1019600002F0AAF89FED061A20EE010A8DED030A97
:10197000FFE79DED030A04B080BD00BF0AD7233CFA
:10198000E02E654280B582B0ADF80600ADF80410D7
:10199000BDF9060000EE100AB8EEC00ABDF9040059
:1019A00001EE100AF8EEC10A02F086F89FED021A65
:1019B00020EE010A02B080BDE02E654281B00090A9
:1019C000009808B9FFE712E0009800210160009834
:1019D0004160009881600098C160009A03201074F3
:1019E000009A5174009A91740099C874FFE701B08D
:1019F0007047000080B58CB00DF1080CCDF800C028
:101A00000A90ADF82610ADF82420ADF822300A98DF
:101A100020B9FFE703208DF82F00F5E00A98407CFD
:101A200028B9FFE70A98007C8DF82F00ECE0BDF99B
:101A30002400BDF92210FFF7A5FF009880ED050AEC
:101A4000BDF92600BDF92410BDF92220FFF754FF8F
:101A5000009880ED040A90ED050A0A9991ED001AAC
:101A600030EE410A80ED030A90ED040A0A9991EDE7
:101A7000011A30EE410A80ED020A90ED030A0A993C
:101A800091ED021A9FED623A21EE031A9FED612A51
:101A900020EE020A30EE010A81ED020A90ED020A00
:101AA0000A9991ED031A21EE031A20EE020A30EE94
:101AB000010A81ED030A0A99896803910A99C968A4
:101AC000029190ED010AB5EE400AF1EE10FA08DA43
:101AD000FFE7009890ED010AB1EE400A80ED010A9F
:101AE000FFE7009890ED000AB5EE400AF1EE10FA1B
:101AF00008DAFFE7009890ED000AB1EE400A80EDA9
:101B0000000AFFE7009890ED010AB2EE0E1AB4EE5B
:101B1000410AF1EE10FA16DAFFE7009890ED000A9C
:101B2000B2EE0E1AB4EE410AF1EE10FA0BDAFFE74C
:101B30000A99002088740A99087CC8740A98007C65
:101B40008DF82F0060E0009890ED000A90ED011AEA
:101B5000B4EE410AF1EE10FA14DDFFE70A9890EDB9
:101B6000030AB2EE0E1AB4EE410AF1EE10FA04DDE9
:101B7000FFE700208DF8070003E001208DF8070043
:101B8000FFE713E00A9890ED020AB2EE0E1AB4EEE7
:101B9000410AF1EE10FA04DDFFE703208DF807009B
:101BA00003E002208DF80700FFE7FFE79DF807003C
:101BB0000A99C97C88421AD1FFE70A99887C0130CA
:101BC00088740A98807C032810D3FFE79DF80700EB
:101BD0000A99097C884205D0FFE79DF807000A9919
:101BE0000874FFE70A9903208874FFE707E09DF86F
:101BF00007000A99C8740A9901208874FFE70A98B7
:101C0000007C8DF82F00FFE79DF82F000CB080BD01
:101C10009A99593F9A99193E43F63001C4F202014C
:101C2000086840F00200086043F64001C4F2020177
:101C3000086840F40010086040F20041C4F202015C
:101C4000086820F470200860086840F420200860CC
:101C500040F20441C4F20201086840F44070086098
:101C600040F20C41C4F20201086820F470200860C0
:101C7000086840F4A020086040F20841C4F2020164
:101C8000086840F47020086040F22441C4F2020168
:101C9000086820F0FF000860086840F04400086011
:101CA00045F20041C4F20001086840F400400860B9
:101CB000086820F40040086045F20442C4F20002C3
:101CC0001020106045F21C42C4F200025020106047
:101CD00045F22042C4F2000211201060086840F072
:101CE000010008607047000082B08DF807008DF891
:101CF0000610FFE745F21840C4F2000000688007B4
:101D0000002801D5FFE7F5E745F20041C4F20001E4
:101D1000086840F480700860FFE745F21440C4F2A0
:101D200000000068C00708B9FFE7F6E79DF8070064
:101D3000400045F21041C4F200010860FFE745F29F
:101D40001440C4F2000000688007002801D4FFE7B7
:101D5000F5E745F21840C4F20000006800900098D2
:101D6000FFE745F21440C4F20000006800060028B6
:101D700001D4FFE7F5E79DF8060045F21041C4F2F3
:101D800000010860FFE745F21440C4F2000000685B
:101D90000006002801D4FFE7F5E745F20041C4F250
:101DA0000001086840F480700860FFE745F21440C5
:101DB000C4F200000068C00708B9FFE7F6E79DF825
:101DC00007004000013045F21041C4F200010860F4
:101DD000FFE745F21440C4F20000006880070028C5
:101DE00001D4FFE7F5E745F20041C4F200010868BD
:101DF00020F48060086045F21840C4F200000068DA
:101E000000900098086840F400700860FFE745F211
:101E10001440C4F2000000684006002801D4FFE727
:101E2000F5E745F21040C4F2000000688DF80500A7
:101E30009DF8050002B0704782B08DF807008DF85C
:101E400006108DF80520FFE745F21840C4F20000A7
:101E500000688007002801D5FFE7F5E745F200415B
:101E6000C4F20001086840F480700860FFE745F2A2
:101E70001440C4F200000068C00708B9FFE7F6E7A5
:101E80009DF80700400045F21041C4F200010860CF
:101E9000FFE745F21440C4F2000000688007002804
:101EA00001D4FFE7F5E745F21840C4F200000068EE
:101EB00000900098FFE745F21440C4F2000000686B
:101EC0000006002801D4FFE7F5E79DF8060045F27B
:101ED0001041C4F200010860FFE745F21440C4F26B
:101EE000000000680006002801D4FFE7F5E79DF830
:101EF000050045F21041C4F200010860FFE745F219
:101F00001440C4F2000000684007002801D4FFE735
:101F1000F5E745F20041C4F20001086840F40070A2
:101F2000086002B07047000082B08DF807008DF89D
:101F300006108DF80520FFE745F21840C4F20000B6
:101F400000688007002801D5FFE7F5E745F200416A
:101F5000C4F20001086840F480700860FFE745F2B1
:101F60001440C4F200000068C00708B9FFE7F6E7B4
:101F70009DF80700400045F21041C4F200010860DE
:101F8000FFE745F21440C4F2000000688007002813
:101F900001D4FFE7F5E745F21840C4F200000068FD
:101FA00000900098FFE745F21440C4F2000000687A
:101FB0000006002801D4FFE7F5E79DF8060045F28A
:101FC0001041C4F200010860FFE745F21440C4F27A
:101FD000000000680006002801D4FFE7F5E79DF83F
:101FE000050045F21041C4F200010860FFE745F228
:101FF0001440C4F2000000684007002801D4FFE745
:10200000F5E745F20041C4F20001086840F40070B1
:10201000086002B07047000083B001908DF8031093
:102020008DF8022000208DF80100FFE79DF80100E7
:10203000019991F8C81088421FDAFFE701989DF8CE
:102040000110405C9DF8031088420FD1FFE7019812
:102050009DF80110084490F864009DF80210884231
:1020600004D1FFE701208DF80B000AE0FFE79DF89F
:10207000010001308DF80100D8E700208DF80B0039
:10208000FFE79DF80B0003B07047000080B588B0F3
:1020900007900691079846F26761C6F2666150FBA9
:1020A00001F2901000EBD2700290079850FB01F201
:1020B000911001EBD27101EB8101A0EB4100019085
:1020C0000198B0F1FF3F04DCFFE701984042019026
:1020D000FFE7029803A9009101F0EAFA06990020AF
:1020E00001F028FC009801F0B5FB44F25F00C0F657
:1020F000000001F0AFFB0099019801F0D9FA0098B7
:1021000001F0A8FB432001F0C9FB08B080BD00002E
:1021100080B568206B210022FFF706FF80BD00001C
:1021200080B582B08DF807009DF8071068200090F8
:10213000FFF7DAFD014600988DF806109DF80710AC
:102140000131C9B2FFF7D0FD8DF805009DF80610EA
:102150009DF8050040EA012000B202B080BD0000F9
:1021600080B584B00390029101923B20FFF7D8FF25
:10217000039908803D20FFF7D3FF029908803F2094
:10218000FFF7CEFF0199088004B080BD80B584B010
:102190000390029101924320FFF7C2FF0399088048
:1021A0004520FFF7BDFF029908804720FFF7B8FFE1
:1021B0000199088004B080BD80B568207521FFF7C3
:1021C00093FD80BD80B582B000208DF80700FFE749
:1021D0009DF80700072820DCFFE79DF80700002195
:1021E000009100F0F3F800988DF80600FFE79DF8E5
:1021F00006007F280ADCFFE7002000F01DF8FFE75B
:102200009DF8060001308DF80600F0E7FFE79DF825
:10221000070001308DF80700DAE702B080BD00004A
:1022200080B582B08DF807009DF807203C20002182
:10223000FFF702FE02B080BD80B582B08DF80700C6
:102240009DF807203C204021FFF7F6FD02B080BD3D
:1022500080B582B0642001F0CFF8AE20FFF7E0FF38
:1022600020200190FFF7DCFF00200090FFF7D8FF4F
:10227000B020FFF7D5FFC820FFF7D2FF0098FFF787
:10228000CFFF1020FFF7CCFF4020FFF7C9FF8120D0
:10229000FFF7C6FFFF20FFF7C3FFA120FFF7C0FF36
:1022A000A620FFF7BDFFA820FFF7BAFF3F20FFF7EA
:1022B000B7FFA420FFF7B4FFD320FFF7B1FF0098CA
:1022C000FFF7AEFFD520FFF7ABFFF020FFF7A8FF29
:1022D000D920FFF7A5FF2220FFF7A2FFDA20FFF7A2
:1022E0009FFF1220FFF79CFFDB20FFF799FF01986B
:1022F000FFF796FF8D20FFF793FF1420FFF790FF65
:10230000AF20FFF78DFF02B080BD000080B582B026
:10231000019000200090FFE7009804280ADCFFE706
:1023200001980099405CFFF787FFFFE700980130B4
:102330000090F1E70020FFF77FFF02B080BD0000B2
:1023400080B584B08DF80F009DF80F00202805DBC4
:10235000FFE79DF80F007F2804DBFFE720208DF8C2
:102360000F00FFE79DF80F0000EB800043F6E851F7
:10237000C0F600010844A038029000200190FFE759
:10238000019804280ADCFFE702980199405CFFF7F6
:1023900053FFFFE7019801300190F1E70020FFF7BC
:1023A0004BFF04B080BD000080B582B00190FFE714
:1023B0000198007840B1FFE701980078FFF7C0FF6F
:1023C000019801300190F3E702B080BD80B582B082
:1023D0008DF807008DF806109DF80700B030C0B2E8
:1023E000FFF71EFF9DF8060000F00F00FFF718FF33
:1023F0009DF8060000091030FFF712FF02B080BD03
:1024000080B543F63001C4F20201086840F00100D3
:1024100008600021C4F20201086820F00C00086086
:102420000421C4F20201086840F0020008600C2197
:10243000C4F20201086820F00C00086000F00AF8FD
:1024400080BD00001821C4F202014FF40030086082
:10245000704700000021C4F20201086820F00C005F
:10246000086070470021C4F20201086820F00C00E7
:102470000860086840F004000860704780B582B0CA
:10248000FFF7F0FFFFF7DEFF022000F0CDFF00F0C6
:102490003BF8142000F0C8FF1020C4F202000068CE
:1024A000C0F340008DF80700322000F0BDFF9DF81A
:1024B000070002B080BD000080B582B000208DF81A
:1024C00007008DF80600FFE79DF80600072816DCD8
:1024D000FFE7FFF7D3FF58B1FFE79DF80610012093
:1024E00000FA01F19DF8070008438DF80700FFE7A7
:1024F000FFE79DF8060001308DF80600E4E79DF83F
:10250000070002B080BD000080B5FFF7A3FF80BDCB
:1025100080B582B0FFF7A6FF00F05AF84FF4F070D4
:1025200000F082FFFFF796FF502000F07DFF1020A3
:10253000C4F20200006800F00201012080EA5100AC
:102540008DF807004FF4C87000F06EFF9DF807008B
:1025500002B080BD80B582B08DF80700FFF782FF22
:10256000FFF770FF9DF8070048B1FFE7062000F075
:102570005BFFFFF76FFF402000F056FF08E03C20B4
:1025800000F052FFFFF766FF0A2000F04DFFFFE763
:1025900002B080BD80B582B08DF8070000200090A9
:1025A000FFE70098072810DCFFE79DF8070000F020
:1025B0000100FFF7CFFF9DF8070040088DF80700E6
:1025C000FFE7009801300090EBE702B080BD00000B
:1025D0001821C4F202014FF4003008607047000077
:1025E00082B0019000208DF803000D208DF80200CC
:1025F000FFE79DF8020012281BDCFFE79DF80200B0
:1026000001999DF80320114481F8D40001989DF8A8
:1026100003100144052081F8FC009DF803000130FF
:102620008DF80300FFE79DF8020001308DF80200ED
:10263000DFE70D208DF80200FFE79DF80200122869
:102640001BDCFFE79DF8020001999DF8032011446F
:1026500081F8D40001989DF803100144062081F808
:10266000FC009DF8030001308DF80300FFE79DF8A2
:10267000020001308DF80200DFE79DF803000199A8
:1026800081F8240102B0704780B582B001908DF8C6
:1026900003109DF80300C00730B1FFE70198023036
:1026A000002100F09FFA26E09DF803008007002833
:1026B00006D5FFE701980230022100F093FA19E0F5
:1026C0009DF803004007002806D5FFE70198023077
:1026D000032100F087FA0CE09DF8030000070028B2
:1026E00006D5FFE701980230012100F07BFAFFE7F1
:1026F000FFE7FFE7FFE702B080BD000080B582B0D2
:102700000190019B03F59470B3F96811B3F96A2144
:10271000B3F96C31FFF76EF98DF803009DF80300F3
:10272000019991F8CB10884207D0FFE70198023059
:102730009DF8031000F056FAFFE702B080BD0000DC
:1027400080B586B0059004910392029300208DF825
:102750000300FEF797FB8DF80700FEF787FB8DF867
:102760000600FEF777FB8DF80500FEF767FB8DF896
:1027700004009DF8070058B1FFE70598007838B9C4
:10278000FFE79DF8030040F001008DF80300FFE72C
:102790009DF8060058B1FFE70498007838B9FFE7C4
:1027A0009DF8030040F002008DF80300FFE79DF85C
:1027B000050058B1FFE70398007838B9FFE79DF8A6
:1027C000030040F004008DF80300FFE79DF80400CB
:1027D00058B1FFE70298007838B9FFE79DF8030089
:1027E00040F008008DF80300FFE79DF80700059909
:1027F00008709DF80600049908709DF8050003997B
:1028000008709DF80400029908709DF8030006B056
:1028100080BD000080B582B000208DF80700FEF773
:1028200031FB38B1FFE79DF8070040F001008DF85B
:102830000700FFE7FEF71AFB38B1FFE79DF8070036
:1028400040F002008DF80700FFE7FEF703FB38B108
:10285000FFE79DF8070040F004008DF80700FFE750
:10286000FEF7ECFA38B1FFE79DF8070040F00800EA
:102870008DF80700FFE79DF8070002B080BD00005B
:1028800080B582B00190019A02F5B47002F5B5717D
:1028900002F5B672FFF764FC019A02F5B77002F513
:1028A000B87102F5B972FFF771FC02B080BD00008B
:1028B00080B582B0019040F2C500C2F200000078FD
:1028C00080B1FFE7FEF70CFB40F2C801C2F2000145
:1028D00000910860FEF74AFB009800680199C1F872
:1028E0004001FFE702B080BD83B00190019890F8ED
:1028F000D20001460091012808D0FFE70098022885
:1029000007D0FFE70098032806D006E0B420029025
:1029100006E07820029003E0FFE746200290FFE700
:10292000029803B07047000080B582B00190019911
:10293000032081F8C800019A0F211170019A0A2121
:1029400082F86410019A117801395170019A92F855
:10295000641082F86510019A117802399170019A19
:1029600092F8641082F86610019981F8C900019903
:1029700081F8CA0001990020A1F8CE00019A012136
:1029800082F8D210019981F8D3000198FFF728FE50
:10299000019800F08DF8019890F8C8008DF80300B8
:1029A000FFE79DF80300632812D8FFE701999DF81F
:1029B00003200020885401999DF80320114481F8D8
:1029C0006400FFE79DF8030001308DF80300E8E79D
:1029D00002B080BD80B584B002908DF807108DF8EC
:1029E00006209DF807009DF8061000F03BF820B97E
:1029F000FFE701208DF80F0030E000208DF8050082
:102A0000FFE79DF80500029991F82411884221DA28
:102A1000FFE702989DF80510084490F8D4009DF84F
:102A2000071088420FD1FFE702989DF8051008446F
:102A300090F8FC009DF80610884204D1FFE70120C1
:102A40008DF80F000AE0FFE79DF8050001308DF8D2
:102A50000500D6E700208DF80F00FFE79DF80F0076
:102A600004B080BD82B08DF807008DF806109DF887
:102A7000071000200090A9B1FFE79DF80710002083
:102A80001E2900900ED8FFE79DF806100020009048
:102A900041B1FFE79DF8061000200F2938BF012043
:102AA0000090FFE7009800F0010002B070470000BE
:102AB00080B586B0059040F64820C2F2000000685C
:102AC000039000200290FFE70298B0F5FA6F49DA10
:102AD000FFE703A8019000F0AFFF0146019848F618
:102AE0008902C8F68802A1FB022323F00F02A2EBA1
:102AF0001312A1EB420101318DF8131000F09CFF7D
:102B0000410842F29342C9F24922A1FB0212910804
:102B1000C900A1EB9201A0EB410001308DF8120039
:102B200005989DF813109DF81220FFF775FAA0B9CB
:102B3000FFE705989DF813109DF81220FFF74AFF54
:102B400058B9FFE79DF81300059981F8CB009DF86F
:102B50001200059981F8CC0041E0FFE702980130AE
:102B60000290B1E701208DF81300FFE79DF81300F4
:102B70001E2834D8FFE701208DF81200FFE79DF8EA
:102B800012000E2824D8FFE705989DF813109DF831
:102B90001220FFF741FAA0B9FFE705989DF813103E
:102BA0009DF81220FFF716FF58B9FFE79DF81300B4
:102BB000059981F8CB009DF81200059981F8CC00A9
:102BC0000DE0FFE79DF8120001308DF81200D6E706
:102BD000FFE79DF8130001308DF81300C6E706B03B
:102BE00080BD000082B001908DF80310019890F82C
:102BF000C900032806D1FFE79DF80300022801D190
:102C0000FFE727E0019890F8C900022806D1FFE706
:102C10009DF80300032801D1FFE71BE0019890F81D
:102C2000C90030B9FFE79DF80300012801D1FFE793
:102C300010E0019890F8C900012805D1FFE79DF840
:102C4000030008B9FFE705E09DF80300019981F84A
:102C5000CA00FFE702B0704780B584B003900398C4
:102C600090F8D30008B1FFE7EDE0039991F8CA00AE
:102C700081F8C900039800788DF80A00039890F84D
:102C800064008DF80900039890F8C900014601918D
:102C900003281CD80199DFE801F002080E149DF802
:102CA000090001388DF8090012E09DF80900013093
:102CB0008DF809000CE09DF80A0001388DF80A0033
:102CC00006E09DF80A0001308DF80A0000E0FFE7F9
:102CD00003989DF80A109DF80920FFF77BFE98B134
:102CE000FFE70399012081F8D3000399B1F8CE00E2
:102CF000B1F8D010884206DDFFE70399B1F8CE00A5
:102D0000A1F8D000FFE79EE000208DF80B00FFE760
:102D10009DF80B00039991F8C810013988422EDA0A
:102D2000FFE703989DF80B10405C9DF80A1088425D
:102D30001ED1FFE703989DF80B10084490F864003B
:102D40009DF80910884213D1FFE70399012081F80B
:102D5000D3000399B1F8CE00B1F8D010884206DD57
:102D6000FFE70399B1F8CE00A1F8D000FFE76AE0D1
:102D7000FFE79DF80B0001308DF80B00C8E70398C2
:102D800090F8C80001388DF80B00FFE79DF80B00A4
:102D9000012816DBFFE703999DF80B20881810F82F
:102DA000010C885403989DF80B10014491F86300BE
:102DB00081F86400FFE79DF80B0001388DF80B00E7
:102DC000E4E79DF80A00039908709DF8090003994B
:102DD00081F864009DF80A00039991F8CB108842AD
:102DE00031D1FFE79DF80900039991F8CC10884292
:102DF00029D1FFE70399B1F8CE000A30A1F8CE003F
:102E0000039890F8C800632816D8FFE7039991F853
:102E1000C820881810F8010C8854039890F8C8103E
:102E2000014491F8630081F86400039991F8C800A7
:102E3000013081F8C800FFE70398FFF739FE0398D7
:102E400000F004F8FFE704B080BD000081B00090FE
:102E50000098B0F8CE003C2805DBFFE7009903207E
:102E600081F8D20010E00098B0F8CE001E2805DBF3
:102E7000FFE70099022081F8D20004E000990120C8
:102E800081F8D200FFE7FFE701B0704780B582B05C
:102E90000190019808B9FFE75FE040F2CE00C2F26E
:102EA00000004FF48061FDF7FBF900F059F80020B5
:102EB0008DF80300FFE79DF80300019991F82411B4
:102EC000884211DAFFE701989DF80310014491F858
:102ED000D40091F8FC10FEF713FAFFE79DF8030009
:102EE00001308DF80300E6E7019991F8CB0091F8E5
:102EF000CC10FEF7D1F8019890F8C8008DF80300C7
:102F0000FFE79DF80300012824DBFFE79DF803009D
:102F100001388DF802009DF8020050B9FFE70198D2
:102F20009DF802208118805C91F86410FEF7CCF9BE
:102F300009E001989DF802208118805C91F86410E6
:102F4000FEF7A6F9FFE7FFE79DF8030001388DF8CB
:102F50000300D6E7FEF7BEFBFFE702B080BD00002E
:102F600080B582B000208DF80700FFE79DF80700CC
:102F70001F2811D8FFE79DF807000021FEF7C0F9D0
:102F80009DF807000F21FEF7BBF9FFE79DF807004A
:102F900001308DF80700E9E701208DF80600FFE712
:102FA0009DF806000E2811DCFFE79DF806100020B2
:102FB000FEF7A6F99DF806101F20FEF7A1F9FFE71E
:102FC0009DF8060001308DF80600E9E702B080BDEB
:102FD00080B582B040F2CE00C2F200004FF48061B2
:102FE0000191FDF75DF9019940F2CE40C2F2000077
:102FF000FDF756F902B080BD80B540F2CE40C2F276
:1030000000004FF48061FDF74BF980BD80B540F6BC
:103010002470C2F200000068804780BD4EF68851DF
:10302000CEF20001086840F4700008604EF60851C6
:10303000CEF200014FF000600860704780B51020AC
:10304000C4F200000068C00788B1FFE71021C4F295
:103050000001086820F00100086040F64821C2F233
:103060000001086801300860FDF7ACFFFFE780BD94
:1030700080B582B043F64001C4F20201086840F016
:10308000010008604FF08041019100200860242178
:10309000C4F2000108602822C4F200020F2111606E
:1030A0002C22C4F2000240F2E73111601422C4F273
:1030B0000002012111601022C4F2000210600C22F3
:1030C000C4F20002106840F0010010601C20009063
:1030D00000F070F9009800F055F90199086840F087
:1030E0000100086002B080BD80B582B0262000F0EB
:1030F00031F944F20040C4F2000000688006002864
:103100000BD5FFE740F2BC00C2F20000006801905E
:1031100000F0A6FC01998847FFE702B080BD0000DF
:1031200082B00190ADF8021000208DF80100BDF8CA
:103130000200B0F5007F01D1FFE7FFE701980068CA
:10314000BDF80210084204D0FFE701208DF801000D
:1031500003E000208DF80100FFE79DF8010002B0B8
:103160007047000081B00090009840686FF35F20C6
:1031700001B0704780B58AB009900998007801467F
:103180000591052800F2B9800599DFE801F0B50343
:10319000334483940021084600F0CCFB44F2B20093
:1031A000C0F6000000F056FB0998B0F8D20006A95E
:1031B000049100F07DFA049800F04CFB44F2C70043
:1031C000C0F6000000F046FB04990998B0F84601EB
:1031D00000F06EFA049800F03DFB44F20500C0F6E2
:1031E000000000F037FB0998D0F840010121FEF7FC
:1031F0004DFF94E00021084600F09CFB44F20A00D9
:10320000C0F6000000F026FB0998D0F8400101212B
:10321000FEF73CFF83E00021084600F08BFB44F200
:10322000B200C0F6000000F015FB0998B0F8D2001B
:1032300006A9039100F03CFA039800F00BFB44F25E
:10324000C700C0F6000000F005FB03990998B0F82C
:10325000D00000F02DFA039800F0FCFA44F2B5001B
:10326000C0F6000000F0F6FA0399099890F8D4002F
:1032700000F01EFA039800F0EDFA44F22000C0F6C8
:10328000000000F0E7FA0998D0F840010121FEF7AC
:10329000FDFE44E00021084600F04CFB43F6E870D8
:1032A000C0F6000000F0D6FA0998D0F840010121DC
:1032B000FEF7ECFE33E00021084600F03BFB44F251
:1032C000BF00C0F6000000F0C5FA0998B0F8D000C1
:1032D00006A9029100F0ECF9029800F0BBFA44F262
:1032E0002000C0F6000000F0B5FA0998D0F84001BF
:1032F0000121FEF7CBFE12E0FFE70998D0F840016C
:1033000000210191FEF7C2FE0198012100F012FB9D
:1033100043F6F970C0F6000000F09CFAFFE70AB02F
:1033200080BD000081B08DF803009DF903000028E6
:103330000ED4FFE79DF9031001F01F020120904019
:103340004A094EF28021CEF2000141F82200FFE747
:1033500001B0704781B08DF803009DF9030000288B
:103360000ED4FFE79DF9031001F01F0201209040E9
:103370004A094EF28021CEF2000141F82200FFE717
:1033800001B0704781B08DF803009DF9030000285B
:103390000ED4FFE79DF9031001F01F0201209040B9
:1033A0004A094EF20011CEF2000141F82200FFE777
:1033B00001B0704782B08DF8070000919DF90700B9
:1033C00000280AD4FFE7009800019DF907104EF28B
:1033D0000042CEF2000288540BE0009800019DF8F4
:1033E000071001F00F014EF61452CEF2000288547D
:1033F000FFE702B07047000082B0019040F648201D
:10340000C2F2000000680090FFE740F64820C2F2D8
:10341000000000680099401A0199884202D2FFE733
:1034200000BFF2E702B0704783B0029041F204009F
:10343000CEF200000068019040F21400C2F20000D9
:1034400000684DF68361C4F21B31A0FB0110800CB3
:10345000029948430090FFE741F20400CEF20000D9
:1034600000680199401A0099884201D2FFE7F3E70A
:1034700003B07047800802D0401E00BFFCD17047E7
:103480002DE9F04140F21406C2F20006044630680D
:103490004FF0FF31B1FBF0F14FF47A7201FB02F70C
:1034A00044F6D358BC42C1F262080BD9A0FB080114
:1034B000880907FB00F500BF2846E41BFFF7DAFF89
:1034C000BC42F9D83068A0FB080188096043BDE818
:1034D000F041FFF7CFBF00002DE9F04140F21406A4
:1034E000C2F20006044630684FF0FF31B1FBF0F144
:1034F00044F24022C0F20F0201FB02F74DF683684E
:10350000BC42C4F21B380BD9A0FB0801880C07FB96
:1035100000F500BF2846E41BFFF7ACFFBC42F9D81A
:103520003068A0FB0801880C6043BDE8F041FFF75C
:10353000A1BF000084B003900291BDF90E100020DD
:10354000C4F2020000EB812001909DF80C00009075
:1035500001984069009A0121914088430299914065
:1035600008430199486104B07047000085B0049099
:103570008DF80F10BDF912100020C4F2020000EB0C
:10358000812002909DF810000190BDF912100120D9
:1035900000FA01F243F63001C4F202010868104358
:1035A000086043F64401C4F20201086840F4804018
:1035B000086042F20401CEF20401086840F00700FE
:1035C00008609DF80F000146009104286DD800990D
:1035D000DFE801F00316293F5500029800680199C1
:1035E0004A00032101FA02F29043029A1060029805
:1035F000C068019A5200914088430299C86054E023
:103600000298006801994A00032101FA02F29043EE
:10361000029A10600298C068019A52009140884353
:103620000299C86041E00298006801994B000321AB
:1036300001FA03F2904301229A401043029A10606B
:103640000298C068019A5200914088430299C8606C
:103650002BE00298006801994A00032101FA02F266
:103660009043029A10600298C068019A52009140FB
:1036700088430121914008430299C86015E00298EF
:10368000006801994A00032101FA02F29043029A6C
:1036900010600298C068019A5200914088430A2144
:1036A000914008430299C860FFE705B070470000E9
:1036B00087B006900591002004900390069858B9B1
:1036C000FFE70599049A501C04903020885405990E
:1036D000049A002088545BE00698B0F1FF3F06DCB6
:1036E000FFE701200390069840420690FFE7FFE7BE
:1036F000069801281EDBFFE7069846F26761C6F2CE
:10370000666150FB01F39A0802EBD37202EB82026E
:10371000A0EB42003030059A049B03F1010CCDF878
:1037200010C0D054069850FB01F1881000EBD17006
:103730000690DDE7039838B1FFE70599049A501C1D
:1037400004902D208854FFE70599049A002088549E
:103750000290049801380190FFE70298019988428D
:1037600016DAFFE705980299405C8DF80300059989
:103770000198085C029A88549DF803000599019A03
:103780008854029801300290019801380190E4E7D2
:1037900007B07047B0B509200221FFF7E7FE072008
:1037A000C0F202000221FFF7E1FE40F2040500240E
:1037B000C2F2000555F824000221FFF7D7FE0134BC
:1037C000042CF7D16420FFF75BFE302000F0C2F834
:1037D0000520FFF755FE302000F0BCF86420FFF70D
:1037E0007BFE302000F0B6F86420FFF775FE202045
:1037F00000F0B0F86420FFF76FFE282000F0AAF870
:103800003C20FFF769FE082000F0A4F83C20FFF7F9
:1038100063FE012000F09EF80420FFF731FE062031
:1038200000F098F83C20FFF757FE0C2000F092F8CB
:103830003C20FFF751FE802000F08CF840F2C001E0
:10384000C2F2000100220C200A60BDE8B04000F086
:1038500081B8000070B504460078002808BF70BD2C
:1038600040F2C005C2F2000500260CE0C02000F0C6
:1038700071F82E60207800F011F828680130286077
:1038800014F8010F48B129681029EFD00A28F1D1A6
:10389000C02000F05FF80134EBE770BD2DE9F04186
:1038A000054640F207080A20C0F20208FFF7E8FDCB
:1038B00009200121FFF73EFE404601212F09FFF7B5
:1038C00039FE40F204060024C2F2000656F8240035
:1038D00027FA04F101F00101FFF72CFE0134042C5A
:1038E000F4D10120FFF7F8FD404600210027FFF743
:1038F00021FE0120FFF7F0FD40460121FFF71AFEEF
:1039000005F00F0456F8270024FA07F101F0010131
:10391000FFF710FE0137042FF4D10120FFF7DCFD83
:1039200040460021FFF706FE0120BDE8F041FFF709
:10393000D3BD000010B5044600EB811040F08000BC
:10394000C0B200F007F840F2C000C2F2000004600C
:1039500010BD00002DE9F041054640F207080A209D
:10396000C0F20208FFF78CFD092000210027FFF7B5
:10397000E1FD404601212C09FFF7DCFD40F2040681
:10398000C2F2000656F8270024FA07F101F00101FF
:10399000FFF7D0FD0137042FF4D10120FFF79CFD84
:1039A000404600210027FFF7C5FD0120FFF794FDE9
:1039B00040460121FFF7BEFD56F8270025FA07F122
:1039C00001F00101FFF7B6FD0137042FF4D101200A
:1039D000FFF782FD40460021FFF7ACFD0120BDE866
:1039E000F041FFF779BD000080B582B00020019062
:1039F000FFF73EFBFEF710F9FEF72AFCFDF70AFB86
:103A0000FEF7FEFCFDF74AFAFFF7C4FEFEF780FB67
:103A1000FA20FFF7F1FCFDF7A9FA40F6D000C2F258
:103A20000000FCF7D3FCFFE740F6D000C2F2000034
:103A3000FCF732FDF8E7000081B0009000990868BB
:103A400043F2390344F66D62C4F2C61200FB023041
:103A500020F0004008600098006801B07047000046
:103A600080B582B0FFE744F20040C4F2000020219C
:103A7000FFF756FB08B9FFE7F5E744F20040C4F250
:103A80000000FFF76FFBADF806009DF8060002B0DE
:103A900080BD4100080218BF04200A0E18BF40F084
:103AA00001004FF07F4232EA010108BF40F00200FE
:103AB000012808BF0520704770B54FF068422DED12
:103AC000048BF0EE408A18EE900AB0EE608A18EE91
:103AD000101A02EB4003B3F1654F3CBF02EB410209
:103AE000B2F1654F7DD200BFC0F3C753C1F3C752D7
:103AF0009A1A1B2A09DD10F0004F14BF9FED830AAC
:103B00009FED830ABDEC048B70BD12F11A0F36DAFB
:103B100011F0004F09D010F0004F0CBF9FED7D0A4F
:103B20009FED7D0ABDEC048B70BD88EE889A19EE7E
:103B3000100AFFF7AEFF042808BF00F033F918EEB3
:103B4000900AFFF7A6FF054618EE100AFFF7A1FF3F
:103B5000044619EE100AFFF79CFF042D18BF052D2F
:103B600008D1042C18BF052C04D1002804BF022062
:103B7000FCF7E7FBB0EE490ABDEC048B70BD4200D8
:103B8000B2EB410F3AD910F0004F19BFDFED630AD5
:103B90009FED630ADFED630A9FED630AB0EE481AFA
:103BA0000A46B1EE688A80F00041F0EE418A104684
:103BB0000A1A5200B2F1807F34D2484010F0004F10
:103BC000DFED5A1A9FED5A2A1DBFBEEE001A70EEA5
:103BD000E10A30EE420AB6EE001A08BF70EEA10A02
:103BE00000E040E008BF30EE020AB0EE682A01EEC5
:103BF000482A08EE818AC2EE081A15E011F0004F3B
:103C000004BF9FED4C0AF0EE400AD1D010F0004FF7
:103C100019BFDFED490A9FED490ADFED490A9FED23
:103C2000490AC5E7C8EE881A21EEA11A9FED462A77
:103C3000DFED462A41EE022A9FED452A01EE222AB7
:103C4000DFED442A41EE022A9FED432ABDEC048BAE
:103C500001EE222A21EE811A01EE020A30EE210A3B
:103C600030EE200A70BD4FF07F42B2EB400F28BF0C
:103C7000B2EB410F09D2F0EE480AB0EE680ABDEC93
:103C8000048BBDE8704000F08AB840EA01035B0095
:103C900008BF41F0FF410BD0B2EB400F08BFB2EBC1
:103CA000410F08D120F0804008EE900A21F08041B9
:103CB00008EE101A18E7B2EB400F12BF5FEA41039B
:103CC00040F0FF4001F000413FF40EAFB2EB410F76
:103CD00012BF5FEA400200F0004041F0FF413FF4B4
:103CE00003AF4A0092EA40033FF5FEAE002AACBFA4
:103CF0009FED1A0A9FED1A0A68EE808A28EE008A64
:103D000018EE900A18EE101AEEE60000DB0FC9BF9D
:103D1000DB0FC93FDB0F4940DB0F49C00000C9BFC3
:103D200022AAFDB90000C93F22AAFD390060ED3E7C
:103D3000C30ACE3700000000000049C022AA7DBAA5
:103D40000000494022AA7D3A2DAD65BD8FB8D53D12
:103D50000FB511BE61C84C3EA8AAAABE0000804F94
:103D60000000802F10B52DED028BB1EEC08A18EE49
:103D7000100A20F00040C0F1FF40C00F0AD010EE42
:103D8000100A20F00040C0F1FF40C00F04BF012026
:103D9000FCF7D7FAB0EE480ABDEC028B10BD30EE4E
:103DA000200A70479FED020A20EE000A70470000CB
:103DB00000000010F1EE100A4FF6FF71C0F2C031A2
:103DC00020EA010040F04070E1EE100A7047000068
:103DD0000100010140000000800A0020800E002048
:103DE000000F002000000000000000000000005F45
:103DF00000000007000700147F147F14242A7F2A84
:103E0000122313086462364955225000050300004E
:103E1000001C2241000041221C0014083E08140826
:103E2000083E080800503000000808080808006034
:103E300060000020100804023E5149453E00427FC8
:103E4000400042615149462141454B311814127FCF
:103E50001027454545393C4A494930017109050358
:103E60003649494936064949291E003636000000C0
:103E70005636000008142241001414141414004192
:103E80002214080201510906324979413E7E11117E
:103E9000117E7F494949363E414141227F414122BD
:103EA0001C7F494949417F090909013E4149497A35
:103EB0007F0808087F00417F41002040413F017F8B
:103EC000081422417F404040407F020C027F7F0463
:103ED00008107F3E4141413E7F090909063E41519C
:103EE000215E7F09192946464949493101017F016F
:103EF000013F4040403F1F2040201F3F4038403F8F
:103F000063140814630708700807615149454300AA
:103F10007F41410002040810200041417F0004025B
:103F2000010204404040404000010204002054547B
:103F300054787F4844443838444444203844444802
:103F40007F3854545418087E0901020C5252523ED4
:103F50007F0804047800447D40002040443D007FF9
:103F60001028440000417F40007C041804787C083D
:103F700004047838444444387C1414140808141495
:103F8000187C7C080404084854545420043F4440DE
:103F9000203C4040207C1C2040201C3C4030403CC9
:103FA00044281028440C5050503C4464544C440065
:103FB0000836410000007F00000041360800080478
:103FC000081008060F0F0660F0F0600F0F0F0FF0DB
:103FD000F0F0F00F0F0F0FF0F0F0F0000F000FF007
:103FE00000F00006090906005041555345442020C1
:103FF0002020202020202020005374617274696EDC
:10400000672E2E2E20202020200043414C49425272
:104010004154494E472E2E2E202000426573743A9B
:1040200020200053636F72653A200047726F7570ED
:10403000200043616C696272617465642100202014
:1040400053746172742028427574746F6E73290002
:1040500020205374617274202854696C7429002ED6
:10406000004D454D42455220310031303030303026
:104070003031003230323430303031004D454D4235
:104080004552203200313030303030303200323062
:10409000323430303032004D454D424552203300ED
:1040A0003130303030303033003230323430303034
:1040B0003300483A00204C3A00503A00523A004748
:1040C000414D454F56455220533A0054656D706539
:1040D0007261747572653A003D3D3D205041555303
:1040E0004544203D3D3D003D3D3D20534E414B4527
:1040F0002047414D45203D3D3D003D3D3D20474150
:104100004D45204F564552203D3D3D003E00430069
:10411000486F6C6420626F617264204C4556454C58
:104120000043414C4942524154494F4E00202043E4
:10413000616C696272617465204D505500526F6CFC
:104140006C2F5069746368207361766564004B332B
:104150003A20526573756D65005072657373204B1C
:104160003320746F2073617665004B312F4B323AE8
:104170004E6176204B333A53656C00507265737311
:10418000204B3420746F2063616E63656C004B3389
:104190003A2052657374617274004B343A204D6555
:1041A0006E75000000420008000000204000000082
:1041B000F80100084042000840000020E814000018
:1041C00018020008000000000000000000000000CD
:1041D00000000000000000000000000000000000DF
:1041E00000000000000000000000000000000000CF
:1041F00000000000000000000000000000000000BF
:10420000FF00000005000100040001000A00010099
:10421000080000000024F400734000088E400008ED
:10422000A9400008614000087C4000089740000851
:104230006A40000885400008A04000080000000017
:040000050800019559
:00000001FF
