:020000040800F2
:100000002815002061020008690200086B02000840
:100010006D0200086F020008710200080000000075
:100020000000000000000000000000007302000853
:10003000750200080000000077020008F93400088B
:100040007B0200087B0200087B0200087B0200089C
:100050007B0200087B020008A9130008B114000805
:1000600035150008B91500083D1600087B02000888
:100070007B0200087B0200087B0200087B0200086C
:100080007B0200087B0200087B02000800000000E1
:10009000000000000000000000000000C116000881
:1000A0007B0200087B0200087B0200087B0200083C
:1000B000293500087B0200087B0200087B0200084B
:1000C0007B0200087B0200087B0200087B0200081C
:1000D0007B0200087B020008D53500080000000004
:1000E0002D1400087B0200087B02000800000000BD
:1000F0000000000000000000000000007B0200087B
:10010000000000007B0200087B0200087B02000860
:1001100000000000000000000000000000000000DF
:100120007B0200087B0200087B0200087B020008BB
:100130007B0200080000000000000000000000003A
:100140000000000000000000000000007B0200082A
:100150007B0200087B0200087B0200087B0200088B
:100160007B0200087B020008000000000000000085
:10017000000000000000000000000000000000007F
:10018000000000007B0200080000000000000000EA
:100190007B02000800F002F800F052F814A696E87E
:1001A000000CB244B344DA4501D100F049F8BAE892
:1001B0000F000FA696E83000A5EB040504EB060738
:1001C000AAEB0704A7F101074FEA15154FEA34140B
:1001D000A4F10104AC4201D300F032F813F0010F96
:1001E00018BFFB1A43F0010300F001F8DBE71847E2
:1001F000C0440000E0440000103A24BF78C878C131
:10020000FAD8520724BF30C830C144BF04680C601C
:1002100070470000704700000023002400250026DE
:10022000103A28BF78C1FBD8520728BF30C148BF59
:100230000B6070471FB504F03BF81FBD10B510BD33
:1002400000F08EF81146FFF7F5FF03F043FE00F0D3
:10025000ACF803B4FFF7F2FF03BC00F0AFF8000006
:100260000948804709480047FEE7FEE7FEE7FEE74A
:10027000FEE7FEE7FEE7FEE7FEE7FEE70448054986
:10028000054A064B70470000093500089501000833
:10029000280F0020281500202811002028110020F8
:1002A0004FF000020429C0F0128010F0030C00F09F
:1002B0001B80CCF1040CBCF1020F18BF00F8012B1D
:1002C000A8BF20F8022BA1EB0C0100F00DB85FEAEB
:1002D000C17C24BF00F8012B00F8012B48BF00F8B7
:1002E000012B70474FF0000200B513469446964626
:1002F000203922BFA0E80C50A0E80C50B1F1200139
:10030000BFF4F7AF090728BFA0E80C5048BF0CC0E6
:100310005DF804EB890028BF40F8042B08BF704744
:1003200048BF20F8022B11F0804F18BF00F8012BB6
:10033000704770477047704710B500F009F80068C3
:1003400010BD10B5044600F003F8046010BD0000B5
:1003500000487047400000200048704740000020DF
:100360007546FFF7F9FFAE4605006946534620F093
:100370000700854618B020B5FFF780FFBDE8204094
:100380004FF000064FF000074FF000084FF0000B51
:10039000AC46ACE8C009ACE8C009ACE8C009ACE8C0
:1003A000C00921F007018D46704710B50446AFF330
:1003B00000802046BDE81040FFF74BBF01491820E0
:1003C000ABBEFEE7260002007047000080B582B099
:1003D0000190019808B9FFE75BE0019900200090C7
:1003E0000870019981F84001019981F8480101994B
:1003F000C1F844010199A1F84A01019981F84C0121
:1004000040F64C21C2F200010A68019BC3F850215A
:100410000A68019BC3F854210A68019BC3F858215C
:100420000A68019BC3F85C210A68019BC3F860213C
:100430000A68019BC3F864210968019AC2F868112F
:100440000199A1F86C010199A1F86E010199A1F837
:1004500070010199A1F872010199A1F87401019943
:10046000A1F87601019981F87801019981F8790163
:100470000198023002F0DAFA019800F5967001F066
:10048000D5FA03F01BF801F019FF019981F8780102
:10049000FFE702B080BD000080B59CB01B901B98A8
:1004A00010B9FFE700F0C7BC40F64C20C2F20000D4
:1004B00000681A901A981B99D1F85011401A189098
:1004C0001B9802F077FA1B980078014609910528DD
:1004D00000F2B1840999DFE811F006002D0117023E
:1004E000F802D50342041B9890F84C0140F2000139
:1004F000C2F200010978884200F0BD80FFE71B9836
:1005000090F84C0140F20001C2F2000108701B9803
:1005100090F84C01A8B9FFE701F0D6FE03200021B6
:1005200001F0D6FF44F23750C0F6000001F0BEFFE4
:10053000012017A9089103F031FB089801F0B6FFDC
:1005400098E01B9890F84C0101388DF85B009DF8FD
:100550005B0002282ED8FFE701F0B6FE0120002143
:10056000079101F0B5FF9DF85B1040F22400C2F244
:10057000000050F8210001F099FF0799032001F0D5
:10058000A7FF9DF85B1040F21800C2F2000050F87F
:10059000210001F08BFF0799052001F099FF9DF8DC
:1005A0005B1040F23000C2F2000050F8210001F070
:1005B0007DFF5EE09DF85B00032859D1FFE701F065
:1005C00083FE0021084601F083FF44F2D750C0F6B5
:1005D000000001F06BFF1B98D0F8440146F2676100
:1005E000C6F2666150FB01F2901000EBD2701290DF
:1005F0001B98D0F8440150FB01F2911001EBD2712D
:1006000001EB8101A0EB410011901198B0F1FF3F87
:1006100004DCFFE7119840421190FFE703201E2100
:1006200001F056FF12980DF14F01069103F0B6FA52
:10063000069801F03BFF44F26B50C0F6000001F059
:1006400035FF0699119803F0A9FA069801F02EFFDC
:1006500044F2EF40C0F6000001F0DAFE44F21A6006
:10066000C0F6000001F022FF1B9802F0F9FFFFE73F
:10067000FFE7FFE7FFE71B9890F84C0178B9FFE729
:100680001898B0F57A7F09D3FFE71B99012081F80C
:100690004C011A981B99C1F85001FFE749E01B98DB
:1006A00090F84C0101388DF843009DF84300022872
:1006B00011D8FFE71898B0F57A7F0BD3FFE71B99A5
:1006C00091F84C01013081F84C011A981B99C1F83E
:1006D0005001FFE72CE09DF84300032811D1FFE70C
:1006E0001898B0F5FA6F0BD3FFE71B9991F84C01FE
:1006F000013081F84C011A981B99C1F85001FFE7AD
:1007000015E001F0E1FD1B99012008701A981B9972
:10071000C1F850011B99002081F848011B9890F8FE
:10072000480100F05BFD1B9802F09AFFFFE7FFE72E
:10073000FFE780E31A981B99D1F85811401A142842
:10074000C0F0D080FFE740F2A500C2F2000040F206
:10075000A601C2F2000140F2A702C2F2000240F27A
:10076000A803C2F2000302F06DF88DF867001A9832
:100770001B99C1F858019DF86700C007F8B1FFE761
:100780001B9890F848018DF842001B9890F848019A
:10079000012807DBFFE71B9991F84801013881F830
:1007A000480104E01B99022081F84801FFE79DF809
:1007B00042001B9991F8481100F058FDFFE79DF8A1
:1007C0006700800700281FD5FFE71B9890F84801B5
:1007D0008DF841001B9890F84801012807DCFFE7DD
:1007E0001B9991F84801013081F8480104E01B99F8
:1007F000002081F84801FFE79DF841001B9991F81E
:10080000481100F033FDFFE79DF86700400700281E
:1008100067D5FFE71B9890F848010146059140B164
:10082000FFE70598012820D0FFE7059802284AD065
:1008300053E01B99002081F840011B98023002F020
:10084000F5F802F04FFE01F03FFD1B98023002F078
:1008500085FD1B99032008701A981B99C1F8500157
:100860001A981B99C1F85C0137E01B9890F83D017C
:1008700050B9FFE71B99022008701A981B99C1F81C
:10088000500100F0D9FB1DE01B99012081F84001C7
:100890001B98023002F0CAF802F024FE01F014FDA9
:1008A00002F0D4FD1B98023002F058FD1B99032082
:1008B00008701A981B99C1F850011A981B99C1F831
:1008C0005C01FFE709E01B99022008701A981B9948
:1008D000C1F8500100F0B0FBFFE71B9802F0C0FE2A
:1008E000FFE7FFE71A981B99D1F86411401AB0F599
:1008F000FA7F08D3FFE71B9802F0B2FE1A981B9903
:10090000C1F86401FFE796E21A981B99D1F85411D7
:10091000401A142854D3FFE71B9802F033F81A98B2
:100920001B99C1F854011B99B1F96E01B1F970110D
:1009300001F060F88DED0F0A1B9AB2F96C01B2F963
:100940006E11B2F9702101F00FF88DED0E0A012041
:100950005A21029101F0BCFD44F2C850C0F60000DB
:1009600001F0A4FD9DED0F0ABDEEC00A10EE100AC5
:100970000BA9039103F012F9039801F097FD44F2DB
:100980002C50C0F60000049001F090FD0299022066
:1009900001F09EFD44F2C550C0F6000001F086FD56
:1009A00003999DED0E0ABDEEC00A10EE100A03F089
:1009B000F5F8039801F07AFD049801F077FDFFE760
:1009C0001A981B99D1F85811401A14286BD3FFE7D5
:1009D00040F2A500C2F2000040F2A601C2F20001FE
:1009E00040F2A702C2F2000240F2A803C2F20003E2
:1009F00001F028FF8DF867001A981B99C1F858017B
:100A00009DF867004007002836D5FFE71B9B03F5DC
:100A10009670B3F96C11B3F96E21B3F9703100F02F
:100A20006BFF01F051FC03200021019101F050FD0A
:100A300044F23E50C0F6000001F038FD0199042058
:100A400001F046FD44F24960C0F6000001F02EFDC1
:100A50004FF47A7002F046FF1B99012008701A9833
:100A60001B99C1F850011B9890F8480100F0B6FBA3
:100A70001B9802F0F5FDFFE79DF8670000070028CE
:100A800010D5FFE71B99012008701A981B99C1F82F
:100A900050011B9890F8480100F0A0FB1B9802F051
:100AA000DFFDFFE7FFE71A981B99D1F86411401AA0
:100AB000B0F5FA7F08D3FFE71B9802F0D1FD1A9832
:100AC0001B99C1F86401FFE7B5E11A981B99D1F8A9
:100AD0005411401A142808D3FFE71B9801F052FF65
:100AE0001A981B99C1F85401FFE71A981B99D1F87D
:100AF0005811401A142869D3FFE740F2A500C2F24A
:100B0000000040F2A601C2F2000140F2A702C2F2C8
:100B1000000240F2A803C2F2000301F093FE8DF838
:100B2000670001F0F9FE8DF866001A981B99C1F86C
:100B300058019DF866000007002834D5FFE740F211
:100B4000A400C2F20000007868B9FFE71A9840F2EA
:100B5000A001C2F20001086040F2A401C2F200014B
:100B6000012008701EE01A9840F2A001C2F20001B4
:100B70000968401AB0F5FA7F13D3FFE740F2A401E9
:100B8000C2F20001002008701B99042008701A9816
:100B90001B99C1F8500100F08DFB1B9802F060FD1D
:100BA00049E1FFE706E040F2A401C2F200010020A3
:100BB0000870FFE71B9890F8400130B9FFE71B98D9
:100BC0009DF8661001F0E2FDFFE7FFE71B9890F843
:100BD000400101280DD1FFE71A981B99D1F8541153
:100BE000401A132804D8FFE71B9801F009FEFFE71D
:100BF000FFE71B98023001F0F9FE0A901A981B9942
:100C0000D1F85C11401A0A99884229D3FFE71B9852
:100C1000023002F041FA1B98023002F09FFB1A9852
:100C20001B99C1F85C011B9890F8D900B8B1FFE797
:100C30001B99B1F8D400A1F84A011B99052008704E
:100C40001A981B99C1F850011B99B1F8D400B1F85A
:100C5000D61000F075FA1B9802F002FDEBE0FFE7FA
:100C60001A981B99D1F86411401AB0F5FA7F08D38D
:100C7000FFE71B9802F0F4FC1A981B99C1F8640175
:100C8000FFE7D8E01A981B99D1F85811401A142898
:100C900053D3FFE740F2A500C2F2000040F2A601E4
:100CA000C2F2000140F2A702C2F2000240F2A80321
:100CB000C2F2000301F0C6FD8DF867001A981B9977
:100CC000C1F858019DF867004007002819D5FFE7D3
:100CD00002F008FC01F0F8FA02F0B8FB1B980230B1
:100CE00002F03CFB1B99032008701A981B99C1F86D
:100CF00050011A981B99C1F85C011B9802F0B0FCD6
:100D0000FFE79DF867000007002815D5FFE71B994E
:100D1000012008701A981B99C1F850011B99B1F86D
:100D2000D400A1F84A011B9890F8480100F056FA47
:100D30001B9802F095FCFFE7FFE71A981B99D1F882
:100D40006411401AB0F5FA7F08D3FFE71B9802F050
:100D500087FC1A981B99C1F86401FFE76BE01A98A9
:100D60001B99D1F85811401A142852D3FFE740F2CA
:100D7000A500C2F2000040F2A601C2F2000140F25A
:100D8000A702C2F2000240F2A803C2F2000301F07F
:100D900059FD8DF867001A981B99C1F858019DF804
:100DA0006700400700281DD5FFE71B98023001F0BF
:100DB0003DFE02F097FB01F087FA02F047FB1B981B
:100DC000023002F0CBFA1B99032008701A981B9985
:100DD000C1F850011A981B99C1F85C011B9802F0E8
:100DE0003FFCFFE79DF867000007002810D5FFE7EC
:100DF0001B99012008701A981B99C1F850011B9883
:100E000090F8480100F0EAF91B9802F029FCFFE78E
:100E1000FFE71A981B99D1F86411401AB0F5FA7FD0
:100E200008D3FFE71B9802F01BFC1A981B99C1F826
:100E30006401FFE7FFE71CB080BD000040F6100032
:100E4000C4F20200006800F40071012080EA512021
:100E50007047000040F61000C4F20200006800F085
:100E60002001012080EA51107047000040F6100078
:100E7000C4F20200006800F04001012080EA9110F5
:100E80007047000040F61000C4F20200006800F451
:100E90008071012080EA11207047000043F6300184
:100EA000C4F20201086840F00400086040F6000146
:100EB000C4F2020108684CF2FF32CFF6F072104023
:100EC000086040F60C01C4F2020108681040086096
:100ED000086841F20042C0F2050210430860704702
:100EE00080B582B001F096FBCC2001F0D5FBBE208E
:100EF00001F0D2FB01F062FB8DF8030001F05EFB14
:100F00008DF802009DF802109DF8030040EA0120D0
:100F1000ADF800009DF8020060B1FFE79DF8020007
:100F2000FF2807D0FFE740F2C800C2F200000068C7
:100F3000019017E0BDF9000010F16E0F05DBFFE72F
:100F4000BDF90000FB2807DBFFE740F2C800C2F252
:100F500000000068019005E0BDF9000000EB800092
:100F60000190FFE7019802B080BD000080B501F05C
:100F700051FB60B9FFE740F2C401C2F2000100205A
:100F8000087040F2C501C2F20001087019E0CC20DF
:100F900001F082FB442001F07FFB40F2C401C2F269
:100FA00000010120087040F2C501C2F200010020DA
:100FB000087040F2CC01C2F200014FF47A70088050
:100FC000FFE780BD40F2C400C2F20000007800B329
:100FD000FFE740F2CC00C2F200000088012818DBD5
:100FE000FFE740F2CC00C2F2000001880139018025
:100FF000008868B9FFE740F2C501C2F20001012094
:10100000087040F2C401C2F2000100200870FFE73E
:10101000FFE770474EF6FC51CEF20001086840F041
:101020008070086041F20001CEF20001086840F0D3
:10103000010008607047000080B582B001F044F9FB
:1010400001200021019101F043FA44F22D60C0F625
:10105000000001F02BFA0199032001F039FA44F263
:101060001C60C0F6000001F021FA0199042001F093
:101070002FFA44F26560C0F6000001F017FA0199FA
:10108000052001F025FA44F28760C0F6000001F067
:101090000DFA02B080BD000080B582B08DF8070067
:1010A0008DF806109DF807009DF806104FEAC17CE8
:1010B00044F2C343C0F6000344F2BF42C0F600024C
:1010C000BCF1000F18BF1A4600F0E2FB02B080BD71
:1010D00080B582B08DF807008DF806109DF80700E6
:1010E0009DF806104FEAC17C44F2CB43C0F60003E2
:1010F00044F2C742C0F60002BCF1000F18BF1A4606
:1011000000F0C6FB02B080BD80B582B08DF807004C
:101110008DF806109DF807009DF806104FEAC17C77
:1011200044F2D343C0F6000344F2CF42C0F60002BB
:10113000BCF1000F18BF1A4600F0AAFB02B080BD38
:1011400080B586B0ADF81600ADF8141001F0BCF80B
:1011500001200021019101F0BBF944F20660C0F6C4
:10116000000001F0A3F90199032001F0B1F944F264
:101170002F50C0F6000001F099F9BDF8160002A941
:10118000009102F00BFD009801F090F90199042004
:1011900001F09EF944F22750C0F6000001F086F9F4
:1011A0000099BDF8140002F0F9FC009801F07EF9F6
:1011B0000199062001F08CF944F29A60C0F6000013
:1011C00001F074F90199072001F082F944F2A66058
:1011D000C0F6000001F06AF906B080BD80B582B0AB
:1011E0008DF8070001F070F800210091084601F029
:1011F0006FF944F2F350C0F6000001F057F900997E
:10120000022001F065F944F24A50C0F6000001F0F6
:101210004DF90099032001F05BF944F25C50C0F6EF
:10122000000001F043F90099042001F051F944F263
:101230003960C0F6000001F039F90099072001F08B
:1012400047F944F27660C0F6000001F02FF90099EA
:101250009DF807000230C0B201F03AF944F218607C
:10126000C0F6000001F022F902B080BD80B582B066
:101270008DF807008DF806109DF807000230C0B207
:101280000021009101F024F944F23C50C0F6000026
:1012900001F00CF900999DF806000230C0B201F08F
:1012A00017F944F21860C0F6000001F0FFF802B030
:1012B00080BD000080B582B001F006F80220002158
:1012C000019101F005F944F2E450C0F6000001F08C
:1012D000EDF80199042001F0FBF844F25A60C0F6E1
:1012E000000001F0E3F80199052001F0F1F844F263
:1012F000A660C0F6000001F0D9F802B080BD000081
:1013000080B582B08DF807008DF806109DF80700B3
:101310009DF806104FEAC17C44F2E343C0F6000397
:1013200044F2DF42C0F60002BCF1000F18BF1A46BB
:1013300000F0AEFA02B080BD80B582B08DF8070033
:101340008DF806109DF807009DF806104FEAC17C45
:1013500044F2DB43C0F6000344F2D742C0F6000279
:10136000BCF1000F18BF1A4600F092FA02B080BD1F
:1013700080B582B08DF807008DF806109DF8070043
:101380009DF806104FEAC17C44F2EB43C0F600031F
:1013900044F2E742C0F60002BCF1000F18BF1A4643
:1013A00000F076FA02B080BD80B584B040F2B4009F
:1013B000C2F2000001680020C4F2020000EB8120AC
:1013C000039043F61440C4F201000190006840F21B
:1013D000B001C2F2000102910968C84000F00100AA
:1013E00040F2B801C2F200010860062002F010FAD3
:1013F000019A02990B68012000FA03F31068184360
:101400001060039800690968C840C00760B1FFE731
:1014100040F2AC00C2F20000016840F2B000C2F23B
:10142000000000688847FFE704B080BD80B584B045
:1014300040F2B400C2F2000001680020C4F20200D1
:1014400000EB8120039043F61440C4F201000190A8
:10145000006840F2B001C2F2000102910968C84080
:1014600000F0010040F2B801C2F20001086028203B
:1014700002F0CEF9019A02990B68012000FA03F3F9
:10148000106818431060039800690968C840C007D5
:1014900060B1FFE740F2AC00C2F20000016840F228
:1014A000B000C2F2000000688847FFE704B080BDCA
:1014B00080B584B040F2B400C2F2000001680020A0
:1014C000C4F2020000EB8120039043F61440C4F202
:1014D00001000190006840F2B001C2F200010291E7
:1014E0000968C84000F0010040F2B801C2F20001F2
:1014F0000860072002F08CF9019A02990B6801201C
:1015000000FA03F310681843106003980069096833
:10151000C840C00760B1FFE740F2AC00C2F2000073
:10152000016840F2B000C2F2000000688847FFE79F
:1015300004B080BD80B584B040F2B400C2F20000B7
:1015400001680020C4F2020000EB8120039043F602
:101550001440C4F201000190006840F2B001C2F2F0
:10156000000102910968C84000F0010040F2B80192
:10157000C2F200010860082002F04AF9019A0299BB
:101580000B68012000FA03F31068184310600398F9
:1015900000690968C840C00760B1FFE740F2AC00CD
:1015A000C2F20000016840F2B000C2F20000006820
:1015B0008847FFE704B080BD80B584B040F2B40036
:1015C000C2F2000001680020C4F2020000EB81209A
:1015D000039043F61440C4F201000190006840F209
:1015E000B001C2F2000102910968C84000F0010098
:1015F00040F2B801C2F200010860092002F008F9C7
:10160000019A02990B68012000FA03F3106818434D
:101610001060039800690968C840C00760B1FFE71F
:1016200040F2AC00C2F20000016840F2B000C2F229
:10163000000000688847FFE704B080BD80B584B033
:1016400040F2B400C2F2000001680020C4F20200BF
:1016500000EB8120039043F61440C4F20100019096
:10166000006840F2B001C2F2000102910968C8406E
:1016700000F0010040F2B801C2F2000108600A2047
:1016800002F0C6F8019A02990B68012000FA03F3F0
:10169000106818431060039800690968C840C007C3
:1016A00060B1FFE740F2AC00C2F20000016840F216
:1016B000B000C2F2000000688847FFE704B080BDB8
:1016C00080B584B040F2B400C2F20000016800208E
:1016D000C4F2020000EB8120039043F61440C4F2F0
:1016E00001000190006840F2B001C2F200010291D5
:1016F0000968C84000F0010040F2B801C2F20001E0
:101700000860172002F084F8019A02990B68012002
:1017100000FA03F310681843106003980069096821
:10172000C840C00760B1FFE740F2AC00C2F2000061
:10173000016840F2B000C2F2000000688847FFE78D
:1017400004B080BD80B582B000208DF80700FFE7AF
:101750009DF807000F2800F29980FFE700208DF820
:101760000600FFE79DF806001F2800F28880FFE7CB
:101770009DF8070040088DF805009DF806008000E0
:101780008DF804009DF805109DF8040000EBC110D1
:10179000ADF8020000208DF800008DF80100FFE791
:1017A0009DF8010003281DD8FFE7BDF802009DF851
:1017B0000110421840F2CE00C2F20000805C40F2FC
:1017C000CE41C2F20001895C884204D0FFE70120CB
:1017D0008DF8000006E0FFE79DF8010001308DF86C
:1017E0000100DDE79DF8000008B9FFE741E09DF842
:1017F00005009DF8041000F06BFE00208DF801003C
:10180000FFE79DF80100032813D8FFE7BDF80200A9
:101810009DF80110014440F2CE00C2F20000405C8D
:1018200000F08CFDFFE79DF8010001308DF801000C
:10183000E7E700208DF80100FFE79DF8010003288D
:1018400016D8FFE7BDF802009DF80110421840F2DB
:10185000CE00C2F20000805C40F2CE41C2F2000134
:101860008854FFE79DF8010001308DF80100E4E79E
:10187000FFE79DF8060001308DF8060072E7FFE7EC
:101880009DF8070001308DF8070061E702B080BDC8
:1018900083B08DF80B008DF80A1001929DF80A00B4
:1018A00040088DF803009DF80B0080008DF80200C1
:1018B00000208DF80100FFE79DF80100032819D8EA
:1018C000FFE701989DF80110435C9DF803209DF807
:1018D000020000EBC210421840F2CE01C2F2000139
:1018E000885C18438854FFE79DF8010001308DF8AB
:1018F0000100E1E703B0704780B586B00590ADF810
:101900001210ADF81020ADF80E30059808B9FFE7B9
:1019100027E0BDF91000BDF90E1000F06BF88DED59
:10192000020ABDF91200BDF91010BDF90E2000F039
:101930001BF88DED010A0298059908600198059938
:1019400048600598002181600598C160059A0320D0
:101950001074059A91740599C8740599012048740A
:10196000FFE706B080BD000080B584B0ADF80A0086
:10197000ADF80810ADF80620BDF9080000EE100A19
:10198000B8EEC00ABDF9060001EE100AB8EEC11AA1
:1019900021EE011A20EE000A30EE010A02F060FC8E
:1019A0008DED000A9DED000A9FED101AB4EE410A7C
:1019B000F1EE10FA03DAFFE70020039011E0BDF921
:1019C0000A00404200EE100AB8EEC00ADDED000A3F
:1019D00002F0F0FA9FED061A20EE010A8DED030ADF
:1019E000FFE79DED030A04B080BD00BF0AD7233C8A
:1019F000E02E654280B582B0ADF80600ADF8041067
:101A0000BDF9060000EE100AB8EEC00ABDF90400E8
:101A100001EE100AF8EEC10A02F0CCFA9FED021AAC
:101A200020EE010A02B080BDE02E654281B0009038
:101A3000009808B9FFE712E00098002101600098C3
:101A40004160009881600098C160009A0320107482
:101A5000009A5174009A91740099C874FFE701B01C
:101A60007047000080B58CB00DF1080CCDF800C0B7
:101A70000A90ADF82610ADF82420ADF822300A986F
:101A800020B9FFE703208DF82F00F5E00A98407C8D
:101A900028B9FFE70A98007C8DF82F00ECE0BDF92B
:101AA0002400BDF92210FFF7A5FF009880ED050A7C
:101AB000BDF92600BDF92410BDF92220FFF754FF1F
:101AC000009880ED040A90ED050A0A9991ED001A3C
:101AD00030EE410A80ED030A90ED040A0A9991ED77
:101AE000011A30EE410A80ED020A90ED030A0A99CC
:101AF00091ED021A9FED623A21EE031A9FED612AE1
:101B000020EE020A30EE010A81ED020A90ED020A8F
:101B10000A9991ED031A21EE031A20EE020A30EE23
:101B2000010A81ED030A0A99896803910A99C96833
:101B3000029190ED010AB5EE400AF1EE10FA08DAD2
:101B4000FFE7009890ED010AB1EE400A80ED010A2E
:101B5000FFE7009890ED000AB5EE400AF1EE10FAAA
:101B600008DAFFE7009890ED000AB1EE400A80ED38
:101B7000000AFFE7009890ED010AB2EE0E1AB4EEEB
:101B8000410AF1EE10FA16DAFFE7009890ED000A2C
:101B9000B2EE0E1AB4EE410AF1EE10FA0BDAFFE7DC
:101BA0000A99002088740A99087CC8740A98007CF5
:101BB0008DF82F0060E0009890ED000A90ED011A7A
:101BC000B4EE410AF1EE10FA14DDFFE70A9890ED49
:101BD000030AB2EE0E1AB4EE410AF1EE10FA04DD79
:101BE000FFE700208DF8070003E001208DF80700D3
:101BF000FFE713E00A9890ED020AB2EE0E1AB4EE77
:101C0000410AF1EE10FA04DDFFE703208DF807002A
:101C100003E002208DF80700FFE7FFE79DF80700CB
:101C20000A99C97C88421AD1FFE70A99887C013059
:101C300088740A98807C032810D3FFE79DF807007A
:101C40000A99097C884205D0FFE79DF807000A99A8
:101C50000874FFE70A9903208874FFE707E09DF8FE
:101C600007000A99C8740A9901208874FFE70A9846
:101C7000007C8DF82F00FFE79DF82F000CB080BD91
:101C80009A99593F9A99193E43F63001C4F20201DC
:101C9000086840F00200086043F64001C4F2020107
:101CA000086840F40010086040F20041C4F20201EC
:101CB000086820F470200860086840F4202008605C
:101CC00040F20441C4F20201086840F44070086028
:101CD00040F20C41C4F20201086820F47020086050
:101CE000086840F4A020086040F20841C4F20201F4
:101CF000086840F47020086040F22441C4F20201F8
:101D0000086820F0FF000860086840F044000860A0
:101D100045F20041C4F20001086840F40040086048
:101D2000086820F40040086045F20442C4F2000252
:101D30001020106045F21C42C4F2000250201060D6
:101D400045F22042C4F2000211201060086840F001
:101D5000010008607047000082B08DF807008DF820
:101D60000610FFE745F21840C4F200000068800743
:101D7000002801D5FFE7F5E745F20041C4F2000174
:101D8000086840F480700860FFE745F21440C4F230
:101D900000000068C00708B9FFE7F6E79DF80700F4
:101DA000400045F21041C4F200010860FFE745F22F
:101DB0001440C4F2000000688007002801D4FFE747
:101DC000F5E745F21840C4F2000000680090009862
:101DD000FFE745F21440C4F2000000680006002846
:101DE00001D4FFE7F5E79DF8060045F21041C4F283
:101DF00000010860FFE745F21440C4F200000068EB
:101E00000006002801D4FFE7F5E745F20041C4F2DF
:101E10000001086840F480700860FFE745F2144054
:101E2000C4F200000068C00708B9FFE7F6E79DF8B4
:101E300007004000013045F21041C4F20001086083
:101E4000FFE745F21440C4F2000000688007002854
:101E500001D4FFE7F5E745F20041C4F2000108684C
:101E600020F48060086045F21840C4F20000006869
:101E700000900098086840F400700860FFE745F2A1
:101E80001440C4F2000000684006002801D4FFE7B7
:101E9000F5E745F21040C4F2000000688DF8050037
:101EA0009DF8050002B0704782B08DF807008DF8EC
:101EB00006108DF80520FFE745F21840C4F2000037
:101EC00000688007002801D5FFE7F5E745F20041EB
:101ED000C4F20001086840F480700860FFE745F232
:101EE0001440C4F200000068C00708B9FFE7F6E735
:101EF0009DF80700400045F21041C4F2000108605F
:101F0000FFE745F21440C4F2000000688007002893
:101F100001D4FFE7F5E745F21840C4F2000000687D
:101F200000900098FFE745F21440C4F200000068FA
:101F30000006002801D4FFE7F5E79DF8060045F20A
:101F40001041C4F200010860FFE745F21440C4F2FA
:101F5000000000680006002801D4FFE7F5E79DF8BF
:101F6000050045F21041C4F200010860FFE745F2A8
:101F70001440C4F2000000684007002801D4FFE7C5
:101F8000F5E745F20041C4F20001086840F4007032
:101F9000086002B07047000082B08DF807008DF82D
:101FA00006108DF80520FFE745F21840C4F2000046
:101FB00000688007002801D5FFE7F5E745F20041FA
:101FC000C4F20001086840F480700860FFE745F241
:101FD0001440C4F200000068C00708B9FFE7F6E744
:101FE0009DF80700400045F21041C4F2000108606E
:101FF000FFE745F21440C4F20000006880070028A3
:1020000001D4FFE7F5E745F21840C4F2000000688C
:1020100000900098FFE745F21440C4F20000006809
:102020000006002801D4FFE7F5E79DF8060045F219
:102030001041C4F200010860FFE745F21440C4F209
:10204000000000680006002801D4FFE7F5E79DF8CE
:10205000050045F21041C4F200010860FFE745F2B7
:102060001440C4F2000000684007002801D4FFE7D4
:10207000F5E745F20041C4F20001086840F4007041
:10208000086002B07047000083B001908DF8031023
:102090008DF802209DF80300019991F8CB10884239
:1020A0000CD1FFE79DF80200019991F8CC1088420D
:1020B00004D1FFE701208DF80B002BE09DF8030011
:1020C000019991F8CD1088420CD1FFE79DF80200EC
:1020D000019991F8CE10884204D1FFE701208DF8D4
:1020E0000B0017E09DF80300019991F8CF1088428A
:1020F0000CD1FFE79DF80200019991F8D0108842B9
:1021000004D1FFE701208DF80B0003E000208DF8DB
:102110000B00FFE79DF80B0003B0704783B0019000
:102120008DF803108DF8022000208DF80100FFE7E4
:102130009DF80100019991F8C81088421FDAFFE765
:1021400001989DF80110405C9DF8031088420FD162
:10215000FFE701989DF80110084490F864009DF88D
:102160000210884204D1FFE701208DF80B000AE03D
:10217000FFE79DF8010001308DF80100D8E700204D
:102180008DF80B00FFE79DF80B0003B070470000CF
:1021900080B588B007900691079846F26761C6F24D
:1021A000666150FB01F2901000EBD270029007982C
:1021B00050FB01F2911001EBD27101EB8101A0EB18
:1021C000410001900198B0F1FF3F04DCFFE7019866
:1021D00040420190FFE7029803A9009101F0DEFC64
:1021E0000699002001F01CFE009801F0A9FD44F2C0
:1021F0006B50C0F6000001F0A3FD0099019801F0BA
:10220000CDFC009801F09CFD432001F0BDFD08B01D
:1022100080BD000080B568206B210022FFF7BCFE66
:1022200080BD000080B582B08DF807009DF80710D2
:1022300068200090FFF790FD014600988DF8061089
:102240009DF807100131C9B2FFF786FD8DF8050032
:102250009DF806109DF8050040EA012000B202B08A
:1022600080BD000080B584B00390029101923B20B4
:10227000FFF7D8FF039908803D20FFF7D3FF0299AD
:1022800008803F20FFF7CEFF0199088004B080BD91
:1022900080B584B00390029101924320FFF7C2FF02
:1022A000039908804520FFF7BDFF02990880472069
:1022B000FFF7B8FF0199088004B080BD80B56820A1
:1022C0007521FFF749FD80BD80B582B000208DF8F3
:1022D0000700FFE79DF80700072820DCFFE79DF8CF
:1022E00007000021009100F0F3F800988DF8060037
:1022F000FFE79DF806007F280ADCFFE7002000F0DA
:102300001DF8FFE79DF8060001308DF80600F0E7A4
:10231000FFE79DF8070001308DF80700DAE702B00B
:1023200080BD000080B582B08DF807009DF80720C1
:102330003C200021FFF7B8FD02B080BD80B582B01F
:102340008DF807009DF807203C204021FFF7ACFDE9
:1023500002B080BD80B582B0642001F0C3FAAE2027
:10236000FFF7E0FF20200190FFF7DCFF0020009046
:10237000FFF7D8FFB020FFF7D5FFC820FFF7D2FF47
:102380000098FFF7CFFF1020FFF7CCFF4020FFF7AA
:10239000C9FF8120FFF7C6FFFF20FFF7C3FFA12081
:1023A000FFF7C0FFA620FFF7BDFFA820FFF7BAFF89
:1023B0003F20FFF7B7FFA420FFF7B4FFD320FFF7BC
:1023C000B1FF0098FFF7AEFFD520FFF7ABFFF0207D
:1023D000FFF7A8FFD920FFF7A5FF2220FFF7A2FFF4
:1023E000DA20FFF79FFF1220FFF79CFFDB20FFF7AB
:1023F00099FF0198FFF796FF8D20FFF793FF1420B8
:10240000FFF790FFAF20FFF78DFF02B080BD000007
:1024100080B582B0019000200090FFE7009804286A
:102420000ADCFFE701980099405CFFF787FFFFE7B0
:10243000009801300090F1E70020FFF77FFF02B025
:1024400080BD000080B584B08DF80F009DF80F00AE
:10245000202805DBFFE79DF80F007F2804DBFFE75E
:1024600020208DF80F00FFE79DF80F0000EB8000A3
:1024700044F2E421C0F600010844A0380290002094
:102480000190FFE7019804280ADCFFE70298019910
:10249000405CFFF753FFFFE7019801300190F1E73F
:1024A0000020FFF74BFF04B080BD000080B582B074
:1024B0000190FFE70198007840B1FFE701980078AC
:1024C000FFF7C0FF019801300190F3E702B080BD33
:1024D00080B582B08DF807008DF806109DF80700D2
:1024E000B030C0B2FFF71EFF9DF8060000F00F00ED
:1024F000FFF718FF9DF8060000091030FFF712FFE4
:1025000002B080BD80B543F63001C4F20201086814
:1025100040F0010008600021C4F20201086820F0C8
:102520000C0008600421C4F20201086840F00200B7
:1025300008600C21C4F20201086820F00C00086059
:1025400000F00AF880BD00001821C4F202014FF427
:1025500000300860704700000021C4F202010868E2
:1025600020F00C00086070470021C4F202010868E6
:1025700020F00C000860086840F004000860704714
:1025800080B582B0FFF7F0FFFFF7DEFF022001F019
:10259000C1F900F03BF8142001F0BCF91020C4F29E
:1025A00002000068C0F340008DF80700322001F0FF
:1025B000B1F99DF8070002B080BD000080B582B07F
:1025C00000208DF807008DF80600FFE79DF8060053
:1025D000072816DCFFE7FFF7D3FF58B1FFE79DF8A8
:1025E0000610012000FA01F19DF8070008438DF85C
:1025F0000700FFE7FFE79DF8060001308DF80600B1
:10260000E4E79DF8070002B080BD000080B5FFF749
:10261000A3FF80BD80B582B0FFF7A6FF00F05AF897
:102620004FF4F07001F076F9FFF796FF502001F0BB
:1026300071F91020C4F20200006800F002010120CC
:1026400080EA51008DF807004FF4C87001F062F97C
:102650009DF8070002B080BD80B582B08DF80700FC
:10266000FFF782FFFFF770FF9DF8070048B1FFE713
:10267000062001F04FF9FFF76FFF402001F04AF903
:1026800008E03C2001F046F9FFF766FF0A2001F060
:1026900041F9FFE702B080BD80B582B08DF8070038
:1026A00000200090FFE70098072810DCFFE79DF866
:1026B000070000F00100FFF7CFFF9DF8070040087A
:1026C0008DF80700FFE7009801300090EBE702B0BB
:1026D00080BD00001821C4F202014FF400300860F0
:1026E0007047000082B0019000208DF803000D209B
:1026F0008DF80200FFE79DF8020012281BDCFFE7BF
:102700009DF8020001999DF80320114481F8D8003A
:1027100001989DF803100144052081F800019DF8FF
:10272000030001308DF80300FFE79DF8020001303F
:102730008DF80200DFE70D208DF80200FFE79DF81D
:10274000020012281BDCFFE79DF8020001999DF8AA
:102750000320114481F8D80001989DF8031001442A
:10276000062081F800019DF8030001308DF8030078
:10277000FFE79DF8020001308DF80200DFE79DF8C9
:102780000300019981F8280102B0704780B582B03A
:1027900001908DF803109DF80300C00730B1FFE7EA
:1027A00001980230002100F03DFC26E09DF8030076
:1027B0008007002806D5FFE701980230022100F0CB
:1027C00031FC19E09DF803004007002806D5FFE71B
:1027D00001980230032100F025FC0CE09DF8030075
:1027E0000007002806D5FFE701980230012100F01C
:1027F00019FCFFE7FFE7FFE7FFE702B080BD00003D
:1028000080B582B00190019B03F59670B3F96C110D
:10281000B3F96E21B3F97031FFF724F98DF8030095
:102820009DF80300019991F8CB10884207D0FFE78B
:10283000019802309DF8031000F0F4FBFFE702B0AE
:1028400080BD000080B586B005900491039202938C
:1028500000208DF80300FEF715FB8DF80700FEF74A
:1028600005FB8DF80600FEF7F5FA8DF80500FEF77A
:10287000E5FA8DF804009DF8070058B1FFE70598C8
:10288000007838B9FFE79DF8030040F001008DF8AB
:102890000300FFE79DF8060058B1FFE704980078B1
:1028A00038B9FFE79DF8030040F002008DF80300FF
:1028B000FFE79DF8050058B1FFE70398007838B9A5
:1028C000FFE79DF8030040F004008DF80300FFE7E8
:1028D0009DF8040058B1FFE70298007838B9FFE787
:1028E0009DF8030040F008008DF80300FFE79DF815
:1028F0000700059908709DF80600049908709DF876
:102900000500039908709DF80400029908709DF86D
:10291000030006B080BD000080B582B000208DF8B5
:102920000700FEF7AFFA38B1FFE79DF8070040F067
:1029300001008DF80700FFE7FEF798FA38B1FFE7CE
:102940009DF8070040F002008DF80700FFE7FEF752
:1029500081FA38B1FFE79DF8070040F004008DF8D8
:102960000700FFE7FEF76AFA38B1FFE79DF80700B6
:1029700040F008008DF80700FFE79DF8070002B05F
:1029800080BD000080B582B00190019A02F5B6705A
:1029900002F5B77102F5B872FFF764FC019A02F50F
:1029A000B97002F5BA7102F5BB72FFF771FC02B0A3
:1029B00080BD000080B582B0019040F2C500C2F237
:1029C0000000007880B1FFE7FEF78AFA40F2C80104
:1029D000C2F2000100910860FEF7C8FA0098006892
:1029E0000199C1F84401FFE702B080BD83B00190B6
:1029F000019890F8D60001460091012808D0FFE721
:102A00000098022807D0FFE70098032806D006E0C8
:102A1000B420029006E07820029003E0FFE7462011
:102A20000290FFE7029803B07047000080B582B0C3
:102A300001900199032081F8C800019A0F211170BB
:102A4000019A0A2182F86410019A117801395170B3
:102A5000019A92F8641082F86510019A117802398F
:102A60009170019A92F8641082F86610019981F8C9
:102A7000C900019981F8CA0001990020A1F8D2008B
:102A8000019A012182F8D610019981F8D7000198A6
:102A9000FFF728FE019800F0EBF9019800F090F89C
:102AA000019800F039F9019890F8C8008DF80300FA
:102AB000FFE79DF80300632812D8FFE701999DF80E
:102AC00003200020885401999DF80320114481F8C7
:102AD0006400FFE79DF8030001308DF80300E8E78C
:102AE00002B080BD80B584B002908DF807108DF8DB
:102AF00006209DF807009DF8061000F03BF820B96D
:102B0000FFE701208DF80F0030E000208DF8050070
:102B1000FFE79DF80500029991F82811884221DA13
:102B2000FFE702989DF80510084490F8D8009DF83A
:102B3000071088420FD1FFE702989DF8051008445E
:102B400090F800019DF80610884204D1FFE70120AB
:102B50008DF80F000AE0FFE79DF8050001308DF8C1
:102B60000500D6E700208DF80F00FFE79DF80F0065
:102B700004B080BD82B08DF807008DF806109DF876
:102B8000071000200090A9B1FFE79DF80710002072
:102B90001E2900900ED8FFE79DF806100020009037
:102BA00041B1FFE79DF8061000200F2938BF012032
:102BB0000090FFE7009800F0010002B070470000AD
:102BC00080B586B0059040F64C20C2F20000006847
:102BD000039000200290FFE70298B0F5FA6F52DAF6
:102BE000FFE703A8019001F0A5F90146019848F616
:102BF0008902C8F68802A1FB022323F00F02A2EB90
:102C00001312A1EB420101318DF8131001F092F97A
:102C1000410842F29342C9F24922A1FB02129108F3
:102C2000C900A1EB9201A0EB410001308DF8120028
:102C300005989DF813109DF81220FFF76FFAE8B978
:102C4000FFE705989DF813109DF81220FFF74AFF43
:102C5000A0B9FFE705989DF813109DF81220FFF723
:102C600013FA58B9FFE79DF81300059981F8CD00D4
:102C70009DF81200059981F8CE004AE0FFE702981E
:102C800001300290A8E701208DF81300FFE79DF8BE
:102C900013001E283DD8FFE701208DF81200FFE742
:102CA0009DF812000E282DD8FFE705989DF8131007
:102CB0009DF81220FFF732FAE8B9FFE705989DF872
:102CC00013109DF81220FFF70DFFA0B9FFE705983C
:102CD0009DF813109DF81220FFF7D6F958B9FFE7B9
:102CE0009DF81300059981F8CD009DF81200059913
:102CF00081F8CE000DE0FFE79DF8120001308DF85D
:102D00001200CDE7FFE79DF8130001308DF81300A6
:102D1000BDE706B080BD000080B586B0059040F6E6
:102D20004C20C2F200000068039000200290FFE7F0
:102D30000298B0F5FA6F52DAFFE703A8019001F0AC
:102D4000F9F80146019848F68902C8F68802A1FB05
:102D5000022323F00F02A2EB1312A1EB4201013177
:102D60008DF8131001F0E6F8410842F29342C9F2DF
:102D70004922A1FB02129108C900A1EB9201A0EB2C
:102D8000410001308DF8120005989DF813109DF850
:102D90001220FFF7C3F9E8B9FFE705989DF8131073
:102DA0009DF81220FFF79EFEA0B9FFE705989DF859
:102DB00013109DF81220FFF767F958B9FFE79DF847
:102DC0001300059981F8CF009DF81200059981F84C
:102DD000D0004AE0FFE7029801300290A8E7012006
:102DE0008DF81300FFE79DF813001E283DD8FFE77C
:102DF00001208DF81200FFE79DF812000E282DD853
:102E0000FFE705989DF813109DF81220FFF786F94B
:102E1000E8B9FFE705989DF813109DF81220FFF719
:102E200061FEA0B9FFE705989DF813109DF81220E8
:102E3000FFF72AF958B9FFE79DF81300059981F8C3
:102E4000CF009DF81200059981F8D0000DE0FFE752
:102E50009DF8120001308DF81200CDE7FFE79DF8D4
:102E6000130001308DF81300BDE706B080BD0000EF
:102E700080B586B0059040F64C20C2F20000006894
:102E8000039000200290FFE70298B0F5FA6F69DA2C
:102E9000FFE703A8019001F04DF80146019848F6BC
:102EA0008902C8F68802A1FB022323F00F02A2EBDD
:102EB0001312A1EB420101318DF8131001F03AF821
:102EC000410842F29342C9F24922A1FB0212910841
:102ED000C900A1EB9201A0EB410001308DF8120076
:102EE00005989DF813109DF81220FFF717F9A0BB65
:102EF000FFE705989DF813109DF81220FFF7F2FDEB
:102F000058BBFFE79DF81300059991F8CD10884252
:102F100008D1FFE79DF81200059991F8CE1088427C
:102F20001BD0FFE79DF81300059991F8CF10884258
:102F300008D1FFE79DF81200059991F8D01088425A
:102F40000BD0FFE79DF81300059981F8CB009DF8A1
:102F50001200059981F8CC0061E0FFE7029801308A
:102F6000029091E701208DF81300FFE79DF8130010
:102F70001E2854D8FFE701208DF81200FFE79DF8C6
:102F800012000E2844D8FFE705989DF813109DF80D
:102F90001220FFF7C3F8A0BBFFE705989DF81310B8
:102FA0009DF81220FFF79EFD58BBFFE79DF8130028
:102FB000059991F8CD10884208D1FFE79DF81200DD
:102FC000059991F8CE1088421BD0FFE79DF81300B9
:102FD000059991F8CF10884208D1FFE79DF81200BB
:102FE000059991F8D01088420BD0FFE79DF81300A7
:102FF000059981F8CB009DF81200059981F8CC0065
:103000000DE0FFE79DF8120001308DF81200B6E7E1
:10301000FFE79DF8130001308DF81300A6E706B016
:1030200080BD000082B001908DF80310019890F8E7
:10303000C900032806D1FFE79DF80300022801D14B
:10304000FFE727E0019890F8C900022806D1FFE7C2
:103050009DF80300032801D1FFE71BE0019890F8D9
:10306000C90030B9FFE79DF80300012801D1FFE74F
:1030700010E0019890F8C900012805D1FFE79DF8FC
:10308000030008B9FFE705E09DF80300019981F806
:10309000CA00FFE702B0704780B584B00390039880
:1030A00090F8D70008B1FFE736E1039991F8CA001C
:1030B00081F8C900039800788DF80A00039890F809
:1030C00064008DF80900039890F8C9000146019149
:1030D00003281CD80199DFE801F002080E149DF8BE
:1030E000090001388DF8090012E09DF8090001304F
:1030F0008DF809000CE09DF80A0001388DF80A00EF
:1031000006E09DF80A0001308DF80A0000E0FFE7B4
:1031100003989DF80A109DF80920FFF7E3FC98B189
:10312000FFE70399012081F8D7000399B1F8D20095
:10313000B1F8D410884206DDFFE70399B1F8D20058
:10314000A1F8D400FFE7E7E000208DF80B00FFE7CF
:103150009DF80B00039991F8C810013988422EDAC6
:10316000FFE703989DF80B10405C9DF80A10884219
:103170001ED1FFE703989DF80B10084490F86400F7
:103180009DF80910884213D1FFE70399012081F8C7
:10319000D7000399B1F8D200B1F8D410884206DD07
:1031A000FFE70399B1F8D200A1F8D400FFE7B3E03C
:1031B000FFE79DF80B0001308DF80B00C8E703987E
:1031C00090F8C80001388DF80B00FFE79DF80B0060
:1031D000012816DBFFE703999DF80B20881810F8EB
:1031E000010C885403989DF80B10014491F863007A
:1031F00081F86400FFE79DF80B0001388DF80B00A3
:10320000E4E79DF80A00039908709DF80900039906
:1032100081F864009DF80A00039991F8CB10884268
:1032200031D1FFE79DF80900039991F8CC1088424D
:1032300029D1FFE70399B1F8D2000A30A1F8D200F2
:10324000039890F8C800632816D8FFE7039991F80F
:10325000C820881810F8010C8854039890F8C810FA
:10326000014491F8630081F86400039991F8C80063
:10327000013081F8C800FFE70398FFF7F9FD0398D4
:1032800000F04CF8FFE79DF80A00039991F8CD1083
:1032900088421ED1FFE79DF80900039991F8CE10EE
:1032A000884216D1FFE70398B0F8D200012807DB67
:1032B000FFE70399B1F8D2000138A1F8D20004E089
:1032C00003990020A1F8D200FFE70398FFF778FCEC
:1032D000FFE79DF80A00039991F8CF1088421BD1AF
:1032E000FFE79DF80900039991F8D010884213D1A7
:1032F000FFE70399012081F8D7000399B1F8D200C4
:10330000B1F8D410884206DDFFE70399B1F8D20086
:10331000A1F8D400FFE7FFE704B080BD81B00090C2
:103320000098B0F8D2003C2805DBFFE700990320A5
:1033300081F8D60010E00098B0F8D2001E2805DB16
:10334000FFE70099022081F8D60004E000990120EF
:1033500081F8D600FFE7FFE701B0704780B582B083
:103360000190019808B9FFE76DE040F2CE00C2F28B
:1033700000004FF48061FCF793FF00F067F8002035
:103380008DF80300FFE79DF80300019991F82811DB
:10339000884211DAFFE701989DF80310014491F883
:1033A000D80091F80011FDF7E3FFFFE79DF8030057
:1033B00001308DF80300E6E7019991F8CB0091F810
:1033C000CC10FDF7A1FE019991F8CD0091F8CE1037
:1033D000FDF762FE019991F8CF0091F8D010FDF74A
:1033E00077FE019890F8C8008DF80300FFE79DF87C
:1033F0000300012824DBFFE79DF8030001388DF866
:1034000002009DF8020050B9FFE701989DF80220E4
:103410008118805C91F86410FDF78EFF09E0019837
:103420009DF802208118805C91F86410FDF768FF18
:10343000FFE7FFE79DF8030001388DF80300D6E7AA
:10344000FEF780F9FFE702B080BD000080B582B0D2
:1034500000208DF80700FFE79DF807001F2811D80E
:10346000FFE79DF807000021FDF782FF9DF80700A8
:103470000F21FDF77DFFFFE79DF8070001308DF874
:103480000700E9E701208DF80600FFE79DF8060038
:103490000E2811DCFFE79DF806100020FDF768FFFD
:1034A0009DF806101F20FDF763FFFFE79DF806005B
:1034B00001308DF80600E9E702B080BD80B582B02A
:1034C00040F2CE00C2F200004FF480610191FCF79F
:1034D000E7FE019940F2CE40C2F20000FCF7E0FEA8
:1034E00002B080BD80B540F2CE40C2F200004FF481
:1034F0008061FCF7D5FE80BD80B540F62470C2F235
:1035000000000068804780BD4EF68851CEF2000171
:10351000086840F4700008604EF60851CEF20001D1
:103520004FF000600860704780B51020C4F20000C2
:103530000068C00788B1FFE71021C4F200010868E5
:1035400020F00100086040F64C21C2F2000108683A
:1035500001300860FDF736FDFFE780BD80B582B021
:1035600043F64001C4F20201086840F0010008601F
:103570004FF080410191002008602421C4F2000135
:1035800008602822C4F200020F2111602C22C4F22C
:10359000000240F2E73111601422C4F2000201215E
:1035A00011601022C4F2000210600C22C4F200026A
:1035B000106840F0010010601C20009000F070F9CD
:1035C000009800F055F90199086840F00100086082
:1035D00002B080BD80B582B0262000F031F944F2FF
:1035E0000040C4F200000068800600280BD5FFE709
:1035F00040F2BC00C2F200000068019000F0AEFC96
:1036000001998847FFE702B080BD000082B00190B9
:10361000ADF8021000208DF80100BDF80200B0F5F1
:10362000007F01D1FFE7FFE701980068BDF80210B5
:10363000084204D0FFE701208DF8010003E00020DC
:103640008DF80100FFE79DF8010002B0704700000F
:1036500081B00090009840686FF35F2001B0704720
:1036600080B58AB00990099800780146059105282F
:1036700000F2B9800599DFE801F0B5033344839483
:103680000021084600F0CCFB44F2BE50C0F600001A
:1036900000F056FB0998B0F8D60006A9049100F096
:1036A0007DFA049800F04CFB44F2D350C0F60000C1
:1036B00000F046FB04990998B0F84A0100F06EFA50
:1036C000049800F03DFB44F21150C0F6000000F0F9
:1036D00037FB0998D0F844010121FEF759FD94E029
:1036E0000021084600F09CFB44F21650C0F6000092
:1036F00000F026FB0998D0F844010121FEF748FDAF
:1037000083E00021084600F08BFB44F2BE50C0F677
:10371000000000F015FB0998B0F8D60006A9039147
:1037200000F03CFA039800F00BFB44F2D350C0F6D3
:10373000000000F005FB03990998B0F8D40000F0F0
:103740002DFA039800F0FCFA44F2C150C0F60000D4
:1037500000F0F6FA0399099890F8D80000F01EFAE4
:10376000039800F0EDFA44F22C50C0F6000000F08F
:10377000E7FA0998D0F844010121FEF709FD44E079
:103780000021084600F04CFB44F2F440C0F6000073
:1037900000F0D6FA0998D0F844010121FEF7F8FCB0
:1037A00033E00021084600F03BFB44F2CB50C0F66A
:1037B000000000F0C5FA0998B0F8D40006A90291FB
:1037C00000F0ECF9029800F0BBFA44F22C50C0F67D
:1037D000000000F0B5FA0998D0F844010121FEF785
:1037E000D7FC12E0FFE70998D0F8440100210191CD
:1037F000FEF7CEFC0198012100F012FB44F20550C7
:10380000C0F6000000F09CFAFFE70AB080BD00009F
:1038100081B08DF803009DF9030000280ED4FFE766
:103820009DF9031001F01F02012090404A094EF259
:103830008021CEF2000141F82200FFE701B070477D
:1038400081B08DF803009DF9030000280ED4FFE736
:103850009DF9031001F01F02012090404A094EF229
:103860008021CEF2000141F82200FFE701B070474D
:1038700081B08DF803009DF9030000280ED4FFE706
:103880009DF9031001F01F02012090404A094EF2F9
:103890000011CEF2000141F82200FFE701B07047AD
:1038A00082B08DF8070000919DF9070000280AD426
:1038B000FFE7009800019DF907104EF20042CEF29A
:1038C000000288540BE0009800019DF8071001F0F9
:1038D0000F014EF61452CEF200028854FFE702B0F8
:1038E0007047000082B0019040F64C20C2F2000008
:1038F00000680090FFE740F64C20C2F2000000682C
:103900000099401A0199884202D2FFE700BFF2E70E
:1039100002B0704783B0029041F20400CEF2000082
:103920000068019040F21400C2F2000000684DF6F9
:103930008361C4F21B31A0FB0110800C0299484343
:103940000090FFE741F20400CEF200000068019908
:10395000401A0099884201D2FFE7F3E703B07047AD
:10396000800802D0401E00BFFCD170472DE9F04115
:1039700040F21406C2F20006044630684FF0FF31F0
:10398000B1FBF0F14FF47A7201FB02F744F6D35821
:10399000BC42C1F262080BD9A0FB0801880907FBF1
:1039A00000F500BF2846E41BFFF7DAFFBC42F9D858
:1039B0003068A0FB080188096043BDE8F041FFF7CB
:1039C000CFBF00002DE9F04140F21406C2F200061C
:1039D000044630684FF0FF31B1FBF0F144F2402271
:1039E000C0F20F0201FB02F74DF68368BC42C4F23D
:1039F0001B380BD9A0FB0801880C07FB00F500BFA2
:103A00002846E41BFFF7ACFFBC42F9D83068A0FBA6
:103A10000801880C6043BDE8F041FFF7A1BF00003A
:103A200084B003900291BDF90E100020C4F2020090
:103A300000EB812001909DF80C00009001984069F6
:103A4000009A0121914088430299914008430199CD
:103A5000486104B07047000085B004908DF80F10E5
:103A6000BDF912100020C4F2020000EB8120029088
:103A70009DF810000190BDF91210012000FA01F22A
:103A800043F63001C4F2020108681043086043F6AF
:103A90004401C4F20201086840F48040086042F228
:103AA0000401CEF20401086840F0070008609DF8A8
:103AB0000F000146009104286DD80099DFE801F05D
:103AC0000316293F55000298006801994A00032116
:103AD00001FA02F29043029A10600298C068019ABB
:103AE0005200914088430299C86054E002980068EF
:103AF00001994A00032101FA02F29043029A1060F0
:103B00000298C068019A5200914088430299C860A7
:103B100041E00298006801994B00032101FA03F289
:103B2000904301229A401043029A10600298C068A4
:103B3000019A5200914088430299C8602BE0029894
:103B4000006801994A00032101FA02F29043029AA7
:103B500010600298C068019A520091408843012188
:103B6000914008430299C86015E0029800680199E5
:103B70004A00032101FA02F29043029A106002986F
:103B8000C068019A5200914088430A21914008433D
:103B90000299C860FFE705B07047000087B0069043
:103BA0000591002004900390069858B9FFE7059905
:103BB000049A501C0490302088540599049A0020DF
:103BC00088545BE00698B0F1FF3F06DCFFE7012078
:103BD0000390069840420690FFE7FFE70698012809
:103BE0001EDBFFE7069846F26761C6F2666150FB8E
:103BF00001F39A0802EBD37202EB8202A0EB4200BF
:103C00003030059A049B03F1010CCDF810C0D0545C
:103C1000069850FB01F1881000EBD1700690DDE7AB
:103C2000039838B1FFE70599049A501C04902D20A1
:103C30008854FFE70599049A00208854029004985C
:103C400001380190FFE702980199884216DAFFE7F0
:103C500005980299405C8DF8030005990198085C6D
:103C6000029A88549DF803000599019A8854029895
:103C700001300290019801380190E4E707B07047E5
:103C8000B0B509200221FFF7E7FE0720C0F20200CD
:103C90000221FFF7E1FE40F204050024C2F2000514
:103CA00055F824000221FFF7D7FE0134042CF7D188
:103CB0006420FFF75BFE302000F0C2F80520FFF71C
:103CC00055FE302000F0BCF86420FFF77BFE30206A
:103CD00000F0B6F86420FFF775FE202000F0B0F881
:103CE0006420FFF76FFE282000F0AAF83C20FFF7C1
:103CF00069FE082000F0A4F83C20FFF763FE0120D5
:103D000000F09EF80420FFF731FE062000F098F83E
:103D10003C20FFF757FE0C2000F092F83C20FFF704
:103D200051FE802000F08CF840F2C001C2F2000188
:103D300000220C200A60BDE8B04000F081B800000D
:103D400070B504460078002808BF70BD40F2C00579
:103D5000C2F2000500260CE0C02000F071F82E60D1
:103D6000207800F011F828680130286014F8010F5D
:103D700048B129681029EFD00A28F1D1C02000F0FD
:103D80005FF80134EBE770BD2DE9F041054640F2E4
:103D900007080A20C0F20208FFF7E8FD0920012108
:103DA000FFF73EFE404601212F09FFF739FE40F2A2
:103DB00004060024C2F2000656F8240027FA04F193
:103DC00001F00101FFF72CFE0134042CF4D1012095
:103DD000FFF7F8FD404600210027FFF721FE0120F4
:103DE000FFF7F0FD40460121FFF71AFE05F00F0432
:103DF00056F8270024FA07F101F00101FFF710FE41
:103E00000137042FF4D10120FFF7DCFD40460021EB
:103E1000FFF706FE0120BDE8F041FFF7D3BD00002B
:103E200010B5044600EB811040F08000C0B200F0F5
:103E300007F840F2C000C2F20000046010BD0000AC
:103E40002DE9F041054640F207080A20C0F20208B9
:103E5000FFF78CFD092000210027FFF7E1FD404618
:103E600001212C09FFF7DCFD40F20406C2F2000636
:103E700056F8270024FA07F101F00101FFF7D0FD01
:103E80000137042FF4D10120FFF79CFD40460021AB
:103E90000027FFF7C5FD0120FFF794FD40460121F3
:103EA000FFF7BEFD56F8270025FA07F101F00101E2
:103EB000FFF7B6FD0137042FF4D10120FFF782FD93
:103EC00040460021FFF7ACFD0120BDE8F041FFF7BF
:103ED00079BD000080B582B000200190FFF73EFB65
:103EE000FDF7D2FEFEF736FAFDF794F843F63001FF
:103EF000C4F20201086840F001000860FEF702FB0E
:103F0000FCF7CCFFFFF7BCFEFEF784F9FA20FFF7C1
:103F1000E9FCFDF72BF840F6D000C2F20000FCF7F8
:103F200055FAFFE740F6D000C2F20000FCF7B4FA01
:103F3000F8E7000081B000900099086843F2390367
:103F400044F66D62C4F2C61200FB023020F000405D
:103F500008600098006801B07047000080B582B02A
:103F6000FFE744F20040C4F200002021FFF74EFBBF
:103F700008B9FFE7F5E744F20040C4F20000FFF79C
:103F800067FBADF806009DF8060002B080BD410059
:103F9000080218BF04200A0E18BF40F001004FF0BD
:103FA0007F4232EA010108BF40F00200012808BF49
:103FB0000520704770B54FF068422DED048BF0EE90
:103FC000408A18EE900AB0EE608A18EE101A02EBE2
:103FD0004003B3F1654F3CBF02EB4102B2F1654FC4
:103FE0007DD200BFC0F3C753C1F3C7529A1A1B2A30
:103FF00009DD10F0004F14BF9FED830A9FED830A87
:10400000BDEC048B70BD12F11A0F36DA11F0004FBF
:1040100009D010F0004F0CBF9FED7D0A9FED7D0A87
:10402000BDEC048B70BD88EE889A19EE100AFFF77C
:10403000AEFF042808BF00F033F918EE900AFFF72E
:10404000A6FF054618EE100AFFF7A1FF044619EE79
:10405000100AFFF79CFF042D18BF052D08D1042C72
:1040600018BF052C04D1002804BF0220FCF769F911
:10407000B0EE490ABDEC048B70BD4200B2EB410FBB
:104080003AD910F0004F19BFDFED630A9FED630AC4
:10409000DFED630A9FED630AB0EE481A0A46B1EEFF
:1040A000688A80F00041F0EE418A10460A1A5200F8
:1040B000B2F1807F34D2484010F0004FDFED5A1A41
:1040C0009FED5A2A1DBFBEEE001A70EEE10A30EED7
:1040D000420AB6EE001A08BF70EEA10A00E040E006
:1040E00008BF30EE020AB0EE682A01EE482A08EE58
:1040F000818AC2EE081A15E011F0004F04BF9FED4F
:104100004C0AF0EE400AD1D010F0004F19BFDFED9D
:10411000490A9FED490ADFED490A9FED490AC5E7C3
:10412000C8EE881A21EEA11A9FED462ADFED462A35
:1041300041EE022A9FED452A01EE222ADFED442AB4
:1041400041EE022A9FED432ABDEC048B01EE222AA8
:1041500021EE811A01EE020A30EE210A30EE200A29
:1041600070BD4FF07F42B2EB400F28BFB2EB410F62
:1041700009D2F0EE480AB0EE680ABDEC048BBDE847
:10418000704000F08AB840EA01035B0008BF41F0CC
:10419000FF410BD0B2EB400F08BFB2EB410F08D18B
:1041A00020F0804008EE900A21F0804108EE101ABD
:1041B00018E7B2EB400F12BF5FEA410340F0FF4047
:1041C00001F000413FF40EAFB2EB410F12BF5FEAC6
:1041D000400200F0004041F0FF413FF403AF4A00CD
:1041E00092EA40033FF5FEAE002AACBF9FED1A0AEB
:1041F0009FED1A0A68EE808A28EE008A18EE900A6F
:1042000018EE101AEEE60000DB0FC9BFDB0FC93F46
:10421000DB0F4940DB0F49C00000C9BF22AAFDB92E
:104220000000C93F22AAFD390060ED3EC30ACE3727
:1042300000000000000049C022AA7DBA00004940E9
:1042400022AA7D3A2DAD65BD8FB8D53D0FB511BE03
:1042500061C84C3EA8AAAABE0000804F0000802F73
:1042600010B52DED028BB1EEC08A18EE100A20F0C9
:104270000040C0F1FF40C00F0AD010EE100A20F03D
:104280000040C0F1FF40C00F04BF0120FCF759F807
:10429000B0EE480ABDEC028B10BD30EE200A70472C
:1042A0009FED020A20EE000A704700000000001097
:1042B000F1EE100A4FF6FF71C0F2C03120EA0100A2
:1042C00040F04070E1EE100A70470000010001016B
:1042D00040000000800A0020800E0020000F002017
:1042E00000000000000000000000005F0000000768
:1042F000000700147F147F14242A7F2A1223130836
:10430000646236495522500005030000001C22411A
:10431000000041221C0014083E081408083E08084A
:104320000050300000080808080800606000002005
:10433000100804023E5149453E00427F4000426160
:104340005149462141454B311814127F10274545EC
:1043500045393C4A49493001710905033649494903
:1043600036064949291E0036360000005636000040
:1043700008142241001414141414004122140802D9
:1043800001510906324979413E7E1111117E7F4962
:104390004949363E414141227F4141221C7F4949E2
:1043A00049417F090909013E4149497A7F080808C6
:1043B0007F00417F41002040413F017F081422419E
:1043C0007F404040407F020C027F7F0408107F3E08
:1043D0004141413E7F090909063E4151215E7F0965
:1043E000192946464949493101017F01013F4040B1
:1043F000403F1F2040201F3F4038403F63140814B7
:104400006307087008076151494543007F41410037
:1044100002040810200041417F0004020102044010
:1044200040404040000102040020545454787F482A
:104430004444383844444420384444487F38545431
:104440005418087E0901020C5252523E7F0804049F
:104450007800447D40002040443D007F1028440007
:1044600000417F40007C041804787C0804047838FC
:10447000444444387C14141408081414187C7C0830
:104480000404084854545420043F4440203C404015
:10449000207C1C2040201C3C4030403C44281028FC
:1044A000440C5050503C4464544C44000836410085
:1044B00000007F00000041360800080408100804CE
:1044C0000707044070704009060609906060900676
:1044D0000F0F0660F0F0600F0F0F0FF0F0F0F00F0D
:1044E0000F0F0FF0F0F0F0000F000FF000F00006DB
:1044F0000909060050415553454420202020202022
:1045000020202020005374617274696E672E2E2E55
:1045100020202020200043414C4942524154494E22
:10452000472E2E2E202000426573743A202000531F
:10453000636F72653A200047726F757020004361A7
:104540006C69627261746564210020205374617229
:10455000742028427574746F6E7329002020537480
:10456000617274202854696C7429002E004D454DE9
:10457000424552203100313030303030303100325D
:1045800030323430303031004D454D4245522032CA
:104590000031303030303030320032303234303070
:1045A0003032004D454D42455220330031303030DD
:1045B0003030303300323032343030303300483A2B
:1045C00000204C3A00503A00523A0047414D454FC6
:1045D00056455220533A0054656D7065726174758A
:1045E00072653A003D3D3D20504155534544203DC4
:1045F0003D3D003D3D3D20534E414B452047414D03
:1046000045203D3D3D003D3D3D2047414D45204F2E
:10461000564552203D3D3D003E004300486F6C64CE
:1046200020626F617264204C4556454C0043414CFA
:104630004942524154494F4E00202043616C696207
:1046400072617465204D505500526F6C6C2F50692B
:10465000746368207361766564004B333A20526559
:1046600073756D65005072657373204B3320746FE2
:104670002073617665004B312F4B323A4E617620C4
:104680004B333A53656C005072657373204B342082
:10469000746F2063616E63656C004B333A20526522
:1046A0007374617274004B343A204D656E7500006E
:1046B000004700080000002040000000F80100084A
:1046C0004047000840000020E814000018020008DD
:1046D00000000000000000000000000000000000DA
:1046E00000000000000000000000000000000000CA
:1046F00000000000000000000000000000000000BA
:10470000FF00000005000100040001000A00010094
:10471000080000000024F4007F4500089A450008C6
:10472000B54500086D45000888450008A345000808
:104730007645000891450008AC45000800000000DF
:040000050800019559
:00000001FF
